:020000043006C4
:10740000604B0630E57D063065AF0630377E0630CE
:10741000000000000000000000000000000000006C
:10742000000000000000000000000000397E06306F
:1074300000000000000000003B7E0630ADB50630C5
:107440003F7E0630417E0630437E06308DAF0630EB
:1074500000000000477E0630497E06304B7E063035
:107460004D7E06306DB00630517E0630537E0630BC
:10747000557E0630577E0630597E063000000000EB
:1074800000000000000000000000000000000000FC
:10749000000000005B7E0630000000005D7E0630CC
:1074A00000000000000000005F7E063000000000C9
:1074B000617E0630000000000000000000000000B7
:1074C0000448054B10B5834203D0044B002B00D079
:1074D000984710BD500906305009063000000000E2
:1074E00006480749091A8B10C90FC91810B5491069
:1074F00003D0044B002B00D0984710BD5009063034
:10750000500906300000000010B5074C2378002B0E
:1075100009D1FFF7D5FF054B002B02D0044800E04E
:1075200000BF0123237010BD500906300000000089
:10753000404C0730054B10B5002B03D004490548DB
:1075400000E000BFFFF7CCFF10BDC0460000000008
:1075500054090630404C0730402292029A1A924653
:107560007047C046174B002B00D1134B9D46FFF7C9
:10757000F3FF00218B460F461348144A121A0AF0F3
:107580006DFD0E4B002B00D098470D4B002B00D00B
:1075900098470020002104000D000D48002802D06B
:1075A0000C4800E000BF0AF001FD2000290000F0B7
:1075B000F7FA0AF0D5FCC046000008000000000001
:1075C00000000000604B063050090630442D0630A4
:1075D000000000000000000080B584B000AFF8603B
:1075E000B9607A607B68DB43BA689A4201D90023AC
:1075F00005E0BA687B68D218FB681A60012318009E
:10760000BD4604B080BD80B586B000AFF860B960FB
:107610007A60FB68002B01D1002317E07A68B96813
:107620001423FB181800FFF7D7FF03001A000123EB
:107630005340DBB2002B01D0002307E0FB68DA687F
:107640007B699A4201D2002300E001231800BD4665
:1076500006B080BD80B584B000AF02003960FB1D6C
:107660001A700023FB600AE0124BFA681201D35C27
:10767000FA1D12789A4208D0FB680133FB600E4B6A
:107680001B68FA689A42EFDB00E0C0460A4B1B68B1
:10769000FA689A4202D101235B4206E0FB681A01B4
:1076A000044BD2183B681A6000231800BD4604B092
:1076B00080BDC04608080630F034073080B582B07F
:1076C00000AF7860C046BD4602B080BD90B58FB0B7
:1076D00000AFF860B9607A603B602F23FB1800228E
:1076E0001A700023BB623A68B968FB681800FFF79C
:1076F0008AFF03001A0001235340DBB2002B02D0A3
:1077000001235B42E3E03B687B63FB685B685B688B
:10771000984703007B611423FB181B785B079B0FC2
:10772000DBB21A006C4B9200D25827217B181A70DA
:107730007B181B785B421A00BB6813403B623A6AB5
:10774000BB689A4248D0FB685B685C69FB689A68D2
:107750003B6AD3181822B91801221800A047030069
:10776000BB62BB6A002B01DABB6AB0E0BA683B6A55
:10777000D21A3B68D21827217B181B789A4206D36D
:107780007B181A78396ABB68CB1AD31800E03B68BB
:10779000FB612F23FB1800221A7013E02F203B18E7
:1077A0001A78BB68D2183B6AD21A3B181B787968E2
:1077B000CB18182179188A5C1A703B181A783B1874
:1077C00001321A702F23FB181B78FA699A42E5D808
:1077D0007A6BFB69D31A7B637B6B002B2CD027233E
:1077E000FB181B781900786B0AF0FEF803003B6366
:1077F0003B6B002B20D0FB685B685C69FB689A6878
:10780000BB68D2182F217B181B78D0187B181B78E7
:107810007A68D3183A6B1900A0470300BB62BB6AB1
:10782000002B01DABB6A52E02723FB181B783A6B66
:1078300053437A6BD31A7B637B6B002B41D0FB687D
:107840005B685C69FB689A68BB68D2182F23FB18D9
:107850001B78D2182723FB181B78396B4B43D3189E
:107860001822B91801221800A0470300BB62BB6AA6
:10787000002B01DABB6A2AE02E23FB1800221A70C3
:1078800019E02E243B191A782F23FB181978272387
:10789000FB181B78386B4343C9183B191B78CB186E
:1078A0007968CB18182179188A5C1A703B191A78F4
:1078B0003B1901321A702E23FB181B787A6B9A42FF
:1078C000DFD8BB6A002B01DABB6A00E00023180096
:1078D000BD460FB090BDC0462031073080B588B09E
:1078E00000AFF860B9607A600023FB610023BB61E0
:1078F0007A68B968FB681800FFF785FE03001A0074
:1079000001235340DBB2002B02D001235B4229E06C
:10791000FB685B689B6A984703007B617B691B6817
:10792000002B1ED117E0FB685B68DA69FB68996879
:10793000BB68CB18180090470300BB61BB69002BE4
:107940000ED17B699B68FA69D318FB617B699B68E0
:10795000BA68D318BB60FA697B689A42E3D300E047
:10796000C046BB691800BD4608B080BD90B585B063
:1079700002AF3B001A000821012005F003F93A6824
:107980007B680C498A420BD10B498B4208D10B4CC6
:107990000B4A0C490C480D4B009323000AF0BCFD28
:1079A0003B000822002118000AF058FBC046BD46E3
:1079B00003B090BDA9B454B26D6F90A4903107305C
:1079C000B0310730E0310730E8310730FC310730A3
:1079D00080B582B000AF3B001A000421062005F0FC
:1079E000D1F803007B607B68002B01D07B6808E046
:1079F0003B68002B02D03B68012B01D1012300E042
:107A000000231800BD4602B080BD000080B582B0E2
:107A100000AF1C4B1A0020210B2005F01BFA0300BD
:107A20007B607B68002B05D07B68174A934201D0AE
:107A30007B6822E0154B1A0020210C2005F00AFA81
:107A400003007B607B68002B05D07B680E4A934265
:107A500001D07B6811E00E4B1A0020210D2005F0AB
:107A6000F9F903007B607B68002B05D07B68064A30
:107A7000934201D07B6800E07B681800BD4602B0ED
:107A800080BDC046303107305AC300005031073046
:107A90007031073090B585B002AF3B001A00042169
:107AA000062005F06FF803007B607B68002B01D097
:107AB0007B6823E0134B18000AF02EFD124C134A8A
:107AC00013491448144B009323000AF025FD3B682A
:107AD000002B12D1114A114B9A4205D0104B1800BD
:107AE0000AF01AFD0F4B09E0FFF790FF03007B60DF
:107AF0007B68002B01D07B6800E000231800BD46A6
:107B000003B090BD0432073090310730283207307F
:107B1000E0310730E8310730FC310730EDFEDEC0E0
:107B200060320730C5A3000080B586B000AF786032
:107B30007B681B790C22BA181100180000F0F2F8CB
:107B400003003B613B69002B05D0124B124A1348DE
:107B500040210AF0DDF97B681B681B692022134075
:107B600008D07B681B685A687B681B681B89D31820
:107B70007B6108E07B689A68FB68D2187B681B68A9
:107B80001B89D3187B6104F0FFF97B69180000F0B2
:107B900047FAC0469C32073098340730A432073089
:107BA00080B58AB000AF474B1B687B6280239A0187
:107BB000454B1100180006F039FA04F0A1F900F065
:107BC000DDF9031E04D0414B18000AF0A5FCFEE7C6
:107BD0003F4B18000AF0A0FC04F09CFF03003B623E
:107BE0003B6A002B04D03B4B18000AF095FCFEE7E3
:107BF000FFF7EEFE031E0BD0FFF74CFF03003B62C6
:107C00003B6A002B06D0344B18000AF085FCFEE7D7
:107C1000FFF7ACFE2B4B1B687B620123002B03D0CC
:107C200003F072FD03007B622C4B1B687A6AFA61D9
:107C3000BB61FA69BB69D31A5A1E9341DBB2002BB0
:107C400004D0274B18000AF067FCFEE700F0C0F9EB
:107C5000031E04D0234B18000AF05EFCFEE7194B0C
:107C60001B687B620123002B05D03B1D180001F02F
:107C7000A7FC03007B62194B1B687A6A7A613B613F
:107C80007A693B69D31A5A1E9341DBB2002B04D0A8
:107C9000154B18000AF040FCFEE73B1D9A68134B99
:107CA000110018000AF038FC114B18000AF034FCDF
:107CB0003B1D1800FFF738FF0E4B18000AF02CFC94
:107CC000FEE7C046500806306C0906301433073012
:107CD00034330730503307307C3307307429063093
:107CE00098330730D0330730F43307301C34073073
:107CF000503407307834073090B585B000AFB960A4
:107D00007A600F243B19021C1A707A68B9683B1913
:107D10001B78180004F0FAFA03001800BD4605B0FD
:107D200090BD000080B582B000AF02003960FB1D3D
:107D30001A70FB1D1B78642B09D0FB1D1978084BAA
:107D4000642218000AF0E8FB01235B4204E03B6870
:107D5000D022D2051A6000231800BD4602B080BDB3
:107D6000A434073080B582B000AF786039603B68DA
:107D7000022B21D03B68022B20DC3B68002B03D078
:107D80003B68012B0CD019E07B68002B06D07B6888
:107D9000012B01D1032313E0FF2311E001230FE0A6
:107DA0007B68002B06D07B68012B01D1042307E000
:107DB000FF2305E0022303E0FF2301E001235B42F0
:107DC0001800BD4602B080BD80B582B000AF7860BB
:107DD0007B685B689B6A984703001B7D1800BD4663
:107DE00002B080BD0F4C104DAC4209DA21686268C8
:107DF000A368043B02DBC858D050FAE70C34F3E721
:107E00000A4B0B4CA34208DA19685A680020043A5E
:107E100001DB8850FBE70833F4E703F069F8FFF76C
:107E2000A1FB00004C4C0730644C0730644C073019
:107E3000744C0730FEE7FEE7FEE7FEE7FEE7FEE7ED
:107E4000FEE7FEE7FEE7FEE7FEE7FEE7FEE7FEE70A
:107E5000FEE7FEE7FEE7FEE7FEE7FEE7FEE7FEE7FA
:107E6000FEE7C04680B584B000AF78600023FB60B9
:107E700010E00D4AFB681B01D31808331A687B68B1
:107E8000D2180949FB681B01CB1808331A60FB683C
:107E90000133FB600422FB689342EADBC046C04624
:107EA000BD4604B080BDC0460808063080B586B027
:107EB00000AFF860B9607A6001235B427B61FB68C8
:107EC000002B0AD1BB68C02292051A607B68BC22D5
:107ED000D2021A6000237B610FE0FB68012B02D005
:107EE000FB68022B09D1BB68C422D2051A607B68EB
:107EF000802292051A6000237B617B691800BD46D1
:107F000006B080BD80B586B000AF786000233B61CD
:107F10000023FB607B68164A98180C23FB1810227C
:107F2000BA188021890303F09BF903007B617B6908
:107F3000002B05D00F4B18000AF0EEFA012313E0D6
:107F40003B69EF2212039A180B4B9A62FA680A4BAC
:107F5000DA62094B9A6A084BDB6AD218064B9A63BD
:107F6000FA68054BDA6300231800BD4606B080BDF1
:107F700000F00E68F43407300808063080B582B08F
:107F800000AF03F017F803007B607B68002B01D083
:107F9000012317E080235B031800FFF7B3FF030002
:107FA0007B607B68002B01D001230BE0074B9B68B3
:107FB0000020984703007B607B68002B01D00123E1
:107FC00000E000231800BD4602B080BD6C390730C8
:107FD00080B584B000AF06F0A3F80300FB60FB6837
:107FE000002B01D0012314E004F094FD0300BB60DA
:107FF000BB68002B04D0094B18000AF08DFAFEE78D
:108000003B1D180003F07AFA7B681800FFF72AFF7F
:1080100000231800BD4604B080BDC046243507309B
:1080200080B584B000AF786006F000F90300FB6013
:10803000FB68002B00D0FEE70F4BDB68984703007E
:10804000FB60FB68002B00D0FEE70C4B7A681A60DF
:108050007B681B68BB60BB6883F30888C046BFF3BE
:108060004F8FC046BFF36F8FC046044B1B685B68E1
:10807000180003F0F9FEC0466C390730702906304D
:108080000EB490B594B000AF78600C23FB180022BA
:108090001A6004333C220021180009F0DFFFFB6D59
:1080A00018000AF0B7FA0300FB64FB6C0233402BA4
:1080B00004D9104B18000AF02FFA15E06023FB18C2
:1080C000BB60FA6D0C243B19110018000AF09AFAF3
:1080D00021007A18FB6CD3180D221A70BA687B182D
:1080E000110018000AF09EFABD4614B090BC08BCFE
:1080F00003B018475035073080B582B000AF7860C4
:108100007B685B781800BD4602B080BD80B582B048
:1081100000AF78607B689B681800BD4602B080BDE8
:1081200080B582B000AF78607B68DB681800BD4620
:1081300002B080BD80B584B000AFF860B9607A60ED
:108140007B68DB43BA689A4201D9002305E0BA682C
:108150007B68D218FB681A6001231800BD4604B082
:1081600080BD80B582B000AF786039607B68B8228E
:108170009B5C19003B682C225A4358234B43D3186D
:108180007A68D3181800BD4602B080BD80B582B0B1
:1081900000AF786039607B68B8229B5C18007A6811
:1081A0003B682C21594358234343CB18D318203321
:1081B0001B681800FFF7AAFF03001800BD4602B0B5
:1081C00080BD80B586B000AFF8607A600B23FB18E5
:1081D0000A1C1A7000233B6127E001237B617B6945
:1081E000012B0DD13A69FB6811001800FFF7B9FFA8
:1081F00002007B683969F86801F01EFA03007B61B0
:108200007B69002B0ED03B69002B09DD0B23FB188B
:108210001B7801225340DBB2002B01D0002308E081
:108220007B6906E03B6901333B613B69012BD4DD8F
:1082300000231800BD4606B080BD0000B0B584B074
:1082400000AF786039607B68B8229C5C3A687B68D4
:1082500011001800FFF785FF7B68B8229B5C1D00AA
:108260007A683B682C21594358236B43CB18D318A9
:1082700020331B681A000100200001F003FC0300FA
:10828000FB60FB68002B05D0054B18000AF044F991
:10829000FB6800E000231800BD4604B0B0BDC04636
:1082A0007835073080B584B000AF786039607B687E
:1082B000B822002199547B68B8220021995415E016
:1082C0007B68B8229B5C19007B68B9225B189B18FD
:1082D0001B7801225340DBB2002B0DD17B68B82202
:1082E0009B5C0133D9B27B68B82299547B68B82271
:1082F0009B5C012BE4D900E0C0467B68B8229B5C04
:108300007A68BC211B01D3185B181B68FB607B6873
:10831000B8229B5C18007A68FB682C2159435823CB
:108320004343CB18D31820331B681800FFF7E4FE33
:1083300003001A003B681A71FA687B681100180084
:10834000FFF724FF02003B689A60FA687B6811001F
:108350001800FFF706FF02003B681A60C046BD46E2
:1083600004B080BD80B584B000AF78607B68B8226F
:108370000021995430E07B68B8229B5C19007B682F
:10838000B9225B189B181B78002B1CD10023FB60C3
:1083900015E07B68B8229B5C1800FB680122D31AA9
:1083A0007A682C21594358234343CB18D3182033E0
:1083B0001B681800FFF782F9FB680133FB60FB685C
:1083C000012BE6D900E0C0467B68B8229B5C0133F4
:1083D000D9B27B68B82299547B68B8229B5C012B88
:1083E000C9D9C046C046BD4604B080BD90B58BB06B
:1083F00000AFF860B9607A60FB68B8229B5C1A0035
:10840000BB6819001000FFF7ADFC03003B623B6A3C
:10841000DBB21422BA1811001800FFF71BF9030091
:108420007B627B6A002B02D001237B6260E0BA682A
:10843000FB6811001800FFF794FE03001B891C0065
:10844000BA68FB6811001800FFF78BFE0300DB68B9
:10845000E318FB6178691023FA18F9690423FFF720
:1084600035F9031E02D001237B6241E0BA68FB6844
:1084700011001800FFF775FE03005B89BB61102136
:108480007B181B881F4A934218D17B185B881A00FF
:10849000BB69934202D003237B6229E078691024F0
:1084A0003B195B881A00FB69D1183A190423FFF7BE
:1084B0000DF9031E08D001237B6219E0BB69002B74
:1084C00002D003237B6213E01023FB181B880E4AA3
:1084D000934202D003237B620AE0FA69BB69D31896
:1084E0001022BA1852889A187B681A6000237B629F
:1084F0007B691800FFF7E2F87B6A1800BD460BB0F5
:1085000090BDC046086900000769000080B58CB0C6
:1085100006AFF860B9607A603B60144B1B687B6102
:1085200013203B18FA68B821525C1A700F4B1B6875
:108530007B610123002B14D03B1819787868BA6846
:1085400000230493002303930023029380235B0002
:108550000193074B00930300002001F0FDFC030092
:108560007B617B691800BD4606B080BD50080630AF
:10857000542A063080B584B000AF786039607B68DB
:108580001B68134A934201D000231DE07B68D96821
:108590007B681B891A000C23FB181800FFF7CAFD23
:1085A00003001A0001235340DBB2002B01D000234B
:1085B0000AE03B681800FFF7B3FD0200FB689A422F
:1085C00001D8002300E001231800BD4604B080BD9F
:1085D0003DB8F39680B586B000AFB9607A600F23DE
:1085E000FB18021C1A70BB683B611723FB180022A2
:1085F0001A7012E01723FB181B783A69D3181B78FE
:108600000F22BA1812789A4201D000230CE01721E9
:108610007B181A787B1801321A701723FB181B7805
:108620007A689A42E6D801231800BD4606B080BD9C
:10863000B0B588B000AF786039607B68B8229B5CC9
:108640001A003B6819001000FFF78CFB0300FB6168
:10865000FB69DBB20C22BA1811001800FEF7FAFF12
:108660000300BB61BB69002B02D001235B4225E004
:10867000FB6817257C191800FFF7A6FB0300237081
:10868000FB681800FFF71AF83A687B6811001800B9
:10869000FFF767FD03003B6139697B191B780422F2
:1086A0001800FFF797FF03001A0001235340DBB2C5
:1086B000002B02D001235B4200E000231800BD46DE
:1086C00008B0B0BD80B582B000AF786039607B681B
:1086D0001A783B681B789A4201D901232BE07B680A
:1086E0001A783B681B789A4202D201235B4222E04F
:1086F0007B685A783B685B789A4201D901231AE07B
:108700007B685A783B685B789A4202D201235B42CD
:1087100011E07B685A883B685B889A4201D9012343
:1087200009E07B685A883B685B889A4202D2012341
:108730005B4200E000231800BD4602B080BD00008F
:1087400090B593B000AFF860B9607A604A4B1B688F
:108750007B64FB68B8229B5C1A00BB6819001000A0
:10876000FFF700FB03003B643B6CDBB21422BA183A
:1087700011001800FEF76EFF0300FB63FB6B002B7C
:1087800001D07B6C74E0BA68FB6811001800FFF739
:10879000E8FC0300BB63BA68FB6811001800FFF730
:1087A00047FF031E04D0BB6B1B691022134004D08B
:1087B00001237B637B6B7B6455E001237B627B6AD7
:1087C0007B640123BB62BB6A7A6C3A63FB623A6BDF
:1087D000FB6AD31A5A425341DBB2002B0DD0264B11
:1087E0001B687B640123002B07D07A697B68B96B17
:1087F000F868FFF78BFE03007B647A69BB6B11009E
:108800001800FFF7B7FE03001A0001235340DBB244
:10881000002B0CD1194B1B687A6C3A62FB613A6AE7
:10882000FB69D31A5A1E9341DBB2002B1AD07C6924
:108830007B691800FFF774FC03001A000021200078
:10884000FFF74CF8BB68002B01D10D4B00E00D4B3E
:108850000D4A1900100009F05FFE0123BB61BB69DE
:108860007B6400E0C0467B691800FEF727FF7B6C45
:108870001800BD4613B090BD50080630742906306C
:10888000A8350730B0350730BC35073080B588B023
:1088900000AFB9607A600F217B18021C1A700023A8
:1088A000BB617B181B78BA6811001800FFF75AFAF1
:1088B0000300DBB21822BA1811001800FEF7CAFE36
:1088C0000300FB61FB69002B02D00123FB6117E071
:1088D000B9691423FA187B68180001F0E5FA03005F
:1088E000FB61FB69002B0AD10F23FB181B787A6907
:1088F0001100180002F05EFF0300FB6100E0C046BB
:10890000BB691800FEF7DAFEFB691800BD4608B027
:1089100080BD0000B0B588B002AF786000233B6135
:108920007B68B82200219954C7E07B68B8229B5C21
:1089300019007B68B9225B189B181B78002B00D0AC
:10894000B2E000237B612AE07B68B8229B5C1A00BE
:108950007B6919001000FFF705FA0300BB60BB68D4
:10896000D8B27B68B8229B5C19007B692C225A43E1
:1089700058234B43D31820337A68D3181900FEF7D5
:1089800069FE0300FB60FB68002B05D0504B514A89
:108990005149524809F0BCFA7B6901337B617B691C
:1089A000012BD1D97B68002200211800FFF709FCB8
:1089B0000300FB60FB68002B05D0494B180009F051
:1089C000ABFDFB6880E000237B615EE07A697B6839
:1089D00011001800FFF7C5FB03003B617B68B8225C
:1089E0009B5C18007A687B692C21594358234343C8
:1089F000CB18D31820331A683B6911001800FFF711
:108A0000B9FD031E24D07B68B8229B5C7A68C02124
:108A10001B01D2187B69D3185B1801221A707B697D
:108A2000002B01D12F4900E02F493B691B7D1C0021
:108A30003B695B7D1D003B69DB8A1A003B699B69D2
:108A40002A48019300922B00220009F065FD19E0ED
:108A50007B68B8229B5C7A68C0211B01D2187B69B5
:108A6000D3185B1800221A707B68B8229B5C19002F
:108A70007B69002B01D11B4B00E01B4B1C481A00EB
:108A800009F04AFD7B6901337B617B69012B9DD92C
:108A90007B68B8229B5C7A68BC211B01D3185B18E9
:108AA000012252421A6000E0C0467B68B8229B5CFB
:108AB0000133D9B27B68B82299547B68B8229B5C99
:108AC000012B00D831E700231800BD4606B0B0BD29
:108AD000E835073010390730C3080000F03507309B
:108AE000643607308C36073094360730A0360730AE
:108AF000C836073090B587B000AF786001235B427D
:108B00003B6100237B6131E07B68B8229B5C7A6823
:108B1000C0211B01D2187B69D3185B181B78002B6E
:108B200021D03B69013302D17B693B611BE07A694B
:108B30007B6811001800FFF714FB030014331C00BE
:108B40003A697B6811001800FFF70BFB0300143330
:108B500019002000FFF7B6FD0300FB60FB68012B46
:108B600001D17B693B617B6901337B617B69012BAF
:108B7000CAD93B691800BD4607B090BD80B584B026
:108B800000AF78607B68B822002199542CE07B68A4
:108B9000B8229B5C19007B68B9225B189B181B7874
:108BA000002B18D17B68B8229B5C7A68BC211B0122
:108BB000D3185B181B68FB607B68B8229B5C1900AC
:108BC000FB68002B01D10D4B00E00D4B0D481A0046
:108BD00009F0A2FC00E0C0467B68B8229B5C013330
:108BE000D9B27B68B82299547B68B8229B5C012B70
:108BF000CDD9C046C046BD4604B080BDA8350730BB
:108C0000B0350730F436073080B588B000AF7860F3
:108C10007B68B8229B5C18000823FA180C23FB1809
:108C20001900FFF743F90300FB61FB69002B01D03A
:108C3000052332E07B68B8229B5C7A680C331B0109
:108C4000D31804331B68BB617B68B8229B5C7A68CD
:108C50000C331B01D31808331B687B61FB68BA69AE
:108C60009A4201D2032318E07A69B9691023FB18EC
:108C70001800FFF75FFA03001A0001235340DBB22C
:108C8000002B01D0032308E0FA68BB68D2183B69C7
:108C90009A4201D2032300E000231800BD4608B029
:108CA00080BD000080B588B000AFF860B9607A6020
:108CB0003B6000237B61FB68B8229B5C1A00BB68A9
:108CC00019001000FFF74EF80300FB61FB69DBB2EF
:108CD0001422BA1811001800FEF7BCFC0300BB6197
:108CE000BB69002B01D0012315E078697A683B68E5
:108CF0000021FEF7EBFC0300BB61BB69002B05D034
:108D0000BA69074B1100180009F006FC7B691800CE
:108D1000FEF7D4FCBB691800BD4608B080BDC04654
:108D20002037073080B584B000AFF860B9607A6052
:108D30003B607A68BB689A4201D900230CE07A68EC
:108D4000FB689A4201D3012306E03A68FB689A4225
:108D500001D9012300E000231800BD4604B080BD06
:108D600080B588B000AF78607B68B8229B5CBB613F
:108D70007A68BB690C331B01D31804331B687B6111
:108D80007A68BB690C331B01D31808331B687A69F6
:108D9000D3183B610023FB612DE07A68FB69BC219D
:108DA0001B01D3185B181B68013320D0FA69BB691B
:108DB0009A421CD07A68FB690C331B01D318043328
:108DC0001B68FB607A68FB690C331B01D3180833FE
:108DD0001B68FA68D318BB60BB68FA6839697869A0
:108DE000FFF7A0FF031E03D001235B4207E0C0464C
:108DF000FB690133FB61FB69012BCED9002318000D
:108E0000BD4608B080BD000080B588B000AF786076
:108E10000023BB617B68B8229B5C7A68BC211B0184
:108E2000D3185B181B687B617A697B681100180096
:108E3000FFF797F90300BB61BB691B692022134050
:108E40005FD0BB695B683B6179690C23FA187B686A
:108E50001800FFF7CBFA0300FB61FB69002B01D080
:108E6000FB6968E07B68B8229B5C7A680C331B0165
:108E7000D31804333A691A607B68B8229B5CFA689D
:108E800079680C331B01CB1808331A607B68180013
:108E9000FFF7BAFE0300FB61FB69002B07D03A69BC
:108EA000274B1100180009F037FBFB6943E07B6892
:108EB0001800FFF755FF0300FB61FB69002B07D08B
:108EC0003A69204B1100180009F026FBFB6932E0DB
:108ED0007969FB683A697868FFF7E4FE0300FB6193
:108EE000FB69002B06D03A69174B1100180009F0F6
:108EF00013FB08E03A69154B1100180009F00CFB50
:108F000001E00323FB61FB69002B13D07B68B822CF
:108F10009B5C7A680C331B01D318043300221A605F
:108F20007B68B8229B5C7A680C331B01D31808332A
:108F300000221A60FB691800BD4608B080BDC0461B
:108F40005C3707308C370730F03707301838073078
:108F500080B582B000AF78607B68B8229B5C7A688D
:108F60000C331B01D31804331A681A4B1100180074
:108F700009F0D2FA7B68B8229B5C7A680C331B013B
:108F8000D31804331B6818007B68B8229B5C7A688E
:108F90000C331B01D31808331B681A00002109F099
:108FA0005DF87B68B8229B5C7A680C331B01D31890
:108FB000043300221A607B68B8229B5C7A680C3309
:108FC0001B01D318083300221A6000231800BD4685
:108FD00002B080BD4438073090B587B000AF7860EC
:108FE00039607B68B8229B5C19003A68154B180001
:108FF00009F092FA7B68B8229B5C1A003B68190062
:109000001000FEF7AFFE03007B617B69DBB20C2230
:10901000BA1811001800FEF71DFB03003B613B6905
:10902000002B0AD1FC68FB681800FFF779F80300F1
:109030001A0000212000FEF751FC3B691800BD46D4
:1090400007B090BD7838073080B586B000AF786043
:1090500039603B681B787A68BC211B01D3185B1808
:109060001B683B613B681B7819003B692C225A4303
:1090700058234B43D31810337A68D3180433FB605A
:109080003B681A1DFB6811001800FFF71BFB03006B
:109090007B617B69002B01DB00237B617B6918000E
:1090A000BD4606B080BD80B594B002AF78607B68E5
:1090B000B8229B5C7A68BC211B01D3185B181B6823
:1090C0003B647B68B8229B5C1A003B6C1900100063
:1090D000FEF748FE0300FB63FB6BDBB23822BA18D5
:1090E00011001800FEF7B6FA03007B647B6C002BBE
:1090F00002D001237B6466E03A6C7B6811001800A3
:10910000FFF72FF80100BA6B2023F8180123009312
:10911000402300F0C9FA03007B647B6C002B4FD125
:109120000E23FA181023F9182023F818002300F052
:1091300043FB03007B647B6C002B02DA01235B4260
:1091400046E07B6C002B02DD00237B643BE00E23BA
:10915000FB181B880C2B02D003237B6433E03A6C92
:109160007B6811001800FEF7FCFF03005A683B699A
:10917000D31819000E23FB181B881A001423FB18A0
:10918000180008F04FFF00237B647B6C002B02D09B
:1091900001237B6417E01423FB181B78012B02D9F1
:1091A00007237B640FE01423FA187B681100180072
:1091B000FFF74AFF03007B647B6C002B02D1AFE713
:1091C000C04600E0C046BB6B1800FEF777FA7B6C28
:1091D0001800BD4612B080BD80B584B000AF786085
:1091E00001235B42FB607B68B8220021995443E075
:1091F0007B68B8229B5C19007B68B9225B189B18BE
:109200001B78002B2FD17B681800FFF74CFF030061
:10921000FB60FB68002B27D07B681800FFF798FEE7
:109220007B68B8229B5C7A68BC211B01D3185B1851
:109230001B68BB607B68B8229B5C7A68C0211B01FD
:10924000D218BB68D3185B1800221A707B68B8224A
:109250009B5C7A68BC211B01D3185B180122524227
:109260001A60FB680EE0C0467B68B8229B5C013345
:10927000D9B27B68B82299547B68B8229B5C012BD9
:10928000B6D9FB681800BD4604B080BD80B588B073
:1092900000AF78607B68B82200219954A2E07B6817
:1092A000B8229B5C7A68BC211B01D3185B181B6831
:1092B000BB61BB69013300D089E07B681800FFF710
:1092C00019FC0300BB61BB6901330BD17B68B82279
:1092D0009B5C1A00494B1100180009F01DF9484B1E
:1092E0001B6887E07B68B8229B5C7A68BC211B0105
:1092F000D3185B18BA691A607B68B8229B5C1900A6
:109300007B68B9225B189B181B78002B5DD17B68AA
:109310001800FFF779FD03007B617B69002B1DD0EE
:10932000BA697B6811001800FFF756FE7B68B82207
:109330009B5C7A68C0211B01D218BB69D3185B18EB
:1093400000221A707B68B8229B5C7A68BC211B01E2
:10935000D3185B18012252421A6037E0284B1B6871
:10936000FB610123002B07D0B9697B68002218003C
:10937000FFF7E6F90300FB61224B1B68FA693A61CB
:10938000FB603A69FB68D31A5A1E9341DBB2002B8B
:109390001FD07B681800FFF7DBFD7B68B8229B5C61
:1093A0007A68C0211B01D218BB69D3185B18002250
:1093B0001A707B68B8229B5C7A68BC211B01D318A9
:1093C0005B18012252421A6000E0C04667E7C046BF
:1093D00000E0C0467B68B8229B5C0133D9B27B6851
:1093E000B82299547B68B8229B5C012B00D856E7C1
:1093F000044B1B681800BD4608B080BDA838073074
:109400005008063074290630B0B584B000AF7860DB
:109410007B68B8229C5C7B68B8229B5C7A68BC2124
:109420001B01D3185B181B681D007B68B8229B5C6E
:109430007A68BC211B01D3185B181A687B6811007D
:109440001800FEF78EFE03001A0029002000FFF727
:109450001DFA0300FB60FB68002B05D0054B1800CC
:1094600009F05AF8FB6800E000231800BD4604B07C
:10947000B0BDC046D038073080B58AB000AF786044
:1094800039600023FB61FB693B627B681800FFF7D2
:1094900041FA03007B627B6A002B00D06AE0464BF6
:1094A0001B683B620123002B05D07B681800FFF787
:1094B000EDFE03003B62414B1B683A6ABA617B6177
:1094C000BA697B69D31A5A1E9341DBB2002B53D180
:1094D0007B681800FFF780FE03007B627B6A002B2D
:1094E00001D0C046DBE7C0467B68B8220021995412
:1094F00030E07B68B8229B5C19007B68B9225B185E
:109500009B181B78002B1CD17B681800FFF77CFF91
:1095100003007B627B6A002B30D17B68B8229B5CA6
:109520007A68BC211B01D3185B181A687B6811008C
:109530001800FEF783FE03007B627B6A002B1FD1BD
:1095400000E0C0467B68B8229B5C0133D9B27B68DF
:10955000B82299547B68B8229B5C012BC9D97B68DF
:109560001800FFF70BFB3A687B6811001800FEF744
:1095700099FE06E0C04604E0C04602E0C04600E0B6
:10958000C0467B681800FEF7EDFE0C4B1B683A6A7C
:109590003A61FB603A69FB68D31A5A425341DBB225
:1095A000002B03D07B6ABB60BB683B623B6A180040
:1095B000BD460AB080BDC04650080630742906304A
:1095C00080B584B000AF78600C4B1B68FB60002056
:1095D00000F018F8094B1B68FB600123002B07D033
:1095E0007A68074B11001800FFF746FF0300FB6085
:1095F000FB681800BD4604B080BDC0465008063068
:109600007829063080B582B000AF78607B68002B87
:1096100006D07B68DC220021180008F01FFD05E061
:10962000044BDC220021180008F018FDC046BD469E
:1096300002B080BD7829063080B588B000AFF860F0
:10964000B9607A603B600023FB61FB68B8229B5CD9
:109650001A00BB6819001000FEF784FB0300BB6111
:10966000BB69DBB21422BA1811001800FDF7F2FF33
:109670000300FB61FB69002B0BD178697A6820231A
:109680000021FEF723F80300FB617B691800FEF759
:1096900015F8FB69002B01D00123FB61FB69180061
:1096A000BD4608B080BD000090B587B000AFF8603F
:1096B000B9607A601A00BB1C1A80FB68002B05D0C9
:1096C000BB68002B02D07B68002B02D101235B42D8
:1096D0006AE0BB681B891A00BB68DB68D3187B6132
:1096E000BB685A687B69D318190010243B190422FF
:1096F000180008F097FC21007B181B882C4A934225
:1097000018D1BB685A897B185B889A4202D0012322
:109710005B4249E0BB685A6810203B185B8819001F
:109720007B69CB18D31819003B180422180008F0E5
:1097300079FC06E0BB685B89002B02D001235B4209
:1097400032E01023FB181B881A4A934202D00123EF
:109750005B4229E0FB68BA681A60FB687A685A6065
:10976000FB68BA1C12881A81FA68202308215B184A
:10977000DB191B789372FB681B685B891A007B6995
:10978000D218FB68DA60FB681B685B891A007B698A
:10979000D3181022BA1852889A18FB685A617B694C
:1097A0001A1DFB681A6100231800BD4607B090BD62
:1097B000086900000769000080B586B000AFF86056
:1097C000B9607A603B60FB68002B08D0FB681B68BF
:1097D000002B04D0FB685B68002B00D064E0012301
:1097E0005B4268E0FB681B685B89002B0AD0FB6862
:1097F0001A69FB68DB689A4204D1FB681B691A1D71
:10980000FB681A61FB681B685A68FB681B69D31800
:1098100019001023FB180422180008F003FC002391
:109820007B617B69002B02D001235B4243E0FB6834
:109830009B7A002B07D0FB681A69FB68DB689A42A9
:1098400001D3012337E0FB681B891D4A934206D0F0
:109850001023FB181A88FB681B899A421BD13B68AE
:10986000002B04D01023FB181A883B681A80FB6871
:109870001B691A1DBB681A6010217B185A887B6807
:109880001A80FB681B697A1852889B181A1DFB689E
:109890001A6100230FE0FB681B691022BA18528876
:1098A0009B181A1DFB681A61FB681A69FB685B69E3
:1098B0009A4297D301231800BD4606B080BDC0462A
:1098C000FFFF000080B584B000AF78600800110091
:1098D000BB1C021C1A803B000A1C1A80BB1C1A8885
:1098E0003B001B88D318FB60FA6880235B029A4216
:1098F00001D3002304E0FB689AB27B681A8001233D
:109900001800BD4604B080BD90B58BB000AFBA6002
:109910007B600F23FB18021C1A700C23FB180A1C17
:109920001A801823FB1800221A607B68002B01D1D3
:1099300003239AE04F4B3B624F4B1B78012253406D
:10994000DBB2002B0FD08023DB004A481A00002135
:1099500008F084FB3B6A494A1A803B6A04225A8019
:10996000454B01221A703B6A5B88424A9446634425
:10997000FB61434B7B6224E0796A18243B19042283
:10998000180008F04FFB21007B181B881B0B9AB2B4
:109990000F23FB181B789BB29A420AD17B181B88B5
:1099A0001B051A0D0C23FB181B889A4201D10223B8
:1099B0005BE01823FB185B881A007B6AD31804331A
:1099C0007B627A6AFB699A42D6D30F23FB181B7815
:1099D0001B031AB20C23FB1800215B5E1B051B0D39
:1099E0001BB213431BB29AB218217B181A80BB68B2
:1099F0009AB27B185A803B6A5988BB689BB2043381
:109A00009AB21623FB181800FFF75CFF03001A0038
:109A100001235340DBB2002B01D0032325E01623A2
:109A2000FB181A888023DB009A4201D901231CE02D
:109A3000FB697B627B6A1822B9180422180008F0BF
:109A4000F1FA7B6A04337B627B6ABA687968180032
:109A500008F0E8FA3B6A5A88BB689BB2D3189BB2FD
:109A600004339AB23B6A5A8000231800BD460BB0FB
:109A700090BDC04600000630542B06301620000072
:109A800004000630B0B5B4B002AFB9607A600F23FD
:109A9000FB18021C1A700023C422BA181360C323D7
:109AA000FB1800221A70C223FB1800221A70674CA0
:109AB0007A68B968A023F818002300932300FFF701
:109AC000F3FD0300BC22B9180B60BB181B68002B08
:109AD00002D001235B42B5E09823FB189A22BA1802
:109AE0009C217918A0203818FFF766FE0300BC22DD
:109AF000B9180B60BB181B68002B02DA01235B420C
:109B0000A0E0BC23FB181B68002B55DC9823FB1836
:109B10001B88602B28D19A23FB181B88642B02D941
:109B200001235B428EE09C23FB1819689A23FB18E3
:109B30001B881422BA187868FDF7C8FD0300BC2200
:109B4000B9180B60BB181B68002B02D001235B42C5
:109B500078E09A23FB181B88C422BA181360C32329
:109B6000FB1801221A70B7E79823FB181B88102BEB
:109B7000B2D19A23FB181B88202B02D901235B4208
:109B800060E09C23FB1819689A23FB181B88782235
:109B9000BA187868FDF79AFD0300BC22B9180B606B
:109BA000BB181B68002B02D001235B424AE0C22392
:109BB000FB1801221A7000E0C046C323FB181B7873
:109BC00001225340DBB2002B07D1C223FB181B78C4
:109BD00001225340DBB2002B02D001235B4231E073
:109BE000C4243B191B68203B9C22B9180B60BB188E
:109BF0001B6814257A19D3187822B9182022180066
:109C000008F010FA0F23FB181B789B011BB23F22B0
:109C100013431AB2BA217B181A8078193B191A68B3
:109C20007B18198803000120FFF76EFE0300BC2299
:109C3000B9180B60BB181B68002B02D0BB181B683F
:109C400000E000231800BD4632B0B0BDFFFF0000A9
:109C500080B582B000AF78607B68180004F09EFD8C
:109C60007B680021180004F0C1FDC046BD4602B06B
:109C700080BD80B582B000AF7860C046BD4602B0FE
:109C800080BD80B584B000AFF860B9607A607A6852
:109C9000B968FB68180004F0BBFD03001800BD465E
:109CA00004B080BD80B582B000AF786039603A689A
:109CB0007B681100180004F0B5FD03001800BD46D4
:109CC00002B080BD90B5C5B000AFF860B9607A60F1
:109CD0003B6014243B191800FFF7BAFF922149009A
:109CE00008200B18DB191B68002B10D0942252009F
:109CF0001318DB191B68002B09DD1318DB191A6810
:109D00000B18DB1919683B191800FFF7BAFF8721F8
:109D100049007B187A6812891A807B181B88842175
:109D200049007A1813607B68DB687A181268D318C8
:109D30007A1813607B181B687A1DFF3213607B68EA
:109D40005B891A007B181B689B180A0079180B6046
:109D50007B685B681900BB181A6814243B1918004B
:109D6000FFF78FFF90235B0008229B18DB191A680E
:109D70003B1911001800FFF795FF3B191800FFF77A
:109D800078FF00231800BD4645B090BDB0B5D4B0F3
:109D900000AF396011003E4BA82464001B19DB1989
:109DA000021C1A703B4B1B19DB190A1C1A8020235A
:109DB000FB6050257B191800FFF74AFF354B1B1934
:109DC000DB191A8839687B191800FFF75AFF30230E
:109DD000FA187B1911001800FFF764FF7B191800AF
:109DE000FFF747FF0C23FA181023F918284B1B190B
:109DF000DB191B781800FDF77FFF0300A422520037
:109E0000B9180B60BB181B68002B02D0BB181B686D
:109E10003AE0214B1B68A62464003A191360012321
:109E2000002B0AD0FA681023F9183023FB18180009
:109E300000F068FB03003A191360184B1B68A62258
:109E40005200BA181268A221490078180260A020B6
:109E500040003A1813607B181A683B181B68D31A25
:109E60005A425341DBB2002B0CD00D4B3A681A60BA
:109E7000084BA82252009B18DB191A88094B1A605C
:109E8000002301E001235B421800BD4654B0B0BD81
:109E9000B7FEFFFFB4FEFFFF5008063074290630FE
:109EA000000806306C29063080B590B002AFF8602B
:109EB000B9607A60FB68002B05D0BB68002B02D02C
:109EC0007B68002B01D1072342E0FB685B89002BF4
:109ED00001D103233CE0BA68F9681C23F818012378
:109EE00000935023FFF7E0FB03007B637B6B002BA9
:109EF00001D07B6B2CE01623FA181823F9181C23C9
:109F0000F8180023FFF758FC03007B637B6B002BE2
:109F100002D001235B421BE01623FB181B88042B95
:109F200001D0032314E0FB685A68BB69D3181900F9
:109F30001623FB181B881A007B68180008F072F8BB
:109F400000237B637B6B002B01D0012300E0002307
:109F50001800BD460EB080BDF0B5DA4CA54406AF82
:109F6000F860B9607A603B600023F1229200BA1871
:109F70001360D54B1B68F0229200BA1813600123BE
:109F80005B42EF229200BA1813600023EE25AD0069
:109F90007A191360CC4B1B68ED229200BA1813603B
:109FA000CA4BEB229200B9180B60BB181B68BB614F
:109FB00000237B61C44B1B68EC229200BA1813602B
:109FC0003C687A68B968FB689C46F9239B000826C0
:109FD0009B19DB191B680493F8239B0030009B1925
:109FE000DB191B6803931C26BB190293F7239B0004
:109FF0001B18DB191B680193F6239B001B18DB1948
:10A000001B68009323006046FFF75CFE03007A198B
:10A0100013607B191B68002B00D03AE2FA229200F1
:10A0200008201318DB191B68002B07D0B919131867
:10A03000DB191B682022180007F0F4FFA44C3A68D3
:10A040007968DE235B00F818002300932300FFF7F4
:10A050002BFB0300EE229200B9180B60BB181B68A3
:10A06000002B00D017E2DB24A4003B19994D7A198C
:10A07000DC2189007918DE2040003818FFF79CFBAE
:10A080000300EE229200B9180B60BB181B68002B6E
:10A0900000DA02E2BB181B68002B00DDA3E13B19CC
:10A0A0001B88102B52D17B191B88202B04D0012335
:10A0B0005B42BA18136003E27B685A68DC239B009A
:10A0C000FB181B68D31819003C243B1920221800E8
:10A0D00007F0A8FF0023EE229200B9180B60BB180E
:10A0E0001B68002B00D0DAE1774B1B68ED25AD0033
:10A0F0007A1913600123002B09D039191C23FB188E
:10A100002022180000F0FEF903007A191360724B48
:10A110001B68ED229200BA181268EA2189007818AB
:10A120000260E92080003A1813607B181A683B1817
:10A130001B68D31A5A1E9341DBB2002B00D0B0E14A
:10A140000123F1229200BA1813608CE7DB239B00F5
:10A15000FB181B88022B37D15E4BFB181A88CC23C7
:10A160005B009A4206D901235B42EE229200BA18A4
:10A170001360A5E17B685A68DC239B00FB181B6811
:10A18000D3181900534C3B191B881A00EA256D009F
:10A190007B19180007F046FF0023EE229200B91841
:10A1A0000B60BB181B68002B00D07CE1BB68D8B2E9
:10A1B0003B191A887B191900FFF7E8FD0300EF220D
:10A1C0009200BA1813604EE7DB239B00FB181B8834
:10A1D000232B64D1EF229200BB181B68002B05DBF8
:10A1E0003E4B1B68BA1812689A4206DB01235B4299
:10A1F000EF229200BA181360F4E036497B181A88EF
:10A20000C0235B009A4205D17B181A88C0235B00EB
:10A210009A4206D901235B42EE229200BA181360DB
:10A220004EE17B685A68DC239B00FB181B68D3183F
:10A230001900284C3B191B881A003C257B19180073
:10A2400007F0F0FE0023EE229200B9180B60BB1855
:10A250001B68002B00D028E11B4B1B68F026B600C2
:10A26000BA1913600123002B12D03B191B88190067
:10A27000EF239B00FB181B68DBB27A191C203818EF
:10A2800000930B00202100F093FB0300BA19136028
:10A2900001235B42EF229200BA181360E3E6DB234E
:10A2A0009B00FB181B88502B00D0DCE6094BFB18E9
:10A2B0001B88042B14D001235B42EE229200BA18B3
:10A2C0001360FDE01CFCFFFF50080630FFFFFF7F1E
:10A2D000FFFF00006E03000074290630A034073031
:10A2E0007B685A68DC239B00FB181B68D318190095
:10A2F000814BFB181B881A001423FB18180007F069
:10A3000091FE0023EE229200B9180B60BB181B6867
:10A31000002B00D0CBE0794B1B68ED24A4003A1948
:10A3200013600123002B09D0BB681822BA18110052
:10A33000180001F005FA03003A191360704B1B680E
:10A34000ED229200BA181268E8218900781802609C
:10A35000E72080003A1813607B181A683B181B68C6
:10A36000D31A5A1E9341DBB2002B00D0A1E0BB6987
:10A37000E3229200B9180B60BB181B681A007B69B6
:10A3800093429B415B42DBB2E4229200B9180B601E
:10A39000BB181B68002B02D0584B1B6801E0584BC0
:10A3A0001B68ED2189007A181360554B1B687A18D9
:10A3B0001268E62080003C182260E524A4003A19C7
:10A3C00013603B181A683B191B68D31A5A1E934135
:10A3D000DBB2002B00D06EE07B181B68EC229200F1
:10A3E000BA1813603FE6C046F1239B00FB181B68B8
:10A3F0005A425341DBB2EE229200B9180B60BB18EF
:10A400001B68002B59D13E4B1B68F0229200BA18F2
:10A410001268DF21890078180260DE2080003A1877
:10A4200013607B181A683B181B68D31A5A1E934195
:10A43000DBB2E0229200B9180B60BB181B68002B3E
:10A4400002D02E4B1B6801E02D4B1B68ED229200C1
:10A45000BA1813602A4B1B68EC229200BA181268D3
:10A46000E221890078180260E12080003A18136028
:10A470007B181A683B181B68D31A5A1E9341DBB22B
:10A48000002B1CD001235B42EE229200BA1813600D
:10A4900016E0C04614E0C04612E0C04610E0C046D8
:10A4A0000EE0C0460CE0C0460AE0C04608E0C046E8
:10A4B00006E0C04604E0C04602E0C04600E0C046F8
:10A4C000EE229200BB181B68002B0BD0BB181B6838
:10A4D000DD229200B9180B60BB181B68ED229200B8
:10A4E000BA181360ED239B00FB181B681800BD46CB
:10A4F000F3239B009D44F0BD6E030000500806301E
:10A500007429063080B584B000AFF860B9607A6015
:10A510007A68B968FB68180007F076FD0300180038
:10A52000BD4604B080BD80B582B000AF78607B6866
:10A53000180004F033F97B680021180004F056F984
:10A54000C046BD4602B080BD80B582B000AF786025
:10A55000C046BD4602B080BD80B584B000AFF86093
:10A56000B9607A607A68B968FB68180004F050F93D
:10A5700003001800BD4604B080BD80B582B000AFB6
:10A58000786039603A687B681100180004F04AF975
:10A5900003001800BD4602B080BD80B588B002AF90
:10A5A000F860B9607A601023FA187968B8683023C7
:10A5B00003F012FA03007B617B69002B02D00123B8
:10A5C0005B4260E0BB681A683B69D3187A689A42BC
:10A5D00002D002235B4256E0FB6808331A00796818
:10A5E000BB68180003F00CFA03007B617B69002B49
:10A5F0000CD1FB6814331A007968BB68180003F0AB
:10A60000FFF903007B617B69002B02D003235B42CF
:10A6100039E0FB680833180003F002FB0200FB6816
:10A620005A60BB681B687A689A4202D004235B4276
:10A6300029E0FB6808331900FB681433F8680193BC
:10A64000002300930023002204F062F803007B61E2
:10A650007B69002B02D005235B4214E0FB681800E5
:10A6600003F0BCFF03007B617B69002B02D0062353
:10A670005B4208E0FB680833180003F0D1FA0200DF
:10A68000FB685A6000231800BD4606B080BDB0B517
:10A69000CAB000AF786039602C23FB1800221A6022
:10A6A0006023FF3392225200BA18136048E030242E
:10A6B0003B191800FFF737FF39683B1920221800B3
:10A6C000FFF74AFF2C2579193B1904221800FFF7E0
:10A6D00043FF0C23FA183B1911001800FFF74DFF38
:10A6E0007B19DB780133DAB27B19DA7020239021F1
:10A6F00049007A1813607B181A68922040003B18B2
:10A700001B689A4203DD3B181B687A18136090247B
:10A7100064003B191A680C23F9187B68180007F0CD
:10A7200081FC21007B181B687A68D3187B6092201B
:10A7300040003B181A687B181B68D31A3A1813603C
:10A7400092235B00FB181B68002BB0DC3023FB1846
:10A750001800FFF7F9FEC046BD464AB0B0BD000084
:10A76000B0B58C4CA54400AFF860B9607A603B602E
:10A7700000238121C9007A181360874B1B68874A20
:10A78000BA181360FB685A68C0235B009A4204D071
:10A7900001235B427A181360E2E07B68202B06D02D
:10A7A00001235B428122D200BA181360D8E0C8238B
:10A7B0005B00FA183968FB68180003F047FF031EB6
:10A7C00006D001235B428122D200BA181360C7E091
:10A7D000734B8222D2009B18DA198023FF33D35C9B
:10A7E000BC2B06D001235B428122D200BA18136031
:10A7F000B6E0C8235B00FB186033FF331A00302338
:10A80000FB1811001800FFF742FF0023654ABA1831
:10A8100013601FE0644B8224E4001B19DA196148BD
:10A820003B181B68D3181A785D4B1B19D9193B18B4
:10A830001B68CB181B785340D9B25B4B1B19DA1934
:10A840003B181B68D3180A1C1A703B181B6801338D
:10A850003A18136053497B181A68AF235B009A4279
:10A86000D8DD514B8220C0001B18DB191B787F22DA
:10A870001340DAB24C4B1B18DB191A7000237A18FC
:10A88000136018E0484B8222D2009B18DA19454B1E
:10A89000FB181B68D3181B78002B06D001235B42E2
:10A8A0008122D200BA1813605AE03E4ABB181B68D6
:10A8B0000133BA1813603B4BFB181A689F235B00E7
:10A8C0009A42DFDB384B8222D2009B18DA199F2391
:10A8D0005B00D35C012B06D001235B428122D200B6
:10A8E000BA1813603CE0C424A4003B191800FFF719
:10A8F0001AFE2E493B1908221800FFF72DFEB968F1
:10A900003B1920221800FFF727FE3023FB184033A5
:10A91000FF3319003B1920221800FFF71DFE1025F8
:10A920007A193B1911001800FFF727FE3B19180090
:10A93000FFF70AFE184B1B68184C3A1913600123E5
:10A94000002B0DD0C8235B00FB186033FF331900C8
:10A950007B1920221800FFF7D5FD03003A19136078
:10A960008122D200BB181B68002B0AD0BB181B68C1
:10A970008022D200B9180B60BB181B68074ABA18AE
:10A980001360064BFB181B681800BD468223DB00D2
:10A990009D44B0BDF0FBFFFF5008063004040000EA
:10A9A00080FDFFFF0C04000020FCFFFF243907306E
:10A9B00090B5BDB000AFF860B9607A603B602D4BD8
:10A9C0001B68EC22BA18136014243B19180003F01A
:10A9D000F7FDF82108200B18DB191A78264BD20056
:10A9E000D3583B613A690B18DB191B782249DB000D
:10A9F000CB1804331B681B68D318E822B9180B6006
:10AA0000BB181A681023F9183B191800FFF7C5FD89
:10AA10000300E422B9180B60BB181B68002B04D19B
:10AA20003B195B683A689A4205D01423FB1818005A
:10AA300003F068FE11E00F4B1B68EC243A19136019
:10AA40000123002B09D07B68BA68F96814203818F4
:10AA5000FFF786FE03003A1913601423FB18180051
:10AA600003F050FEEC23FB181B681800BD463DB0F8
:10AA700090BDC046500806300008063080B582B050
:10AA800000AF3B1D094A12681A603A1D0023118865
:10AA90000904090C1B0C1B040B43528812041B04F1
:10AAA0001B0C13431800BD4602B080BD3839073077
:10AAB00080B500AF024B1B681800BD4680BDC04684
:10AAC000582B063080B582B000AF0200FB1D1A7013
:10AAD000FB1D1B78022B01D1002301E004235B4204
:10AAE0001800BD4602B080BD80B500AF002318003D
:10AAF000BD4680BDB0B586B000AF7860154B1B6811
:10AB00007B61144B5B683B613B695A687B695A60A7
:10AB10003B69DA687B699A603B699A687B69DA60AD
:10AB20003B691A697B691A610A4B1B680F257C19FE
:10AB3000180001F031F8030023707B191B78002BFB
:10AB400002D001235B4200E000231800BD4606B09E
:10AB5000B0BDC0465408063080B500AF00230822BF
:10AB600013431800BD4680BDB0B586B000AFF86095
:10AB7000B9607A60082206231340DBB2062B02D1AB
:10AB800001235B4225E000231A00144B9200D258A7
:10AB90007B6853437B60124B186817257C197B68D0
:10ABA000BA68F96800F09AFF030023707B191B78DC
:10ABB000002B02D001235B420BE000231A00074B5D
:10ABC0009200D3581900786806F00EFF03007B60EE
:10ABD0007B681800BD4606B0B0BDC0462C390730B2
:10ABE00054080630B0B586B000AFF860B9607A603E
:10ABF000082206231340DBB2062B02D101235B425D
:10AC000025E000231A00144B9200D2587B6853436E
:10AC10007B60124B186817257C197B68BA68F96845
:10AC200000F0F4FE030023707B191B78002B02D088
:10AC300001235B420BE000231A00074B9200D3581C
:10AC40001900786806F0D0FE03007B607B6818006E
:10AC5000BD4606B0B0BDC0462C390730540806309A
:10AC6000B0B584B000AF78600B4B1B680F257C1922
:10AC70007A681100180000F04DFE030023707B1964
:10AC80001B78002B02D001235B4200E00023180058
:10AC9000BD4604B0B0BDC0465408063090B583B080
:10ACA00000AF0A4B1B68FC1D180000F0D1FD03002B
:10ACB0002370FB1D1B78002B02D001235B4200E0B8
:10ACC00000231800BD4603B090BDC04654080630AE
:10ACD00080B500AF014B1800BD4680BD3C39073040
:10ACE000B0B586B000AF7860154B1B687B61144B24
:10ACF0005B683B613B695A687B695A603B69DA680B
:10AD00007B699A603B699A687B69DA603B691A697A
:10AD10007B691A610A4B1B680F257C19180000F02B
:10AD20003BFF030023707B191B78002B02D001230B
:10AD30005B4200E000231800BD4606B0B0BDC0462F
:10AD40005C08063080B500AF0023082213431800CA
:10AD5000BD4680BDB0B586B000AFF860B9607A601E
:10AD6000082206231340DBB2062B02D101235B42EB
:10AD700025E000231A00144B9200D2587B685343FD
:10AD80007B60124B186817257C197B68BA68F968D4
:10AD900000F0A4FE030023707B191B78002B02D067
:10ADA00001235B420BE000231A00074B9200D358AB
:10ADB0001900786806F018FE03007B607B681800B5
:10ADC000BD4606B0B0BDC0462C3907305C08063021
:10ADD000B0B586B000AFF860B9607A60082206238B
:10ADE0001340DBB2062B02D101235B4225E0002396
:10ADF0001A00144B9200D2587B6853437B60124B6D
:10AE0000186817257C197B68BA68F96800F0FEFDA0
:10AE1000030023707B191B78002B02D001235B42B7
:10AE20000BE000231A00074B9200D35819007868F2
:10AE300006F0DAFD03007B607B681800BD4606B0B3
:10AE4000B0BDC0462C3907305C080630B0B584B0C0
:10AE500000AF78600B4B1B680F257C197A681100D6
:10AE6000180000F057FD030023707B191B78002B9E
:10AE700002D001235B4200E000231800BD4604B06D
:10AE8000B0BDC0465C08063090B583B000AF0A4B39
:10AE90001B68FC1D180000F0DBFC03002370FB1D89
:10AEA0001B78002B02D001235B4200E00023180036
:10AEB000BD4603B090BDC0465C08063080B500AF0B
:10AEC000014B1800BD4680BD5439073080B500AF36
:10AED000044B054A1A60054B034A1A60C046BD463A
:10AEE00080BDC046A408063080F0FA02A8080630EB
:10AEF00080B500AF034B044A9A60FFF7E7FFC046F6
:10AF0000BD4680BD00ED00E00074063080B582B023
:10AF100000AF0200FB1D1A70FB1D1B787F2B09D8A8
:10AF2000FB1D1B781A001F231A40044B012191407E
:10AF30000A001A60C046BD4602B080BD00E100E0D4
:10AF400080B500AFBFF34F8FC046044B044ADA60B0
:10AF5000BFF34F8FC046C046FDE7C04600ED00E09E
:10AF60000400FA0580B500AF074B180000F056F951
:10AF7000054B180000F0AAF8034B180000F02CF95C
:10AF8000C046BD4680BDC046B008063080B500AFA3
:10AF9000074B180000F042F9054B180000F096F836
:10AFA000034B180000F018F9C046BD4680BDC046EE
:10AFB000BC08063080B500AF72B6C046C0239A0206
:10AFC000274B1100180000F055F8254B180000F031
:10AFD00025F9234B180000F099F8214B180000F0D8
:10AFE000FBF81F4B180000F02DF9031E02D10423BB
:10AFF0005B4232E01A4B180000F0B5F8031E02D194
:10B0000004235B4229E0174A174B1100180000F097
:10B0100031F8154B180000F001F9134B180000F03F
:10B0200075F8114B180000F0D7F80320FFF76EFFFA
:10B030000D4B180000F006F9031E02D104235B42F9
:10B040000BE0094B180000F08EF8031E02D1042318
:10B050005B4202E062B6C04600231800BD4680BDD8
:10B06000B0080630FFFFFF0FBC08063080B500AF08
:10B07000FFF766FF80B582B000AF786039607B680B
:10B08000180000F070F8031E07D07B68180000F06D
:10B09000C5F87B68180000F073F87B68180000F0B2
:10B0A0009BF83B68002B05D17B685B68012252420C
:10B0B0005A6003E07B685B683A685A607B685B684B
:10B0C00001221A60C046BD4602B080BD80B584B082
:10B0D00000AF78607B681B681B68FB607B681800AA
:10B0E00000F041F8031E01D102230BE07B68180039
:10B0F00000F083F8031E01D0032303E0FB68012264
:10B10000DA6000231800BD4604B080BD80B584B06D
:10B1100000AF78607B681B681B68FB607B68180069
:10B1200000F090F8031E01D1012318E07B6818009D
:10B1300000F063F8031E01D0032310E07B685B6816
:10B140005A68FB681A60FB6803229A607B685B6838
:10B150001A687B685B6802210A431A6000231800A2
:10B16000BD4604B080BD80B582B000AF78607B681A
:10B170005B681B68022213401800BD4602B080BD08
:10B1800080B584B000AF78607B681B681B68FB608B
:10B190007B681800FFF7E7FF031E01D1022317E0C9
:10B1A0007B68180000F029F8031E01D003230FE08C
:10B1B000FB689B68032293431A00FB689A607B68D4
:10B1C0005B681A687B685B6802218A431A60002307
:10B1D0001800BD4604B080BD80B584B000AF786073
:10B1E0007B681B681B68FB60FA68C0231B01012198
:10B1F000D150C046BD4604B080BD80B584B000AF1C
:10B2000078607B681B681B68FB60FA68C0231B01C1
:10B21000D3581800BD4604B080BD000080B584B08E
:10B2200000AF78607B681B681B68FB60FA68C0230E
:10B230001B010349D150C046BD4604B080BDC04685
:10B2400051E5CC1A80B582B000AF78607B685B684E
:10B250001B68012213401800BD4602B080BD0000EB
:10B2600090B591B000AFF860B9607A603B600023A0
:10B270007B630023FB632423FB18180010231A00B0
:10B28000002106F0EBFE1423FB18254A13CA13C352
:10B2900012681A60FB687B637B6B1B68214A9342D0
:10B2A00001D0214B38E07B6B1033FB63FB6BBB633E
:10B2B0002BE02423F918BB6B1022180006F0A4FE23
:10B2C000031E01D1184B27E01423F918BB6B102281
:10B2D000180006F099FE031E11D1FB6B1969FB6B78
:10B2E0009A69124B180007F017F9FB6B1A697B6813
:10B2F0001A60FB6B9A693B681A6000230CE0BB6B19
:10B300002833BB63FB6B2833FB637A6BBB68D318B2
:10B31000BA6B9A42CDD9044B1800BD4611B090BD0E
:10B32000103A0730010064AA01000080D8390730C4
:10B3300080B500AFBFF34F8FC046044B044ADA60BC
:10B34000BFF34F8FC046C046FDE7C04600ED00E0AA
:10B350000400FA0580B584B000AF7860194A1A4B32
:10B360001100180007F0D8F87B68002B02D10123E8
:10B370005B4223E0154B5B697968802290012422AF
:10B3800098470300FB60FB68002B02DBFB68242B63
:10B3900002D001235B4211E07B681A7859780902D8
:10B3A0000A43997809040A43DB781B0613431A0001
:10B3B0000449074B180007F0AFF800231800BD46FA
:10B3C00004B080BDEC3F0730203A07306C390730BD
:10B3D0002C3A073080B584B000AF78607B681A786B
:10B3E000597809020A43997809040A43DB781B0655
:10B3F00013431A001A491B4B180007F08DF87B689D
:10B40000002B02D101235B4226E0174BDB6980222F
:10B410009201100098470300FB60FB68002B02D0EC
:10B4200001235B4218E0104B9B69796880229001F0
:10B43000242298470300FB60FB68002B02DBFB68BB
:10B44000242B02D001235B4206E0054A074B110082
:10B45000180007F061F800231800BD4604B080BD55
:10B46000044007304C3A07306C3907306C3A0730EB
:10B4700080B582B000AF1C4A1C4B1100180007F0C9
:10B480004BF81B4B1B68002B01D0002328E0194B05
:10B490009B68002098470200FB1D1A70FB1D1B785B
:10B4A0005BB2002B02D001235B4219E0114B9B6A77
:10B4B000984703003B603B681B69012B05D00D4B8F
:10B4C000DB68984701235B420AE0094B01221A60BE
:10B4D000074B1A680449084B180007F01DF80023B1
:10B4E0001800BD4602B080BD1C400730203A07302E
:10B4F000782B06306C390730D03A073080B58CB0E5
:10B5000000AF7860224A234B1100180007F004F8BE
:10B51000FFF7AEFF031E06D01F4A1D491F4B180040
:10B5200006F0FAFFFEE70823FB181800FFF712FFEA
:10B53000031E06D01A4A1649184B180006F0ECFFF5
:10B54000FEE70823FB181B68FB62FB6A002B04D193
:10B550007B68802252031A600EE0FB6A012B04D143
:10B560007B68842252041A6006E00E4A08490B4B9D
:10B57000180006F0D1FFFEE77B681B68FA6A0449F1
:10B58000094806F0C9FFC046BD460CB080BDC046A4
:10B5900030400730203A073015030000603D073087
:10B5A00019030000230300007C3E073080B500AF84
:10B5B000124B1B685A1C114B1A60104B1B680A2156
:10B5C000180006F081FB0B1E07D10C4B1A68B42340
:10B5D0005B000B490B4806F09FFF084B1A68B42329
:10B5E0005B009A4207D1064A074B1100180006F08B
:10B5F00093FFFFF79DFEC046BD4680BD7C2B063005
:10B6000044400730003F0730283F073080B58CB0FA
:10B6100000AF02003960FB1D1A70FB1D1A783B68F1
:10B620002649274806F078FF264B1B68002B06D1D9
:10B63000254A2249254B180006F06EFFFEE7FB1D48
:10B640001B78022B02D901235B4233E00C23FB1849
:10B650001800FFF77FFE031E06D01D4A17491B4B3B
:10B66000180006F059FFFEE7FB1D1A780C217B1825
:10B6700002329200D3583A689A4214D0FB1D1A78CD
:10B6800008007B18023292003968D1503B1818002C
:10B69000FFF7A0FE031E06D00E4A08490B4B180008
:10B6A00006F03AFFFEE7054A0B4B1100180006F0C2
:10B6B00033FF00231800BD460CB080BD5440073056
:10B6C000C83F0730782B063006040000603D073085
:10B6D0000E04000014040000C43B073080B584B0A1
:10B6E00000AF78607B68043301D9062308E07B68EB
:10B6F0000333FB60FB68052B01D9062300E0FB68E0
:10B700001800BD4604B080BD80B582B000AF0A4BC2
:10B710001B687B6000F05AFC03003B603B68002B19
:10B7200002D0054B1B6801E0044B1B687B607B6803
:10B730001800BD4602B080BD50080630742906309E
:10B7400080B588B000AF78603960184B1B68FB612A
:10B750003B68002B02D1154B1B6823E07B68180067
:10B76000FFF7BCFF0300BB61BB69052B02D90F4B80
:10B770001B6817E00C23FA18BB690421180000F0BD
:10B78000A5FC03003B613B69002B02D0074B1B6803
:10B7900001E0074B1B68FB61FB687B617A693B68D2
:10B7A0001A60FB691800BD4608B080BD500806301D
:10B7B0007429063090B587B000AF786039607B6837
:10B7C0001800FFF78BFF03003B613B69052B02D993
:10B7D00001235B4238E0FCF7FBF8031E0DD03A680A
:10B7E0003B691100180000F02BFD0300FB60FB68B3
:10B7F000002B28D001235B4226E03B69032B09D1B3
:10B800001723FC183B6819000120FFF7FFFE030017
:10B8100023700FE03B69042B09D11723FC183B6808
:10B8200019000220FFF7F2FE0300237002E001235B
:10B830005B4209E01723FB181B785BB2002B02D098
:10B8400001235B4200E000231800BD4607B090BD15
:10B85000B0B586B000AF78607B681B681B681B685A
:10B860003B617B681B7D01225340DBB2002B01D082
:10B8700002231FE000237B6116E03A697B69D3183D
:10B880000F257C19180000F0AFFA030023707B1914
:10B890001B78002B02D07B191B780BE07B69802280
:10B8A000D201944663447B617A6980231B049A42E7
:10B8B000E3D300231800BD4606B0B0BDB0B586B0D6
:10B8C00000AF786039607B681B681B681B683B6150
:10B8D00000237B6116E03A693B68D2187B69D31874
:10B8E0000F257C19FF21180000F037FA03002370A0
:10B8F0007B191B78002B02D07B191B7806E07B6933
:10B9000001337B617B69FF2BE5DD00231800BD4619
:10B9100006B0B0BDB0B584B000AF786039607B6868
:10B920001B7D01225340DBB2002B01D0022311E02A
:10B930000F257C193A687B6811001800FFF7BEFFDD
:10B94000030023707B191B78002B02D07B191B7816
:10B9500000E000231800BD4604B0B0BD80B58CB037
:10B9600000AFF860B9607A603B603B68FB6200231F
:10B97000BB62BB687B62FB681B681B681B687B61E2
:10B980003AE0FB6A7F2B02D8FB6A3B6201E080232E
:10B990003B620023FB610DE0BB6A5A1CBA627A6805
:10B9A000D3181978184AFB69D3180A1C1A70FB6956
:10B9B0000133FB61FB693A6A9A42EDD80023BB610F
:10B9C0000EE07A697B6AD218BB69D0180E4ABB694F
:10B9D000D3181B78190000F0C0F9BB690133BB61B3
:10B9E000BB693A6A9A42ECD8FA6A3B6AD31AFB629C
:10B9F0007A6A3B6AD3187B62FB6A002BC1D10023B1
:10BA00001800BD460CB080BD802B0630B0B58AB0A2
:10BA100000AFF860B9607A603B60BB687B627B68AE
:10BA20003B623B68FB61FB681B7D01225340DBB23C
:10BA3000002B01D002234DE0FB681A69BB6811009E
:10BA4000180006F057F80B1E01D0012342E0BA6837
:10BA50003B68D218FB685968FB68DB684B439A4225
:10BA600001D9012336E0BB687F22134026D0BB6892
:10BA70007F2213408022D31ABB613A68BB699A4285
:10BA80001CD917257C19BB693A6A796AF868FFF7EF
:10BA900065FF030023707B191B78002B02D07B19F4
:10BAA0001B7817E07A6ABB69D3187B623A6ABB6974
:10BAB000D3183B62FA69BB69D31AFB6117257C195D
:10BAC000FB693A6A796AF868FFF748FF0300237058
:10BAD0007B191B781800BD460AB0B0BD90B58BB07D
:10BAE00000AFF860B9607A603B603B687B6200231E
:10BAF0003B62BB68FB61FB681B681B681B683B61A2
:10BB0000FB681B7D01225340DBB2002B01D00223D6
:10BB10003EE0BB68013301D1012339E0BA683B68DC
:10BB2000D218FB685968FB68DB684B439A422BD9F3
:10BB300001232DE07B6A7F2B02D87B6ABB6101E089
:10BB40008023BB6100237B6112E03A69FB69D21854
:10BB50007B69D1187A683B6AD418080000F053F862
:10BB6000030023703B6A01333B627B6901337B61D5
:10BB70007B69BA699A42E8D87A6ABB69D31A7B6250
:10BB8000FA69BB69D318FB617B6A002BD2D1002311
:10BB90001800BD460BB090BD80B582B000AF786094
:10BBA0007B681B7D002B01D0002303E07B68012212
:10BBB0001A7500231800BD4602B080BD80B582B062
:10BBC00000AF786039607B683A681A60C046BD464D
:10BBD00002B080BD80B582B000AF78600A00FB1C67
:10BBE0001A707B68FA1C12781A70C046BD4602B003
:10BBF00080BD80B582B000AF78607B681B6818009C
:10BC0000BD4602B080BD80B582B000AF78607B6871
:10BC10001B78DBB21800BD4602B080BD80B584B091
:10BC200000AF78607B687021180000F012F87B6824
:10BC30001800FFF7DEFF0300FB60FB681B0CFA68CF
:10BC40001343FB60FB681B041B0C1800BD4604B0CB
:10BC500080BD80B582B000AF786039603B681A045F
:10BC60003B681B041B0C1A437B6811001800FFF78C
:10BC7000A5FFC046BD4602B080BD80B582B000AF12
:10BC8000786039603B68DAB27B6811001800FFF712
:10BC9000A1FFC046BD4602B080BD000080B584B0A3
:10BCA00000AF786039607B6870211800FFF7D1FF22
:10BCB0007B681800FFF79DFF0300FB60FB68084AE4
:10BCC0001340074A934201D1002305E03B685A1E06
:10BCD0003A60002BE7D1FD231800BD4604B080BDBB
:10BCE0008000800080B584B000AF786039607B68E8
:10BCF00070211800FFF7C1FF7B681800FFF783FF72
:10BD00000300FB60FB688022134001D0002305E0A4
:10BD10003B685A1E3A60002BE9D1FD231800BD464E
:10BD200004B080BD80B584B000AF78607B68180037
:10BD3000FFF774FF0300FB60FB685622134001D03D
:10BD4000FB2306E0FB682822134001D0FC2300E01F
:10BD500000231800BD4604B080BD80B584B000AF9C
:10BD600078600A00FB1C1A707B6850211800FFF7EE
:10BD700084FF7B6840211800FFF77FFFFB1C1A78C7
:10BD80007B6811001800FFF725FFFA239A007B68F3
:10BD900011001800FFF7A6FF0300FB60FB68002BF3
:10BDA00016D17B6870211800FFF767FF7B681800C9
:10BDB000FFF729FF0300BB60BB681222134007D0C6
:10BDC0007B6850211800FFF758FF05235B42FB609A
:10BDD0007B68FF211800FFF750FFFB68DBB21800FB
:10BDE000BD4604B080BD000080B584B000AF78606F
:10BDF0007B6850211800FFF72CFF7B68202118007A
:10BE0000FFF727FF7B68D0211800FFF722FF0E4ABB
:10BE10007B6811001800FFF741FF0300FB60FB681F
:10BE2000002B05D17B681800FFF77CFF0300FB6047
:10BE30007B68FF211800FFF70CFFFB68DBB21800DE
:10BE4000BD4604B080BDC046C0C62D0000200449D8
:10BE5000044A521A043A01DB8850FBE77047C04697
:10BE600000080630605B06300746FFF7EFFF002052
:10BE7000014602460346044605460646804681467C
:10BE800082468346844686463847C04680B584B09D
:10BE900000AF78603960104B5B6939687A681000D0
:10BEA00098470300FB60FB68002B01D000230EE0E5
:10BEB000C046094BDB6A98470300DBB201221340FE
:10BEC000DBB2002BF5D1044B1B6A98470300180026
:10BED000BD4604B080BDC0465442073080B584B032
:10BEE00000AFF860B9607A607A68BB68110018002A
:10BEF000FFF7CCFF03001800BD4604B080BD000072
:10BF000080B582B000AF1C4B9B68002098470300AF
:10BF10007B607B68002B05D0184B194A19485B21C0
:10BF200005F0F6FF144B1B690220984703007B6065
:10BF30007B68002B05D0114B114A12485E2105F099
:10BF4000E7FF0D4B9B6AE122520211000120984746
:10BF500003007B607B68002B05D0084B084A09482A
:10BF6000622105F0D5FF044B9B6A012115209847FB
:10BF7000C046BD4602B080BD544207306C40073019
:10BF8000FC4007308440073080B582B000AF0B4BD7
:10BF90001B6900209847094BDB68984703007B60CA
:10BFA0007B68002B05D0064B064A07486F2105F039
:10BFB000AFFFC046BD4602B080BDC0465442073008
:10BFC0006C400730084107308440073080B500AF2F
:10BFD00000F046FA03001800BD4680BD80B5AAB047
:10BFE00000AFF860B9607A609823FA18FB68110016
:10BFF000180000F0FBFF03009C22B9180B60BB186F
:10C000001B68002B02D0BB181B685AE09823FB1852
:10C010001B68802B00D980239822B9180B60BB18AD
:10C0200019681823FA18FB68180000F0ABFD03002C
:10C030009C22B9180B60BB181B68002B02D0BB18E0
:10C040001B683EE000237B610023A422BA18136022
:10C0500027E0A323FB1800221A7017E01823FA1810
:10C06000A423FB181B68D3181B781A00A3217B1884
:10C070001B781A4113001A0001231A407B69D31858
:10C080007B617B181A787B1801321A70A323FB1886
:10C090001B78072BE2D9A422BB181B680133BA18FE
:10C0A00013609823FB181B68A422BA1812689A42DE
:10C0B000CFD31423F9187B680422180005F0B2FFCF
:10C0C00000231800BD462AB080BD000080B584B0B2
:10C0D00000AFF860B9607A60BB68042B01D01D4BDB
:10C0E00033E0FB68062B27D0FB68062B2CD8FB68B7
:10C0F000052B19D0FB68052B26D8FB68032B03D032
:10C10000FB68042B08D01FE07A68BB6819000E207A
:10C11000FFF764FF030018E07A68BB6819000F207E
:10C12000FFF75CFF030010E07A68BB68190010207D
:10C13000FFF754FF030008E07A68BB681900162077
:10C14000FFF74CFF030000E0034B1800BD4604B0AE
:10C1500080BDC0465C3A00005AC3000090B5A7B04D
:10C1600000AF786039608C23FA187B6811001800E2
:10C1700000F03CFF03009022B9180B60BB181B684D
:10C18000002B02D0BB181B6854E08C23FB181B68E3
:10C19000802B00D980238C22B9180B60BB181B6838
:10C1A000DB003A689A4201D9244B43E00C23FB1888
:10C1B00080220021180005F051FF00239422BA18B4
:10C1C00013600CE00C23FA1894217B181B68D31819
:10C1D000FF221A707B181B6801337A1813603B68C2
:10C1E000DB0894203A1812689A42EBD33B68072286
:10C1F000134001229A401300DBB2013BD9B20C2458
:10C200003A193B181B68D3180A1C1A708C23FB18A8
:10C2100019683A197B68180000F01CFE0300902290
:10C22000B9180B60BB181B68002B02D0BB181B6829
:10C2300000E000231800BD4627B090BDA3550000C4
:10C2400080B582B000AF786039607B68062B24D05F
:10C250007B68062B28D87B68052B17D07B68052BBD
:10C2600022D87B68032B03D07B68042B07D01BE00C
:10C270003B6819000E20FFF771FF030015E03B68D3
:10C2800019000F20FFF76AFF03000EE03B6819005A
:10C290001020FFF763FF030007E03B68190016203A
:10C2A000FFF75CFF030000E0024B1800BD4602B040
:10C2B00080BDC0465AC3000080B586B000AFF860AC
:10C2C000B9607A607B681968BA68FB68180000F08A
:10C2D00059FC03007B617B69002B01D07B6911E075
:10C2E0001023FA18FB681100180000F07FFE03000D
:10C2F0007B617B69002B01D07B6903E03A697B6835
:10C300001A6000231800BD4606B080BD80B584B019
:10C3100000AFB9607A600F217B18021C1A707B187D
:10C320001B78022B15D01CDC002B02D0012B08D06F
:10C3300017E07A68BB6819000B20FFF7BDFF030008
:10C3400010E07A68BB6819000C20FFF7B5FF030006
:10C3500008E07A68BB6819000D20FFF7ADFF030005
:10C3600000E0024B1800BD4604B080BDC5A300002C
:10C37000B0B58AB000AFF860B9607A6000237B6224
:10C38000344B5B68984703007B611423FB181B78D0
:10C390005B079B0FDBB21A002F4B9200D258232170
:10C3A0007B181A707B181A78FB681100180005F0CA
:10C3B000A1FB0B1E01D0294B48E07B68FB610023E9
:10C3C000BB61FB69002B14D0224B5C69FB68902297
:10C3D00092029D182323FB181B781900786805F03A
:10C3E00003FB03001A00BB6819002800A0470300E4
:10C3F0007B6223243B191B781900786805F0F4FA56
:10C4000003001A003B191B785343BA69D318BB6168
:10C41000FA69BB69D31AFB61FB69002B15D00D4B80
:10C420005B69F968BA698A1890218902501810244A
:10C4300039190122984703007B62BA68BB69D31897
:10C44000FA693919180005F0EDFD00231800BD4602
:10C450000AB0B0BD9839073018410730C5A30000B5
:10C4600080B584B000AF0023FB60294B9B6800209F
:10C4700098470300FB60FB68002B01D0254B43E08D
:10C480000823FB18042219000020FFF771FF0300A6
:10C49000FB60FB68002B01D0FB6835E0391DB3233E
:10C4A0009B0004221800FFF763FF0300FB60FB689A
:10C4B000002B01D0FB6827E0BB68174A934203D1E9
:10C4C0007B68164A934204D000F060FA0300FB60D8
:10C4D00019E03B1D124804221900FFF749FF030031
:10C4E000FB60FB68002B01D0FB680DE07B680B4A0A
:10C4F000934208D000F0DEF80300FB60FB68002BDD
:10C5000001D0FB6800E0FB681800BD4604B080BDA8
:10C51000983907305C3A00001281DEC0DEC072300C
:10C52000CC12000080B582B000AF786039607B68C3
:10C530003968180005F0DEFA0B001A007B689B1AB8
:10C540001800BD4602B080BD90B583B000AF7860E2
:10C5500039607A683B68D4187A683B68D318013B25
:10C560003968180005F0C6FA0B00E31A013B180001
:10C57000BD4603B090BD000080B584B000AF7860C8
:10C5800039600023FB607B681B051B0D01D0144B39
:10C5900022E080235A017B6811001800FFF7C2FFD8
:10C5A0000300BB6011E00F4BDB69BA6810009847CD
:10C5B0000300FB60FB68002B01D00B4B0CE0BB6859
:10C5C0008022520194466344BB607A683B68D3186A
:10C5D000BA689A42E7D3FB681800BD4604B080BD34
:10C5E000C5A30000983907305C3A0000F0B58BB065
:10C5F00000AFF860B9607A6000233B627B68FB6142
:10C60000294B5B68984703003B611023FB181B789C
:10C610005B079B0FDBB21A00244B9200D2581B23FE
:10C62000FB181A7000237B6235E07B6A8033FA695D
:10C630009A4203D2FA697B6AD31A00E080237B61B5
:10C64000194B5C69FA687B6AD5181B26BB191B78E5
:10C650001900786905F0C8F903001A00144B190095
:10C660002800A04703003B620F4B9C69BA687B6AB5
:10C67000D518BB191B781900786905F0B5F90300C6
:10C680001A000B4B19002800A04703003B627A6A8E
:10C690007B69D3187B627A6AFB699A42C5D300230F
:10C6A0001800BD460BB0F0BD98390730184107306F
:10C6B000802C063080B582B000AF00237B608023E1
:10C6C0005A0194239B0211001800FFF755FF030045
:10C6D0007B607B68002B01D07B680BE080235A01D4
:10C6E0009423990290239B021800FFF77FFF030019
:10C6F0007B607B681800BD4602B080BDB0B58EB0CF
:10C7000000AFF860B9607A600023BB6200233B632E
:10C7100080235A01FB6811001800FFF703FF030094
:10C720007B62FA687B68D3188022520111001800DE
:10C73000FFF70AFF03003B627D4B5B6898470300ED
:10C740007B611423FB181B785B079B0FDBB21A007D
:10C75000784B9200D2581F23FB181A703A6AB32301
:10C760009B009A4214D280235B01734A1900100087
:10C77000FFF7D8FE020080235B0119001000FFF7CD
:10C78000FBFE0300BB62BB6A002B01D0BB6ACAE0A0
:10C79000FB68902292029446634480225201110069
:10C7A0001800FFF7BFFE040080235A017B681100C8
:10C7B0001800FFF7C9FE030019002000FFF7DCFE98
:10C7C0000300BB62BB6A002B01D0BB6AABE07B6A93
:10C7D0007B6378E07B6B80333A6A9A4203D23A6A91
:10C7E0007B6BD31A00E08023BB61514B5C697B6B90
:10C7F000942292029D181F23FB181B781900B86918
:10C8000005F0F2F803001A004C4B19002800A0476D
:10C810000300BB627A6BBB69D318FA689A4229D8C5
:10C82000FA687B68D3187A6B9A4223D2FA683B6B1A
:10C83000D3187F2213408022D31AFB623A6BFB6A23
:10C84000D3187A689A4203D27A683B6BD31AFB6298
:10C85000FA683B6BD3187F221A40384BD018BA685D
:10C860003B6BD318FA6A190005F0DCFB3A6BFB6AE4
:10C87000D3183B632E4B9C697B6B902292029D18D0
:10C880001F23FB181B781900B86905F0ADF80300E9
:10C890001A002A4B19002800A0470300BB627A6BDC
:10C8A000FB689A420BD3FA687B68D3187A6B9A427A
:10C8B00005D2224B80220021180005F0CFFB7A6BB5
:10C8C000BB69D3187B637A6B3B6A9A4282D33A6A1C
:10C8D000B3239B009A421CD280235B01184A1900A3
:10C8E0001000FFF71FFE040080235B01124A1900AD
:10C8F0001000FFF717FE010080235B011A002000E3
:10C90000FFF774FE0300BB62BB6A002B01D0BB6A59
:10C9100009E0FFF7CFFE0300BB62BB6A002B01D02A
:10C92000BB6A00E0BB6A1800BD460EB0B0BDC04691
:10C930009839073018410730CC420200802C06306D
:10C94000CC52020080B582B000AF00237B60802310
:10C950005A0190239B0211001800FFF70DFE0300FF
:10C960007B607B68002B01D07B680BE080235A0141
:10C970009023990294239B021800FFF737FE0300CF
:10C980007B607B681800BD4602B080BDB0B58AB040
:10C9900000AF00237B62584B5B68984703003B6005
:10C9A0003B001B785B079B0FDBB21A00534B9200D6
:10C9B000D2581F23FB181A700823F91880235B0133
:10C9C00004221800FFF7D4FC03007B627B6A002B73
:10C9D00001D07B6A8CE03B1D494804221900FFF717
:10C9E000C7FC03007B627B6A002B01D07B6A7FE07F
:10C9F000BB68444A93420DD17B68434A934209D1B4
:10CA0000FFF7A0FF03007B627B6A002B00D16EE082
:10CA10007B6A6DE080235A0190239B02110018006D
:10CA2000FFF7AAFD03007B627B6A002B01D07B6AC3
:10CA30005EE0364B80220021180005F00FFB8023BA
:10CA40005B01BB6100233B6223E03B6A8033BA6930
:10CA50009A4203D2BA693B6AD31A00E080237B6111
:10CA6000254B9C693B6A902292029D181F23FB185C
:10CA70001B781900786904F0B7FF03001A00234BF4
:10CA800019002800A04703007B623A6A7B69D3182B
:10CA90003B623A6ABB699A42D7D3FFF70BFE0300A9
:10CAA0007B627B6A002B01D07B6A21E0154B3B61E6
:10CAB0001023FB18042219000020FFF71FFE0300BB
:10CAC0007B627B6A002B01D0114B11E00E4BFB60A7
:10CAD0000C23F918B3239B0004221800FFF70EFE65
:10CAE00003007B627B6A002B01D0094B00E07B6A6C
:10CAF0001800BD460AB0B0BD98390730184107305C
:10CB0000CC1200001281DEC0DEC07230802C0630F4
:10CB10005C3A000080B500AFFFF7A2FC03001800EC
:10CB2000BD4680BD80B588B000AFF860B9607A605E
:10CB30003B600023FB611423FA18FB681100180006
:10CB400000F054FA0300FB61FB69002B01D0FB6984
:10CB500013E07A697B68934200D91300BB61BA691C
:10CB60003968BB681800FFF703FC0300FB61FB6931
:10CB7000002B01D0FB6900E000231800BD4608B07F
:10CB800080BD000080B584B000AFF860B9607A6005
:10CB9000FB68182B00D9B7E0FB689A005D4BD318EF
:10CBA0001B689F467B68BA68F8680421FFF7BAFFE4
:10CBB0000300AAE07B68BA68F8682421FFF7B2FF97
:10CBC0000300A2E07B68BA68F8684421FFF7AAFF77
:10CBD00003009AE07B68BA68F8684821FFF7A2FF73
:10CBE000030092E07B68BA68F8684C21FFF79AFF6F
:10CBF00003008AE07B68BA68F8686C21FFF792FF4F
:10CC0000030082E07B68BA68F8688C21FFF78AFF2E
:10CC100003007AE07B68BA68F8689021FFF782FF2A
:10CC2000030072E07B68BA68F868B021FFF77AFF0A
:10CC300003006AE07B68BA68F868D021FFF772FFEA
:10CC4000030062E07B68BA68F868F021FFF76AFFCA
:10CC500003005AE07B68BA6888214900F868FFF74A
:10CC600061FF030051E07B68BA6898214900F868C9
:10CC7000FFF758FF030048E07B68BA688421890009
:10CC8000F868FFF74FFF03003FE07B68BA68A82110
:10CC90004900F868FFF746FF030036E07B68BA6892
:10CCA000C8214900F868FFF73DFF03002DE07B68CD
:10CCB000BA68E8214900F868FFF734FF030024E070
:10CCC0007B68BA688C218900F868FFF72BFF0300A6
:10CCD0001BE07B68BA6894218900F868FFF722FF9F
:10CCE000030012E07B68BA6898218900F868FFF7B2
:10CCF00019FF030009E07B68BA68A8218900F86879
:10CD0000FFF710FF030000E0034B1800BD4604B01E
:10CD100080BDC046244107305AC30000F0B5C64666
:10CD200000B590B000AF78623962FA61BB616B46C2
:10CD300098460023BB63FB691A00013A7A63BB6023
:10CD40000022FA60B868F9680200520F0E00F6007F
:10CD50007E617E6916437E610200D2003A613B60CB
:10CD600000227A60386879680200520F0E00F500E0
:10CD700015430200D4000733DB08DB006A46D31AF0
:10CD80009D466B4600333B63142318229B18DA1927
:10CD90007B6A1100180000F029F90300BB63BB6B2C
:10CDA000002B01D0BB6B4BE0FB6AFA699A4201D9B8
:10CDB000274B45E0FA69396B3B6A1800FFF7D8FA50
:10CDC0000300BB63BB6B002B01D0BB6B38E00023BF
:10CDD000FB6323E03A6BFB6BD3181A78B969FB6BE2
:10CDE000CB181B781343DAB2B969FB6BCB181B78ED
:10CDF0009A4201D0164B23E03A6BFB6BD3181A789A
:10CE0000B969FB6BCB181B781343D9B23A6BFB6B38
:10CE1000D3180A1C1A70FB6B0133FB63FA6BFB69B6
:10CE20009A42D7D3FA69396B3B6A1800FFF766FC60
:10CE30000300BB63BB6B002B01D0BB6B00E0002386
:10CE4000C5461800BD4610B080BCB846F0BDC0460F
:10CE5000C5A3000080B584B000AFF860B9607A6007
:10CE6000FB68182B00D9B7E0FB689A005D4BD3181C
:10CE70001B689F467B68BA68F8680421FFF74EFF7D
:10CE80000300AAE07B68BA68F8682421FFF746FF30
:10CE90000300A2E07B68BA68F8684421FFF73EFF10
:10CEA00003009AE07B68BA68F8684821FFF736FF0C
:10CEB000030092E07B68BA68F8684C21FFF72EFF08
:10CEC00003008AE07B68BA68F8686C21FFF726FFE8
:10CED000030082E07B68BA68F8688C21FFF71EFFC8
