:020000043000CA
:100400000008063049AD00306D1001309BAD003062
:1004100000000000000000000000000000000000DC
:10042000000000000000000000000000B91F0130C3
:100430000000000000000000711F0130F5E90030ED
:10044000A3AD0030A5AD0030A7AD00309510013050
:1004500000000000ABAD0030ADAD0030AFAD0030FE
:10046000B1AD003075110130B5AD0030B7AD003021
:10047000B9AD0030BBAD0030BDAD003000000000B4
:10048000000000000000000000000000000000006C
:1004900000000000BFAD003000000000C1AD003022
:1004A0000000000000000000C3AD003000000000AC
:1004B00031AF00300000000000000000000000002C
:1004C000E0EC0430C0C1063060020000C0600130C2
:1004D0000008063060000000C060013020E00530F8
:0404E0000000000018
:1004E40020C40630142100006008063060B9000002
:1004F40020E005302014000000E005300400000076
:1005040001015F5F030100001F010000330B003095
:1005140000200000000000000100000001000000B5
:100524000000000000000000E87E0630000000002B
:1005340070000000DC82043080000000000700002E
:1005440001000000590B00300100000001015F5F51
:10055400050100001F010000B1480030800A0000BE
:100564000000000001000000010000000000000085
:100574000000000068A106300000000080000000B8
:10058400E88204302000000003070000010000009E
:10059400694800300100000001015F5F00010000B4
:1005A4001F000000959F00300008000000000000BC
:1005B4000300000001000000000000000000000033
:1005C40028EC0530000000008000000070000000EE
:1005D40042000000008304306000000001070000B6
:1005E40001000000199F00300100000001015F5F5D
:1005F400010100001F0100008D6B00308006000027
:1006040000000000000000000100000000000000E5
:100614000000000040AE06300000000020830430DB
:100624007000000002070000010000009D6B003014
:100634000100000000015F5F040100001F030000CF
:100644009197003000050000000000000000000049
:10065400030000000000000000000000C0B40630E9
:100664000000000048830430400000000005000042
:100674000100000000000000100000006883043046
:10068400410000000005000001000000000000001F
:1006940020000000808304304200000000040000B9
:1006A40001000000000000004000000001015F5F45
:1006B400000000007F030000219A003000080000C1
:1006C4000000000000000000000000000000000026
:1006D40001000000C0B906300000000065AF003022
:1006E40000000000000000001C000000000000806A
:1006F40001015F5F01000000FF0300004F20013093
:1007040000010000000000000000000000000000E4
:100714000000000000000000C0C606300000000019
:1007400080B582B000AF7860044B05497A685A5092
:1007500000231800BD4602B080BDC04660080630C8
:100760000414000080B582B000AF7860044B054AE5
:100770009A587B681A6000231800BD4602B080BDFD
:10078000600806300414000080B582B000AF7860C5
:1007900039607B680333032293437B60114AA023B3
:1007A0005B01D358A0225201D31A7A689A4202D927
:1007B0008D235B4212E00B4AA0235B01D258094B08
:1007C000D2183B681A60074AA0235B01D2587B68A5
:1007D000D118044AA0235B01D15000231800BD4664
:1007E00002B080BD6008063080B584B000AF0E4B0B
:1007F0000E4A002199500C4AA0235B01D3580A4AA3
:10080000FA600022BA607B607A68B968FB681800F9
:1008100015F05AFF044AA0235B010021D150C046C5
:10082000BD4604B080BDC046600806300414000018
:10083000F0B5A5B000AF786000238022BA1813602D
:1008400004238C22BA18136004238822BA18136078
:100850006023FB18180020231A00002115F034FF34
:100860004023FB18180020231A00002115F02CFF4C
:100870000C23FB18180034231A00002115F024FF64
:100880000023BB6005E08C22BB181B68013BBA1833
:1008900013608C22BB181B68002B08D0BB181B6888
:1008A0005A1E7B6804329200D358002BEBD08C2365
:1008B000FB181B68002B02D184235B4205E17B6897
:1008C00058680C23FA183423002115F0B8FE0300F1
:1008D000342B02D084235B42F7E00C23FB181B6807
:1008E000402B02D984235B42EFE060217B180C226D
:1008F000BA181A607B1834225A6001238422BA186D
:1009000013603EE07B688422BA18126804329200B9
:10091000D3580822BA1811001800FFF735FF03005A
:1009200080243A1913603B191B68002B04D0FFF791
:100930005BFF3B191B68C8E07B685868BC687B6834
:1009400084217A18126804329200D3580D007A1864
:100950001168220015F073FE010060243A19280086
:100960003B181B68DB00D31804331960B9683B19C6
:100970003A181268D200D1503B181B6801333A185C
:1009800013608423FB181A688C23FB181B689A4297
:10099000B8D305E08822BB181B68013BBA18136066
:1009A0008822BB181B68002B08D0BB181B685A1E76
:1009B0007B6808329200D358002BEBD000238422AE
:1009C000BA18136033E07B688422BA1812680832C0
:1009D0009200D3580822BA1811001800FFF7D4FE6D
:1009E000030080243A1913603B191B68002B04D0C4
:1009F000FFF7FAFE3B191B6867E0B96840243B1912
:100A000084203A181268D200D1507B683A181268D4
:100A100008329200D25839193B181B68DB00CB18FA
:100A200004331A603B181B6801333A18136084259D
:100A30007B191A688826BB191B689A42C3D37B6846
:100A40009B681800FFF77CFE0C23FB181A68214BEB
:100A50009200D458BB191B684022BA188C2179180F
:100A6000096860203818A04703008022BA18136074
:100A700000237A1913601BE07B68586840257B19B6
:100A800084217A181268D200D4587A197B181B680E
:100A9000DB00D31804331B680D007A18116822009C
:100AA00015F0D1FD29007B181B6801337A181360FB
:100AB0008423FB181A688823FB181B689A42DBD32F
:100AC000FFF792FE8023FB181B681800BD4625B077
:100AD000F0BDC0466C9A003080B500AF8023DA01CB
:100AE000084B1100180019F0B9F915F053FE031E58
:100AF00002D093235B4202E01DF0F0FC03001800DB
:100B0000BD4680BD681C063080B500AF00F084F89B
:100B100003001800BD4680BD80B582B000AF78608C
:100B20007B681800FFF71EFE03001800BD4602B0E8
:100B300080BD80B582B000AFFFF7E6FF03007B60A9
:100B40007B68002B01D07B6802E0FFF7C5FF030044
:100B50001800BD4602B080BD80B582B000AF78609D
:100B60007B681B68002B05D17B681800FFF760FECF
:100B7000030001E086235B421800BD4602B080BD41
:100B800080B588B000AF78607A6813001B019B18AD
:100B90009B009B181B0110331A001D4BD318BB611F
:100BA0001B497A6813001B019B189B009B181B01B3
:100BB000CB1808331B68052B17D89A00154BD31890
:100BC0001B689F465423FB6112E0CC235B00FB6152
:100BD0000EE080235B00FB610AE08E239B00FB613B
:100BE00006E08823DB00FB6102E00023FB61C046D6
:100BF000BB697B6100233B61FB69FB60FA68396973
:100C00007B69180015F060FDC046BD4608B080BD88
:100C1000685C0630709B003080B584B000AF094B33
:100C2000FB600023BB608A239B017B607A68B96804
:100C3000FB68180015F048FD00231800BD4604B0FD
:100C400080BDC046685C063080B588B000AFF860F3
:100C5000B9607A600023FB6100237B611423FB18D9
:100C60001800FFF759FF0300BB61BB69002B01D0DF
:100C7000BB697EE0BB681B68002B26D0BB681B6885
:100C8000082B1FD8BB681B685A1E3C4913001B0168
:100C90009B189B009B181B015B58012B12D1BB6852
:100CA0001B685A1E354913001B019B189B009B189B
:100CB0001B01CB1804331A687B699A4202D189233D
:100CC0005B4256E088235B4253E07B68002B02D1F5
:100CD00087235B424DE07B6800221A600023FB61A2
:100CE00042E02649FA6913001B019B189B009B18E0
:100CF0001B015B58002B34D12049FA6913001B01FA
:100D00009B189B009B181B0101225A5079691B48B4
:100D1000FA6913001B019B189B009B181B01C31849
:100D2000043319601549FA6913001B019B189B00D5
:100D30009B181B01CB180833FA681A60FB695A1C10
:100D4000BB681A60FA6913001B019B189B009B1873
:100D50001B0110331A00094BD2187B681A6000235C
:100D600007E0FB690133FB61FB69072BB9D98523D8
:100D70005B421800BD4608B080BDC046685C0630C6
:100D800080B586B000AF78607B681B687B6100230C
:100D9000FB600C23FB181800FFF7BEFE03003B614D
:100DA0003B69002B01D03B6951E07B69002B4CD0A3
:100DB0007B69082B49D87B695A1E274913001B0100
:100DC0009B189B009B181B015B58012B3DD17B6935
:100DD0005A1E214913001B019B189B009B181B01E5
:100DE000CB1804331A68FB689A422ED17B69013B09
:100DF0001800FFF7C5FE7B695A1E174913001B0137
:100E00009B189B009B181B0100225A507B695A1E9D
:100E1000114913001B019B189B009B181B01CB1849
:100E2000083300221A607B695A1E0B4913001B010C
:100E30009B189B009B181B01CB18043300221A60DF
:100E40007B6800221A60002301E087235B421800C0
:100E5000BD4606B080BDC046685C063080B586B031
:100E600000AFF860B9607A6000233B611023FB1883
:100E70001800FFF751FE03007B617B69002B01D056
:100E80007B6941E0BB68002B3CD0BB68082B39D89C
:100E9000BB685A1E1E4913001B019B189B009B1820
:100EA0001B015B58012B2DD1BB685A1E184913003A
:100EB0001B019B189B009B181B01CB1808331B6858
:100EC000FA689A421ED1BB685A1E114913001B01D1
:100ED0009B189B009B181B01CB1804331A683B69B5
:100EE0009A420FD1BB685A1E13001B019B189B002E
:100EF0009B181B0110331A00054BD2187B681A602F
:100F0000002301E089235B421800BD4606B080BD86
:100F1000685C063080B584B000AFF860B9607A6074
:100F20003B60FA68BB689A420DD3FA687B689A42C4
:100F300009D83A68BB699A4205D33A68FB699A4274
:100F400001D8012300E000231800BD4604B080BD95
:100F500080B58EB002AFF860B9607A603B60002364
:100F6000FB6200237B613B68B86802220192012288
:100F7000009201220121FFF7CDFF03001A00012397
:100F80005340DBB2002B02D081235B4239E0FB6887
:100F90005B68342B03D17B685B68042B02D0812310
:100FA0005B422EE0FB681B68BB62BB6A1B697B620D
:100FB0007B681B683B627B6808331B68FB617B684E
:100FC00008335B68BB61BB6A1A693B6A1A60142309
:100FD000FA187B6A19000120FFF740FF0300FB624B
:100FE000FB6A002B01D0FB6A0BE03B6A7A6A1A604D
:100FF00078697B6808330433BA69F9691CF04CFFDF
:1010000003001800BD460CB080BD80B58EB002AFA5
:10101000F860B9607A603B600023FB6200237B616B
:101020003B68B8680122019201220092022201214C
:10103000FFF770FF03001A0001235340DBB2002BBF
:1010400002D081235B4234E0FB685B68342B03D120
:101050007B685B68042B02D081235B4229E0FB683C
:101060001B68BB62BB6A1B697B627B681B683B6257
:10107000FB6808331B68FB61FB6808335B68BB6176
:10108000BB6A1A693B6A1A601423FA187B6A190052
:101090000120FFF7E3FE0300FB62FB6A002B01D097
:1010A000FB6A06E07B69BA69F96918001BF088FDE4
:1010B00003001800BD460CB080BD90B591B002AFE2
:1010C000F860B9607A603B6000237B6300233B6279
:1010D0003B68B8680122019201220092012201219D
:1010E000FFF718FF03001A0001235340DBB2002B67
:1010F00002D081235B424DE07B685B68042B03D107
:10110000FB685B68342B02D081235B4242E0FB68C2
:101110001B683B633B6B1B69FB617B681B68FB6265
:101120003B6B9B68BB623B6BDB687B622023FA18DE
:101130001C23FB1819000120FFF786FD03007B63C9
:101140007B6B002B01D07B6B24E0FA69FB6A1A6091
:1011500014243A19BB6A1100180001F057F9030072
:101160007B637B6B002B0DD1386A7B6A3A1911685F
:1011700052681BF015FD03007B637B6B002B03D1D2
:101180007B6B07E0C04600E0C046FB6A1800FFF733
:10119000F7FD7B6B1800BD460FB090BD90B591B0C8
:1011A00002AFF860B9607A603B6000237B63002384
:1011B0003B623B68B8680122019201220092012241
:1011C0000121FFF7A7FE03001A0001235340DBB201
:1011D000002B02D081235B424DE07B685B68042BCF
:1011E00003D1FB685B68342B02D081235B4242E071
:1011F000FB681B683B633B6B1B69FB617B681B687F
:10120000FB623B6B9B68BB623B6BDB687B622023B2
:10121000FA181C23FB1819000120FFF715FD030025
:101220007B637B6B002B01D07B6B24E0FA69FB6A4C
:101230001A6014243A19BB6A1100180001F0E6F88C
:1012400003007B637B6B002B0DD1386A7B6A3A19F4
:10125000116852681BF0ACFC03007B637B6B002BB6
:1012600003D17B6B07E0C04600E0C046FB6A180074
:10127000FFF786FD7B6B1800BD460FB090BD90B5A3
:1012800091B002AFF860B9607A603B6000237B6385
:1012900000237B613B68B868022201920122009220
:1012A00002220121FFF736FE03001A0001235340FA
:1012B000DBB2002B02D081235B4247E0FB685B6816
:1012C000342B03D17B685B68042B02D081235B4203
:1012D0003CE0FB681B683B633B6B1B69FB627B6804
:1012E0001B68BB62FB6808331B687B62FB680833C2
:1012F0005B683B627B6808331B68FB617B68083373
:101300005B68BB613B6B1A69BB6A1A607B68083318
:1013100000225A601423FA18FB6A19000120FFF713
:101320009DFD03007B637B6B002B01D07B6B0DE08D
:1013300078697B6808330433FC693A6A796A0193F7
:10134000BB69009323001BF069FC03001800BD4635
:101350000FB090BD80B58EB002AFF860B9607A6012
:101360003B600023FB6200237B613B68B86802227C
:1013700001920122009201220121FFF7CBFD03001F
:101380001A0001235340DBB2002B02D081235B42C1
:1013900043E0FB685B68342B03D17B685B68042BFC
:1013A00002D081235B4238E0FB681B68BB62BB6AEA
:1013B0001B697B627B681B683B627B6808331B6828
:1013C000FB617B6808335B68BB61BB6A1A693B6A77
:1013D0001A607B68083300225A601423FA187B6A6B
:1013E00019000120FFF73AFD0300FB62FB6A002BA6
:1013F00001D0FB6A11E078697B6808330433BA696D
:10140000F9691BF035FC0300FB62FB6A002B03D17A
:101410003B6A1800FFF7B4FCFB6A1800BD460CB02D
:1014200080BD80B58CB002AFF860B9607A603B6077
:1014300000237B6200237B613B68B8680122019234
:101440000122009201220121FFF764FD03001A002E
:1014500001235340DBB2002B02D081235B4239E0F1
:10146000FB685B68342B03D17B685B68042B02D07C
:1014700081235B422EE0FB681B683B623B6A1B6971
:10148000FB617B681B68BB613B6A1A69BB691A60B8
:101490001423FA18FB6919000120FFF7DFFC030091
:1014A0007B627B6A002B01D0002313E07B6918006C
:1014B0001BF00CFC03007B627B6A002B05D0BB6930
:1014C0001800FFF75DFC7B6A04E0BB691800FFF7BA
:1014D00057FC03001800BD460AB080BD80B592B02D
:1014E00004AFF860B9607A603B6000237B633B68BF
:1014F000B868012201920122009202220121FFF725
:1015000009FD03001A0001235340DBB2002B02D077
:1015100081235B423EE0FB685B68342B02D0812371
:101520005B4237E0FB681B683B633B6B9B68FB627D
:101530003B6BDB68BB62FB6808331B687B62FB6844
:1015400008335B683B627B681B68FB617B685B6898
:10155000BB611023FA18FB6A1100180000F056FF57
:1015600003007B637B6B002B01D07B6B12E07B68FD
:101570000433786ABA6A102179180393BB6902931D
:10158000FB6901933B6A00930300086849681CF0FB
:10159000CDFC03001800BD460EB080BD80B592B0F2
:1015A00004AFF860B9607A603B6000237B633B68FE
:1015B000B868012201920122009202220121FFF764
:1015C000A9FC03001A0001235340DBB2002B02D018
:1015D00081235B423EE0FB685B68342B02D08123B1
:1015E0005B4237E0FB681B683B633B6B9B68FB62BD
:1015F0003B6BDB68BB62FB6808331B687B62FB6884
:1016000008335B683B627B681B68FB617B685B68D7
:10161000BB611023FA18FB6A1100180000F0F6FEF7
:1016200003007B637B6B002B01D07B6B12E07B683C
:101630000433786ABA6A102179180393BB6902935C
:10164000FB6901933B6A00930300086849681BF03B
:101650004DFB03001800BD460EB080BD80B584B0C0
:1016600000AFF860B9607A603B60FA68BB689A4284
:101670000DD3FA687B689A4209D83A68BB699A42E6
:1016800005D33A68FB699A4201D8012300E00023A0
:101690001800BD4604B080BD80B58CB002AFF860C4
:1016A000B9607A603B6000237B6200237B613B680A
:1016B000B868012201920122009201220121FFF764
:1016C000CDFF03001A0001235340DBB2002B02D0F0
:1016D00081235B423CE07B685B68042B03D1FB68A1
:1016E0005B68342B02D081235B4231E0FB681B68CE
:1016F0003B623B6A1B693B617B681B68FB613B6A21
:10170000DB68BB613B6A1A69FB691A601423FA182B
:101710001023FB1819000320FFF796FA03007B62E1
:101720007B6A002B01D07B6A12E03A69FB691A6080
:101730007B69BA69110018001AF016FD03007B627C
:101740007B6A002B03D0FB691800FFF719FB7B6A4B
:101750001800BD460AB080BD80B58EB002AFF860FB
:10176000B9607A603B600023FB6200237B613B68C9
:10177000B868012201920122009202220121FFF7A2
:101780006DFF03001A0001235340DBB2002B02D08F
:1017900081235B4234E0FB685B68342B03D17B68B8
:1017A0005B68042B02D081235B4229E0FB681B6845
:1017B000BB62BB6A1B697B627B681B683B62FB6820
:1017C00008331B68FB61FB6808335B68BB61BB6A5D
:1017D0001A693B6A1A601423FA187B6A19000320FD
:1017E000FFF73CFB0300FB62FB6A002B01D0FB6AA6
:1017F00006E07B69BA69F96918001AF0DDFC03009C
:101800001800BD460CB080BD80B58EB002AFF86048
:10181000B9607A603B600023FB6200237B613B6818
:10182000B868022201920122009201220121FFF7F1
:1018300015FF03001A0001235340DBB2002B02D036
:1018400081235B4243E0FB685B68342B03D17B68F8
:101850005B68042B02D081235B4238E0FB681B6885
:10186000BB62BB6A1B697B627B681B683B627B68EF
:1018700008331B68FB617B6808335B68BB61BB6A2C
:101880001A693B6A1A607B68083300225A60142385
:10189000FA187B6A19000320FFF7E0FA0300FB62E5
:1018A000FB6A002B01D0FB6A11E078697B68083382
:1018B0000433BA69F9691AF099FC0300FB62FB6A08
:1018C000002B03D13B6A1800FFF75AFAFB6A180095
:1018D000BD460CB080BD80B58EB002AFF860B96077
:1018E0007A603B600023FB6200237B613B68B86841
:1018F000012201920122009202220121FFF7AEFE95
:1019000003001A0001235340DBB2002B02D08123D5
:101910005B423DE0FB685B68342B03D17B685B680E
:10192000042B02D081235B4232E0FB681B68BB6260
:10193000BB6A1B697B627B681B683B62FB68083380
:101940001B68FB61FB6808335B68BB61BB6A1A6993
:101950003B6A1A601423FA187B6A19000320FFF708
:101960007DFA0300FB62FB6A002B01D0FB6A0FE0EB
:101970007B69BA69F96918001AF050FC0300FB6230
:10198000FB6A002B03D13B6A1800FFF7F9F9FB6AE9
:101990001800BD460CB080BD80B58CB002AFF860B9
:1019A000B9607A603B6000237B6200237B613B6807
:1019B000B868012201920122009201220121FFF761
:1019C0004DFE03001A0001235340DBB2002B02D06E
:1019D00081235B4239E0FB685B68342B03D17B6871
:1019E0005B68042B02D081235B422EE0FB681B68FE
:1019F0003B623B6A1B69FB617B681B68BB613B6A9E
:101A00001A69BB691A601423FA18FB6919000320CC
:101A1000FFF724FA03007B627B6A002B01D00023CE
:101A200013E07B6918001AF093FB03007B627B6A6A
:101A3000002B05D0BB691800FFF7A2F97B6A04E010
:101A4000BB691800FFF79CF903001800BD460AB0F7
:101A500080BD80B58CB002AFF860B9607A603B6041
:101A600000237B6200237B6100233B613B68B868F5
:101A7000012201920122009201220121FFF7EEFDD5
:101A800003001A0001235340DBB2002B02D0812354
:101A90005B4236E0FB685B68342B03D17B685B6894
:101AA000042B02D081235B422BE0FB681B683B6266
:101AB0003B6A1B69FB617B681B68BB611423FA18D6
:101AC000FB6919000320FFF7C9F903007B627B6AF9
:101AD000002B01D07B6A14E01023FA18BB691900AF
:101AE0000320FFF7B1F803007B627B6A002B01D073
:101AF0007B6A06E07B693A69110018001AF030FC35
:101B000003001800BD460AB080BD90B58DB002AF8D
:101B1000F860B9607A603B603B68B8680122019266
:101B20000022009202220121FFF798FD03001A0013
:101B300001235340DBB2002B02D081235B422AE019
:101B4000FB685B68342B02D081235B4223E0FB6897
:101B50001B687B627B6ADB683B62FB6808331B683F
:101B6000FB61FB6808335B68BB617B681B687B615A
:101B70007B685B683B617B6800225A607B6804334A
:101B80007C69BA69F969386A01933B69009323005B
:101B90001AF09CFB03001800BD460BB090BD90B539
:101BA0008DB002AFF860B9607A603B603B68B8689E
:101BB000002201920022009203220121FFF74EFD34
:101BC00003001A0001235340DBB2002B02D0812313
:101BD0005B4226E0FB685B68342B02D081235B42CA
:101BE0001FE0FB681B687B627B6ADB683B62FB680B
:101BF00008331B68FB61FB6808335B68BB61FB68EB
:101C000010331B687B61FB6810335B683B617C6948
:101C1000BA69F969386A3B69009323001AF06CFBD2
:101C200003001800BD460BB090BD80B584B000AF76
:101C3000F860B9607A603B60FA68BB689A420DD37D
:101C4000FA687B689A4209D83A68BB699A4205D318
:101C50003A68FB699A4201D8012300E0002318008A
:101C6000BD4604B080BD90B591B002AFF860B960D8
:101C70007A603B6000237B6300233B623B68B8686B
:101C8000012201920122009201220121FFF7CDFFE2
:101C900003001A0001235340DBB2002B02D0812342
:101CA0005B4251E07B685B68042B03D1FB685B6897
:101CB000342B02D081235B4246E0FB681B683B6308
:101CC0003B6B1B69FB617B681B68FB623B6B9B6822
:101CD000BB623B6BDB687B623B6B1A69FB6A1A6019
:101CE0002023FA181C23FB1819000220FEF7ACFF72
:101CF00003007B637B6B002B01D07B6B24E0FA69D4
:101D0000FB6A1A6014243A19BB6A1100180000F02B
:101D10007DFB03007B637B6B002B0DD1386A7B6AF4
:101D20003A19116852681AF045FB03007B637B6B1C
:101D3000002B03D17B6B07E0C04600E0C046FB6A86
:101D40001800FFF71DF87B6B1800BD460FB090BD63
:101D500090B591B002AFF860B9607A603B60002343
:101D60007B6300233B623B68B86801220192012239
:101D7000009201220121FFF758FF03001A000123FE
:101D80005340DBB2002B02D081235B4251E07B68E1
:101D90005B68042B03D1FB685B68342B02D0812382
:101DA0005B4246E0FB681B683B633B6B1B69FB6166
:101DB0007B681B68FB623B6B9B68BB623B6BDB68B1
:101DC0007B623B6B1A69FB6A1A602023FA181C239A
:101DD000FB1819000220FEF737FF03007B637B6BC3
:101DE000002B01D07B6B24E0FA69FB6A1A60142493
:101DF0003A19BB6A1100180000F008FB03007B636E
:101E00007B6B002B0DD1386A7B6A3A1911685268D6
:101E10001AF0D8FA03007B637B6B002B03D17B6B3A
:101E200007E0C04600E0C046FB6A1800FEF7A8FFC6
:101E30007B6B1800BD460FB090BD80B58EB002AF71
:101E4000F860B9607A603B600023FB6200237B612D
:101E50003B68B8680122019201220092022201210E
:101E6000FFF7E3FE03001A0001235340DBB2002B0F
:101E700002D081235B4234E0FB685B68342B03D1E2
:101E80007B685B68042B02D081235B4229E0FB68FE
:101E90001B68BB62BB6A1B697B627B681B683B6219
:101EA000FB6808331B68FB61FB6808335B68BB6138
:101EB000BB6A1A693B6A1A601423FA187B6A190014
:101EC0000220FEF7CBFF0300FB62FB6A002B01D070
:101ED000FB6A06E07B69BA69F96918001AF07AFAB8
:101EE00003001800BD460CB080BD80B58EB002AFB7
:101EF000F860B9607A603B600023FB6200237B617D
:101F00003B68B8680222019201220092012201215D
:101F1000FFF78BFE03001A0001235340DBB2002BB6
:101F200002D081235B4243E0FB685B68342B03D122
:101F30007B685B68042B02D081235B4238E0FB683E
:101F40001B68BB62BB6A1B697B627B681B683B6268
:101F50007B6808331B68FB617B6808335B68BB6187
:101F6000BB6A1A693B6A1A607B68083300225A60B0
:101F70001423FA187B6A19000220FEF76FFF030092
:101F8000FB62FB6A002B01D0FB6A11E078697B6879
:101F900008330433BA69F9691AF03AFA0300FB62AC
:101FA000FB6A002B03D13B6A1800FEF7E9FEFB6ACF
:101FB0001800BD460CB080BD80B58EB002AFF86091
:101FC000B9607A603B600023FB6200237B613B6861
:101FD000B868012201920122009202220121FFF73A
:101FE00024FE03001A0001235340DBB2002B02D071
:101FF00081235B423DE0FB685B68342B03D17B6847
:102000005B68042B02D081235B4232E0FB681B68D3
:10201000BB62BB6A1B697B627B681B683B62FB68B7
:1020200008331B68FB61FB6808335B68BB61BB6AF4
:102030001A693B6A1A601423FA187B6A1900022095
:10204000FEF70CFF0300FB62FB6A002B01D0FB6A6A
:102050000FE07B69BA69F96918001AF0DFFA03002A
:10206000FB62FB6A002B03D13B6A1800FEF788FE77
:10207000FB6A1800BD460CB080BD80B58CB002AFC5
:10208000F860B9607A603B6000237B6200237B616B
:102090003B68B868012201920122009201220121CD
:1020A000FFF7C3FD03001A0001235340DBB2002BEE
:1020B00002D081235B4239E0FB685B68342B03D19B
:1020C0007B685B68042B02D081235B422EE0FB68B7
:1020D0001B683B623B6A1B69FB617B681B68BB61D9
:1020E0003B6A1A69BB691A601423FA18FB69190064
:1020F0000220FEF7B3FE03007B627B6A002B01D057
:10210000002313E07B6918001AF044F903007B6296
:102110007B6A002B05D0BB691800FEF731FE7B6A95
:1021200004E0BB691800FEF72BFE03001800BD4653
:102130000AB080BD80B592B004AFF860B9607A6033
:102140003B6000237B633B68B86801220192012257
:10215000009202220121FFF768FD03001A0001230B
:102160005340DBB2002B02D081235B423EE0FB6890
:102170005B68342B02D081235B4237E0FB681B682D
:102180003B633B6B9B68FB623B6BDB68BB62FB6842
:1021900008331B687B62FB6808335B683B627B68C3
:1021A0001B68FB617B685B68BB611023FA18FB6AE4
:1021B0001100180000F02AF903007B637B6B002BF1
:1021C00001D07B6B12E07B680433786ABA6A102115
:1021D00079180393BB690293FB6901933B6A0093EF
:1021E0000300086849681AF053FA03001800BD4656
:1021F0000EB080BD80B592B004AFF860B9607A606F
:102200003B6000237B633B68B86800220192002298
:10221000009203220121FFF708FD03001A000123A9
:102220005340DBB2002B02D081235B423DE0FB68D0
:102230005B68342B02D081235B4236E0FB681B686D
:102240003B633B6B9B68FB623B6BDB68BB62FB6881
:1022500008331B687B62FB6808335B683B62FB6882
:1022600010331B68FB61FB6810335B68BB61102394
:10227000FA18FB6A1100180000F0C8F803007B632D
:102280007B6B002B01D07B6B0FE0786ABA6A10235E
:10229000F918BB690293FB6901933B6A0093030041
:1022A000086849681AF004FA03001800BD460EB029
:1022B00080BD80B586B000AFF860B9607A60FB6819
:1022C0007A681A60FB68BA685A60F868BD4606B05A
:1022D00080BD90B58FB000AF786010243B19180016
:1022E00028231A00002114F0EFF97B683A1913CA69
:1022F00013C313CA13C313CA13C312681A607868CE
:10230000BD460FB090BD90B591B000AF7863396312
:10231000FA627B6B002B02D0FB6A002B02D1812377
:102320005B422CE0FC6A3B001800FFF7D2FF3A004A
:10233000230013CA13C313CA13C313CA13C31268E7
:102340001A60FB6AFB637B6B1A88FB6B1A807B6BE2
:102350005A68FB6B5A607B6BDA68FB6B1A617B6BAC
:102360001A69FB6B5A617B6B5A88FB6B5A807B6BDB
:102370009A68FB6B9A60FB6B3A6BDA60002318007B
:10238000BD4611B090BDB0B590B000AF7860396077
:102390003B68002B02D07B68002B02D181235B427B
:1023A00030E02C243B19180014231A00002114F0EB
:1023B0008BF93B683A1913CA13C303CA03C30C252C
:1023C0007B197A6813CA13C313CA13C303CA03C39E
:1023D0007B191A883B681A8029007B185A683B6869
:1023E0005A607B181A693B68DA607B185A693B6847
:1023F0001A617B185A883B685A807B189A683B6838
:102400009A6000231800BD4610B0B0BD90B587B0EB
:1024100000AFF860B96000233B611023FB1818007F
:10242000FEF77AFB03007B617B69002B01D07B699F
:1024300011E0BB68002B02D181235B420BE03969BC
:10244000BC683B00FA681800FFF733FF3A0023002E
:1024500003CA03C300231800BD4607B090BD80B572
:1024600084B000AFF860B9607A603B60FA68BB681E
:102470009A420DD3FA687B689A4209D83A68BB69D8
:102480009A4205D33A68FB699A4201D8012300E0D9
:1024900000231800BD4604B080BD80B59CB008AFD5
:1024A000F860B9607A603B600023FB643B68B86801
:1024B000012201920022009203220121FFF7CFFFA7
:1024C00003001A0001235340DBB2002B02D081230A
:1024D0005B4259E0FB685B68342B02D081235B428E
:1024E00052E0FB681B68BB64BB6C20337B64BB6C35
:1024F0009B683B64BB6CDB68FB637B6CBB637B6C86
:102500001B697B63FB6808331B683B63FB6808330C
:102510005B68FB627B681B68BB627B685B687B6295
:10252000FB6810331B683B62FB6810335B68FB6120
:102530007B6800225A601423FA183B6C11001800C3
:10254000FFF764FF0300FB64FB6C002B01D0FB6C06
:102550001AE07B680433B86BFA6B1421791807937F
:102560007B6A0693BB6A0593FB6A04933B6B0393F8
:10257000FB6902933B6A01937B6B0093030008683D
:1025800049681AF065FC03001800BD4614B080BD10
:1025900080B59CB008AFF860B9607A603B600023FA
:1025A000FB643B68B868012201920022009203227A
:1025B0000121FFF754FF03001A0001235340DBB24F
:1025C000002B02D081235B4259E0FB685B68342B0F
:1025D00002D081235B4252E0FB681B68BB64BB6C8A
:1025E00020337B64BB6C9B683B64BB6CDB68FB6328
:1025F0007B6CBB637B6C1B697B63FB6808331B686C
:102600003B63FB6808335B68FB627B681B68BB62EB
:102610007B685B687B62FB6810331B683B62FB680E
:1026200010335B68FB617B6800225A601423FA1840
:102630003B6C11001800FFF7E9FE0300FB64FB6C24
:10264000002B01D0FB6C1AE07B680433B86BFA6B8B
:102650001421791807937B6A0693BB6A0593FB6A7A
:1026600004933B6B0393FB6902933B6A01937B6B7F
:1026700000930300086849681AF0B4FC03001800CE
:10268000BD4614B080BD90B591B002AFF860B9609E
:102690007A603B6000237B6300233B623B68B86841
:1026A000012201920122009201220121FFF7D7FEAF
:1026B00003001A0001235340DBB2002B02D0812318
:1026C0005B424DE0FB685B68342B02D081235B42A8
:1026D00046E0FB681B683B633B6B1B69FB617B68E7
:1026E0001B68FB623B6B9B68BB623B6BDB687B627E
:1026F0003B6B1A69FB6A1A602023FA181C23FB182B
:1027000019000520FEF7A0FA03007B637B6B002B0A
:1027100001D07B6B24E0FA69FB6A1A6014243A1931
:10272000BB6A11001800FFF771FE03007B637B6B2F
:10273000002B0DD1386A7B6A3A19116852681AF079
:102740001BFD03007B637B6B002B03D17B6B07E0DE
:10275000C04600E0C046FB6A1800FEF711FB7B6B29
:102760001800BD460FB090BD90B591B002AFF860B3
:10277000B9607A603B6000237B6300233B623B6867
:10278000B868012201920122009201220121FFF783
:1027900066FE03001A0001235340DBB2002B02D077
:1027A00081235B424DE0FB685B68342B02D08123C0
:1027B0005B4246E0FB681B683B633B6B1B69FB614C
:1027C0007B681B68FB623B6B9B68BB623B6BDB6897
:1027D0007B623B6B1A69FB6A1A602023FA181C2380
:1027E000FB1819000520FEF72FFA03007B637B6BB3
:1027F000002B01D07B6B24E0FA69FB6A1A60142479
:102800003A19BB6A11001800FFF700FE03007B6352
:102810007B6B002B0DD1386A7B6A3A1911685268BC
:102820001AF0B6FC03007B637B6B002B03D17B6B40
:1028300007E0C04600E0C046FB6A1800FEF7A0FAB9
:102840007B6B1800BD460FB090BD80B58CB002AF59
:10285000F860B9607A603B6000237B6200237B6193
:102860003B68B868012201920122009201220121F5
:10287000FFF7F5FD03001A0001235340DBB2002BE4
:1028800002D081235B4239E0FB685B68342B03D1C3
:102890007B685B68042B02D081235B422EE0FB68DF
:1028A0001B683B623B6A1B69FB617B681B68BB6101
:1028B0003B6A1A69BB691A601423FA18FB6919008C
:1028C0000520FEF7CBFA03007B627B6A002B01D068
:1028D000002313E07B6918001AF0EAFD03007B6215
:1028E0007B6A002B05D0BB691800FEF749FA7B6AAA
:1028F00004E0BB691800FEF743FA03001800BD4668
:102900000AB080BD90B593B004AFF860B9607A604A
:102910003B6000237B6300237B613B68B868032234
:1029200001920222009201220121FFF798FD03008B
:102930001A0001235340DBB2002B02D081235B42FB
:1029400058E0FB685B68342B03D17B685B68042B21
:1029500002D081235B424DE0FB681B683B633B6B0D
:102960001B69FB627B681B68BB627B6810331B685A
:102970007B627B6810335B683B627B6808331B6853
:10298000FB617B6808335B68BB613B6B1A69BB6AA0
:102990001A607B68083300225A607B68103300227B
:1029A0005A601423FA18FB6A19000520FEF756FA3C
:1029B00003007B637B6B002B01D07B6B1AE0786993
:1029C0007B6810331C1D7B68083304333A6A796ACC
:1029D0000293BB690193FB69009323001AF0DCFCAE
:1029E00003007B637B6B002B03D1BB6A1800FEF7EF
:1029F000C7F97B6B1800BD460FB090BD80B58EB097
:102A000002AFF860B9607A603B600023FB6200238C
:102A10007B613B68B8680222019202220092012287
:102A20000121FFF71CFD03001A0001235340DBB214
:102A3000002B02D081235B423AE0FB685B68342BB9
:102A400003D17B685B68042B02D081235B422FE0BB
:102A5000FB681B68BB62BB6A1B697B627B681B6887
:102A60003B627B6808331B68FB617B6808335B68EB
:102A7000BB61BB6A1A693B6A1A607B680833002233
:102A80005A601423FA187B6A19000520FEF7E6F94C
:102A90000300FB62FB6A002B01D0FB6A08E0786947
:102AA0007B6808330433BA69F9691BF00DFB030036
:102AB0001800BD460CB080BD80B58EB002AFF86086
:102AC000B9607A603B600023FB6200237B613B6856
:102AD000B868012201920122009202220121FFF72F
:102AE000BEFC03001A0001235340DBB2002B02D0CE
:102AF00081235B4234E0FB685B68342B03D17B6845
:102B00005B68042B02D081235B4229E0FB681B68D1
:102B1000BB62BB6A1B697B627B681B683B62FB68AC
:102B200008331B68FB61FB6808335B68BB61BB6AE9
:102B30001A693B6A1A601423FA187B6A1900052087
:102B4000FEF78CF90300FB62FB6A002B01D0FB6AE5
:102B500006E07B69BA69F96918001AF025FB0300E1
:102B60001800BD460CB080BD80B58EB002AFF860D5
:102B7000B9607A603B600023FB6200237B613B68A5
:102B8000B868012201920122009201220121FFF77F
:102B900066FC03001A0001235340DBB2002B02D075
:102BA00081235B4232E0FB685B68342B03D17B6896
:102BB0005B68042B02D081235B4227E0FB681B6823
:102BC000BB62BB6A1B697B627B681B683B62BB6A3A
:102BD0009B69FB61BB6ADB69BB61BB6A1A693B6AC3
:102BE0001A601423FA187B6A19000520FEF736F9DB
:102BF0000300FB62FB6A002B01D0FB6A06E07B69E5
:102C0000BA69F96918001AF00DFB03001800BD46F7
:102C10000CB080BD90B591B002AFF860B9607A6039
:102C20003B6000237B6300237B613B68B868022222
:102C300001920122009202220121FFF710FC030001
:102C40001A0001235340DBB2002B02D081235B42E8
:102C500043E0FB685B68342B03D17B685B68042B23
:102C600002D081235B4238E0FB681B683B633B6B0F
:102C70001B69FB627B681B68BB62FB6808331B68CF
:102C80007B62FB6808335B683B627B6808331B68C8
:102C9000FB617B6808335B68BB613B6B1A69BB6A8D
:102CA0001A601423FA18FB6A19000520FEF7D6F8FB
:102CB00003007B637B6B002B01D07B6B0DE078699D
:102CC0007B6808330433FC693A6A796A0193BB690B
:102CD000009323001AF01EFB03001800BD460FB03E
:102CE00090BD80B58EB002AFF860B9607A603B608D
:102CF0000023FB6200237B613B68B86801220192DC
:102D00000122009202220121FFF7A9FB03001A0011
:102D100001235340DBB2002B02D081235B4234E01D
:102D2000FB685B68342B03D17B685B68042B02D0A3
:102D300081235B4229E0FB681B68BB62BB6A1B699D
:102D40007B627B681B683B62FB6808331B68FB6126
:102D5000FB6808335B68BB61BB6A1A693B6A1A602F
:102D60001423FA187B6A19000520FEF777F8030090
:102D7000FB62FB6A002B01D0FB6A06E07B69BA6943
:102D8000F96918001AF088FA03001800BD460CB063
:102D900080BD90B591B002AFF860B9607A603B60D9
:102DA00000237B6300237B613B68B86802220192A9
:102DB0000122009202220221FFF751FB03001A00B8
:102DC00001235340DBB2002B02D081235B424CE055
:102DD000FB685B68342B03D17B685B68042B02D0F3
:102DE00081235B4241E0FB681B683B633B6B1B69D3
:102DF000FB627B681B68BB62FB6808331B687B62F5
:102E0000FB6808335B683B627B6808331B68FB61C7
:102E10007B6808335B68BB613B6B1A69BB6A1A60ED
:102E20001423FA18FB6A19000520FEF717F80300AF
:102E30007B637B6B002B01D07B6B16E078697B6832
:102E400008331C1DBA69F9693B6A01937B6A0093D8
:102E500023001AF0F7FA03007B637B6B002B03D18E
:102E6000BB6A1800FDF78CFF7B6B1800BD460FB0E6
:102E700090BD80B582B000AF78607B681B88180079
:102E8000BD4602B080BD80B582B000AF78607B687F
:102E90005B881800BD4602B080BD80B584B000AF2D
:102EA000F860B9607A603B60FA68BB689A420DD3FB
:102EB000FA687B689A4209D83A68BB699A4205D396
:102EC0003A68FB699A4201D8012300E00023180008
:102ED000BD4604B080BD80B592B004AFF860B96063
:102EE0007A603B603B68B868012201920022009240
:102EF00002220121FFF7D1FF03001A0001235340F2
:102F0000DBB2002B02D081235B423EE0FB685B68B2
:102F1000342B02D081235B4237E0FB681B687B6364
:102F20007B6B9B683B637B6BDB68FB62FB680833F6
:102F30001B68BB62FB6808335B687B627B681B684D
:102F40003B627B685B68FB611023FA183B6B1100E6
:102F50001800FFF75BFA0300BB61BB69002B01D0CF
:102F6000BB6912E07B680433B86AFA6A10217918E9
:102F70000393FB6902933B6A01937B6A009303000E
:102F80000868496819F016FC03001800BD460EB029
:102F900080BD80B592B004AFF860B9607A603B60E4
:102FA0003B68B868002201920022009203220121AE
:102FB000FFF773FF03001A0001235340DBB2002B1D
:102FC00002D081235B423DE0FB685B68342B02D07A
:102FD00081235B4236E0FB681B687B637B6B9B68ED
:102FE0003B637B6BDB68FB62FB6808331B68BB627F
:102FF000FB6808335B687B62FB6810331B683B62CD
:10300000FB6810335B68FB611023FA183B6B1100FF
:103010001800FFF7FBF90300BB61BB69002B01D06F
:10302000BB690FE0B86AFA6A1023F918FB690293CA
:103030003B6A01937B6A009303000868496819F0B2
:1030400015FC03001800BD460EB080BD80B592B0DF
:1030500004AFF860B9607A603B603B68B8680122F1
:1030600001920022009202220121FFF716FF0300C5
:103070001A0001235340DBB2002B02D081235B42B4
:103080003EE0FB685B68342B02D081235B4237E073
:10309000FB681B687B637B6B9B683B637B6BDB68BC
:1030A000FB62FB6808331B68BB62FB6808335B6824
:1030B0007B627B681B683B627B685B68FB611023FB
:1030C000FA183B6B11001800FFF7A0F90300BB6171
:1030D000BB69002B01D0BB6912E07B680433B86A7E
:1030E000FA6A102179180393FB6902933B6A0193F2
:1030F0007B6A009303000868496819F00FFC03001D
:103100001800BD460EB080BD80B592B004AFF86027
:10311000B9607A603B603B68B86800220192002287
:10312000009203220121FFF7B8FE03001A000123D9
:103130005340DBB2002B02D081235B423DE0FB68B1
:103140005B68342B02D081235B4236E0FB681B684E
:103150007B637B6B9B683B637B6BDB68FB62FB6821
:1031600008331B68BB62FB6808335B687B62FB68E3
:1031700010331B683B62FB6810335B68FB611023F4
:10318000FA183B6B11001800FFF740F90300BB6110
:10319000BB69002B01D0BB690FE0B86AFA6A102343
:1031A000F918FB6902933B6A01937B6A0093030061
:1031B0000868496819F00CFC03001800BD460EB001
:1031C00080BD0000F0B5A5B006AFF860B9607A60C8
:1031D0003B603B68B8680122019200220092032202
:1031E0000121FFF75AFE03001A0001235340DBB20E
:1031F000002B02D081235B4286E0FB685B68342BA6
:1032000002D081235B427FE0FB681B687B677B6F9A
:103210009B683B677B6FDB68FB66FB6808331B685A
:10322000BB66FB6808335B687B66FB6810331B6812
:103230003B66FB6810335B68FB657B681B68BB659E
:103240007B685B687B652023FB18180028231A0025
:10325000002113F039FA1023FA183B6F11001800FF
:10326000FFF7D4F803003B653B6D002B01D03B6DAD
:103270004AE02023FA181023FB181868596818F040
:1032800007FC03003B653B6D002B01D03B6D3BE031
:1032900020257B191800FFF7F6FD0300FB644A2682
:1032A000BC197B191800FFF7E4FD030023807B198C
:1032B00018001BF069F9BB191B88154A1340154A01
:1032C000934203D1FB6C0733DB0800E000237A6DE7
:1032D000934202D98A235B4216E07B680433B86EBE
:1032E000FA6E1021791805937B6D0493BB6D0393DF
:1032F000FB6D02933B6E01937B6E009303000868A5
:10330000496819F075FB03001800BD461FB0F0BDF9
:10331000FFCFFFFF0140000080B596B006AFF86018
:10332000B9607A603B603B68B86801220192002274
:10333000009203220121FFF7B0FD03001A000123D0
:103340005340DBB2002B02D081235B424AE0FB6892
:103350005B68342B02D081235B4243E0FB681B682F
:10336000FB63FB6B9B68BB63FB6BDB687B63FB688E
:1033700008331B683B63FB6808335B68FB62FB68D0
:1033800010331B68BB62FB6810335B687B627B6831
:103390001B683B627B685B68FB611023FA18BB6BA0
:1033A00011001800FFF732F80300BB61BB69002B66
:1033B00001D0BB6916E07B680433386B7A6B10214F
:1033C00079180593FB6904933B6A03937B6A029324
:1033D000BB6A0193FB6A009303000868496819F00F
:1033E00075FB03001800BD4610B080BD80B582B0EB
:1033F00000AF78607B685B881800BD4602B080BD76
:1034000080B584B000AFF860B9607A603B60FA685C
:10341000BB689A420DD3FA687B689A4209D83A6829
:10342000BB699A4205D33A68FB699A4201D80123E5
:1034300000E000231800BD4604B080BD80B582B016
:1034400000AF786039607B68034A1A600023180077
:10345000BD4602B080BDC046000F00B080B58EB042
:1034600000AFF8607A603B600A203B180A1C1A80A3
:103470003B181B88244A934202D087235B423FE0DB
:103480001423FB181800FDF747FB03007B637B6BDD
:10349000002B01D07B6B33E0FB6810333B633B6850
:1034A00004331900012016F00DFD02003B6B5A6138
:1034B0003B6B5B69002B02D18D235B4220E03B6BB1
:1034C0005B693B621423FB18FB610423BB61BA698F
:1034D000F9693B6A180015F003F93B6B5B6904332B
:1034E000FB627B68BB623B687B627A6AB96AFB6A93
:1034F000180015F0F5F83B681A1D3B6B9A61002324
:103500001800BD460EB080BD0102000080B58AB033
:1035100002AFF860B9607A60FB681800FFF766FFD9
:1035200003000733DB08FB61BB681033BB61FB6939
:10353000402B02D98D235B421DE0BB695869BB69F2
:103540009969BB695C33FA690192009300230022F8
:103550000CF0A0FC03007B617B69002B02D093235D
:103560005B4208E0BB695C3319007B68FA69F86864
:1035700018F040FC03001800BD4608B080BD80B5BF
:103580008AB000AF78607B6810337B627B6A5B69CE
:10359000002B12D07B6A5A697B6A9B693A620022CF
:1035A000FA61BB61BA69F9693B6A180013F08CF8DB
:1035B0007B6A5B69180016F08DFC7B687B610023D9
:1035C0003B618E239B00FB60FA6839697B691800B8
:1035D00013F07AF800231800BD460AB080BD000041
:1035E00080B58CB002AFF860B9607A603B600023B0
:1035F0007B6200237B613B68B86801220192012253
:10360000009201220121FFF7FBFE03001A000123B3
:103610005340DBB2002B02D081235B4247E07B6842
:103620005B68042B03D1FB685B68342B02D08123D9
:103630005B423CE0FB681B683B623B6A1B693B6189
:103640007B681B68FB613B6ADB68BB611423FA186B
:103650001023FB1819000420FDF7F6FA03007B6223
:103660007B6A002B01D07B6A21E03A69FB691A6012
:10367000BB69114A934208D17B69BA6911001800ED
:10368000FFF7DCFE03007B6207E07B69BA6911008B
:1036900018001AF0F7FA03007B627B6A002B05D052
:1036A000FB691800FDF76CFB7B6A00E07B6A180081
:1036B000BD460AB080BDC046000F00B080B58CB0DA
:1036C00002AFF860B9607A603B603B68B86801227D
:1036D00001920122009201220121FFF791FE0300D5
:1036E0001A0001235340DBB2002B02D081235B423E
:1036F0002DE0FB685B68342B03D17B685B68042B8F
:1037000002D081235B4222E0FB681B687B627B6AFC
:103710001B693B627B681B68FB6100237B61142390
:10372000FA183B6A19000420FDF798FB0300BB61FF
:10373000BB69002B04D0FB6900221A60BB6906E05C
:103740007B69FA69110018001AF044F803001800A8
:10375000BD460AB080BD80B58CB002AFF860B960DC
:103760007A603B603B68B8680022019200220092B8
:1037700001220121FFF744FE03001A0001235340F8
:10378000DBB2002B02D081235B4226E0FB685B6842
:10379000342B02D081235B421FE0FB681B687B62F5
:1037A0007B6A1B693B627B6A5B69FB6100237B610F
:1037B0001423FA183B6A19000420FDF74FFB03009D
:1037C000BB61BB69002B01D0BB6906E07B69FA696C
:1037D000110018001AF008F803001800BD460AB0DE
:1037E00080BD000090B58FB002AFF860B9607A601C
:1037F0003B603B68B86800220192002200920222DE
:103800000121FFF7FDFD03001A0001235340DBB245
:10381000002B02D081235B4243E0FB685B68342BC2
:1038200002D081235B423CE0FB681B68FB62FB6AC1
:103830001B69BB622623FB18FA6A92881A80FB6810
:1038400008331B683B62FB6808335B68FB6100233D
:103850007B611423FA18BB6A19000420FDF7FEFAF5
:103860000300BB61BB69002B01D0BB6919E07B6918
:103870001B680E4A93420AD17869FC693A6A26238A
:10388000FB1819882300FFF7E9FD030009E07869B8
:10389000FC693A6A2623FB18198823001AF01AFAE1
:1038A00003001800BD460DB090BDC046000F00B02B
:1038B00080B58CB002AFF860B9607A603B603B685D
:1038C000B868012201920022009201220121FFF733
:1038D00097FD03001A0001235340DBB2002B02D0F6
:1038E00081235B4229E0FB685B68342B02D0812393
:1038F0005B4222E0FB681B687B627B6A1B693B6260
:103900007B681B68FB617B685B68BB6100233B6174
:103910001023FA183B6A19000420FDF79FFA0300F0
:103920007B617B69002B01D07B6906E03B69BA694A
:10393000F969180019F068FF03001800BD460AB0C5
:1039400080BD80B58EB002AFF860B9607A603B6030
:103950003B68B868002201920022009201220121F6
:10396000FFF74EFD03001A0001235340DBB2002B8A
:1039700002D081235B423DE0FB685B68342B02D0C0
:1039800081235B4236E0FB681B68FB62FB6A1B69B4
:10399000BB62FB6A9B687B622223FB18FA6A9288EF
:1039A0001A800023BB611823FA18BB6A190004208F
:1039B000FDF754FA0300FB61FB69002B01D0FB69A2
:1039C00018E01023FA187B6A11001800FEF71EFD9C
:1039D0000300FB61FB69002B01D0FB690AE0B869B9
:1039E0001023FB182222BA1811881A685B681AF093
:1039F0007BF903001800BD460CB080BD80B59CB0BB
:103A000002AFF860B9607A603B603B68B868012239
:103A100001920122009202220221FFF7F1FC030031
:103A20001A0001235340DBB2002B02D081235B42FA
:103A30006EE0FB685B68342B08D1FB6808335B6879
:103A4000142B03D17B685B68042B02D081235B427B
:103A50005EE0FB681B683B663B6E1B69FB65FB68B1
:103A600008331B68BB6500233B657B681B687B656F
:103A70002823FB18180028231A00002112F024FE26
:103A80005023FA18FB6D19000420FDF7E7F9030035
:103A90007B667B6E002B01D07B6E39E01C23FB180C
:103AA0001800FDF739F803007B667B6E002B01D010
:103AB0007B6E2DE0F9692823FA18BB6D1800FEF71C
:103AC00022FC03007B667B6E002B01D07B6E1FE027
:103AD0003B6D1B68104A93420AD1396D1423FA18C2
:103AE0002823FB181800FFF711FD03007B6609E08F
:103AF000396D1423FA182823FB18180019F0E4FF75
:103B000003007B661423FB181A687B6D1A607B6EBA
:103B10001800BD461AB080BD000F00B080B58CB053
:103B200002AFF860B9607A603B603B68B868012218
:103B300001920122009201220121FFF761FC0300A2
:103B40001A0001235340DBB2002B02D081235B42D9
:103B50004CE0FB685B68342B03D17B685B68042B0B
:103B600002D081235B4241E0FB681B683B623B6AF9
:103B70001B69FB617B681B68BB6100237B613B6A3F
:103B80001A69BB691A601423FA18FB69190004202A
:103B9000FDF764F903007B627B6A002B01D00023F0
:103BA00024E0BB69FA691A607B691B68114A934279
:103BB00006D17B691800FFF7E2FC03007B6205E099
:103BC0007B69180019F086FC03007B627B6A002B7E
:103BD00005D0BB691800FDF7D3F87B6A06E0BB6926
:103BE0001800FDF7CDF803007B627B6A1800BD4624
:103BF0000AB080BD000F00B080B590B002AFF86091
:103C0000B9607A603B603B68B8680022019200228C
:103C1000009202220121FFF7F3FB03001A000123A7
:103C20005340DBB2002B02D081235B4249E0FB68AA
:103C30005B68342B02D081235B4242E0FB681B6847
:103C40007B637B6B1B693B637B6B9B68FB62FB68E5
:103C500008331B68BB62FB6808335B687B62002328
:103C6000BB612223FB187A6B92881A801823FA18FA
:103C70003B6B19000420FDF7F1F80300FB61FB69C1
:103C8000002B01D0FB691CE01023FA18FB6A11001D
:103C90001800FEF7BBFB0300FB61FB69002B01D0A2
:103CA000FB690EE0B8691023FB182222BA181188AC
:103CB0007A6A0192BA6A00921A685B681AF052F83E
:103CC00003001800BD460EB080BD80B592B004AFB1
:103CD000F860B9607A603B603B68B8680122019285
:103CE0000022009202220121FFF78AFB03001A0042
:103CF00001235340DBB2002B02D081235B423EE024
:103D0000FB685B68342B02D081235B4237E0FB68A1
:103D10001B687B637B681B683B637B685B68FB623B
:103D20007B6BDB68BB627B6B9B687B62FB680833E9
:103D30001B683B62FB6808335B68FB611023FA1861
:103D40007B6A11001800FEF761FB0300BB61BB69D1
:103D5000002B01D0BB6912E07B680433396A102262
:103D6000BA18B86A0393FB6A02933B6B0193FB6931
:103D700000930B00116852681AF01CFA0300180037
:103D8000BD460EB080BD80B586B000AFF860B960AA
:103D90007A60FB687A681A60FB68BA685A60F868EB
:103DA000BD4606B080BD80B584B000AFF860B96094
:103DB0007A603B60FA68BB689A420DD3FA687B6808
:103DC0009A4209D83A68BB699A4205D33A68FB69B6
:103DD0009A4201D8012300E000231800BD4604B038
:103DE00080BD90B59BB002AFF860B9607A603B606F
:103DF0003B68B8680122019201220092032202214D
:103E0000FFF7D1FF03001A0001235340DBB2002B60
:103E100002D081235B4251E0FB685B68342B08D100
:103E2000FB6808335B68142B03D17B685B68042B49
:103E300002D081235B4241E0FB6808331B68FB65CD
:103E4000FB6810331B68BB65FB6810335B687B65E0
:103E50007B681B683B652423FB18180028231A0085
:103E6000002112F031FC00233B611023FB181800E5
:103E7000FCF752FE0300FB64FB6C002B01D0FB6CD3
:103E80001CE039692423FA18FB6D1800FEF73BFA91
:103E90000300FB64FB6C002B01D0FB6C0EE01424D0
:103EA0003B197A6DB96D2420381817F0A3FF030071
:103EB000FB643B191A683B6D1A60FB6C1800BD4629
:103EC00019B090BDB0B58EB002AF78613961FA60BB
:103ED000BB60BB6838690122019201220092022274
:103EE0000221FFF760FF03001A0001235340DBB2F9
:103EF000002B02D081235B4244E07B695B68342B5A
:103F000008D17B6908335B68042B03D1FB685B68CD
:103F1000042B02D081235B4234E07B6908331B68A9
:103F20001B68FB62FB681B68BB620023BB61182334
:103F3000FB181800FCF7F0FD03007B627B6A002B86
:103F400001D07B6A1EE0B9691C257C193B00FA6A26
:103F50001800FFF718FF3A00230003CA03C37A19B9
:103F60007B19186859681CF0A9FB03007B627B6A07
:103F7000002B01D07B6A05E01C23FB181A68BB6A82
:103F80001A607B6A1800BD460CB0B0BD90B58DB00C
:103F900002AFF860B9607A603B603B68B8680022A5
:103FA00001920022009201220121FFF7FCFE030092
:103FB0001A0001235340DBB2002B02D081235B4265
:103FC00027E0FB685B68342B02D081235B4220E052
:103FD000FB681B687B627B6A9B683B6200233B61DA
:103FE0001023FB181800FCF797FD0300FB61FB6929
:103FF000002B01D0FB690CE0396914243B193A6AA3
:104000001800FFF7C0FE3B19186859681CF07AFBCE
:1040100003001800BD460BB090BD90B58DB002AF47
:10402000F860B9607A603B603B68B8680022019232
:104030000022009201220121FFF7B5FE03001A00C1
:1040400001235340DBB2002B02D081235B4227E0E7
:10405000FB685B68342B02D081235B4220E0FB6865
:104060001B687B627B6A9B683B6200233B61102379
:10407000FB181800FCF750FD0300FB61FB69002BE7
:1040800001D0FB690CE0396914243B193A6A180025
:10409000FFF779FE3B191868596817F0B7FC030061
:1040A0001800BD460BB090BDB0B59AB002AFF86035
:1040B000B9607A603B603B68B868012201920122D6
:1040C000009201220121FFF76EFE03001A00012376
:1040D0005340DBB2002B02D081235B4245E0FB68FA
:1040E0005B68342B03D17B685B68142B02D081237F
:1040F0005B423AE0FB681B68BB65BB6D9B687B65F8
:104100007B681B683B652823FB18180028231A00CE
:10411000002112F0D9FA00237B611423FB18180048
:10412000FCF7FAFC0300FB65FB6D002B01D0FB6D77
:104130001BE0796918243B197A6D1800FFF723FEFC
:1041400028257A193B191868596817F0A1FC030053
:10415000FB65FB6D002B07D13A6D7B191100180030
:10416000FEF711F90300FB65FB6D1800BD4618B0A2
:10417000B0BD90B597B002AFF860B9607A603B60AF
:104180003B68B868012201920122009201220121BC
:10419000FFF709FE03001A0001235340DBB2002B96
:1041A00002D081235B423BE0FB685B68342B03D188
:1041B0007B685B68142B02D081235B4230E07B6814
:1041C0001B68FB642023FB18180028231A00002119
:1041D00012F07AFA1423FB181800FCF79DFC030078
:1041E000BB64BB6C002B01D0BB6C19E07969202348
:1041F000FA18FB6C1800FEF786F80300BB64BB6C72
:10420000002B01D0BB6C0BE020243B1918001AF0E6
:10421000BBF9FA6C3B1911001800FEF7B4F8030063
:104220001800BD4615B090BD90B58FB002AFF860D4
:10423000B9607A603B603B68B86801220192002255
:10424000009201220121FFF7AEFD03001A000123B5
:104250005340DBB2002B02D081235B4233E0FB688A
:104260005B68342B02D081235B422CE0FB681B6827
:10427000FB62FB6A9B68BB627B681B687B627B6836
:104280005B683B6200233B611023FB181800FCF7BE
:1042900043FC0300FB61FB69002B01D0FB6912E0CA
:1042A000396914243B19BA6A1800FFF76CFD7B6862
:1042B0000433386A7A6A3919009303000868496838
:1042C00017F0B4FC03001800BD460DB090BD90B5CA
:1042D0008FB002AFF860B9607A603B603B68B86845
:1042E000012201920022009201220121FFF75BFDD1
:1042F00003001A0001235340DBB2002B02D08123BC
:104300005B4233E0FB685B68342B02D081235B4265
:104310002CE0FB681B68FB62FB6A9B68BB627B68E6
:104320001B687B627B685B683B6200233B611023F8
:10433000FB181800FCF7F0FB0300FB61FB69002B86
:1043400001D0FB6912E0396914243B19BA6A1800DC
:10435000FFF719FD7B680433386A7A6A39190093CC
:1043600003000868496817F0FFFC03001800BD4609
:104370000DB090BD90B58DB002AFF860B9607A60B5
:104380003B603B68B8680022019200220092012243
:104390000121FFF708FD03001A0001235340DBB29F
:1043A000002B02D081235B4227E0FB685B68342B43
:1043B00002D081235B4220E0FB681B687B627B6A42
:1043C0009B683B6200233B611023FB181800FCF73D
:1043D000A3FB0300FB61FB69002B01D0FB690CE030
:1043E000396914243B193A6A1800FFF7CCFC3B19D1
:1043F000186859681CF0A8F903001800BD460BB0F6
:1044000090BD90B59DB002AFF860B9607A603B6036
:104410003B68B86801220192012200920222022127
:10442000FFF7C1FC03001A0001235340DBB2002B4D
:1044300002D081235B425DE0FB685B68342B08D1CE
:104440007B685B68042B04D1FB6808335B68142B22
:1044500002D081235B424DE0FB681B687B667B6E6C
:104460009B683B667B681B68FB65FB6808331B68C1
:10447000BB652C23FB18180028231A00002112F01A
:1044800023F900233B622023FB181800FCF744FBB0
:1044900003007B657B6D002B01D07B6D2AE0396AC0
:1044A0002C23FA18BB6D1800FDF72DFF03007B6568
:1044B0007B6D002B01D07B6D1CE0396A10243B1909
:1044C0003A6E1800FFF75FFC1823FB182C22BA186D
:1044D00039190868496817F041FD03007B657B6D59
:1044E000002B01D07B6D05E01823FB181A68FB6DCB
:1044F0001A607B6D1800BD461BB090BD80B598B0AA
:1045000002AFF860B9607A603B603B68B86801222E
:1045100001920122009202220221FFF744FC0300D3
:104520001A0001235340DBB2002B02D081235B42EF
:104530004FE0FB685B68342B08D1FB6808335B688D
:10454000142B03D17B685B68042B02D081235B4270
:104550003FE07B681B687B65FB6808331B683B6535
:104560002423FB18180028231A00002112F0ACF8AD
:104570000023BB611823FB181800FCF7CDFA0300D9
:10458000FB64FB6C002B01D0FB6C22E0B969242397
:10459000FA183B6D1800FDF7B6FE0300FB64FB6CD8
:1045A000002B01D0FB6C14E01023FA182423FB1815
:1045B0001100180019F0A6FE0300FB64FB6C002B31
:1045C00001D0FB6C05E01023FB181A687B6D1A60A4
:1045D000FB6C1800BD4616B080BD80B584B000AF3E
:1045E000F860B9607A603B60FA68BB689A420DD3A4
:1045F000FA687B689A4209D83A68BB699A4205D33F
:104600003A68FB699A4201D8012300E000231800B0
:10461000BD4604B080BD80B588B002AFF860B96017
:104620007A603B603B68B8680122019200220092E8
:1046300001220121FFF7D1FF03001A00012353409B
:10464000DBB2002B02D081235B4213E0FB685B6886
:10465000342B02D081235B420CE07B681B687B61BA
:104660007B685B683B613A697B691100180019F04F
:10467000E3FB03001800BD4606B080BD90B54A4C70
:10468000A54400AF78600023AD229200BA181360F1
:104690000023AC229200BA1813607B681B69AB2020
:1046A00080003A1813607B681B6AAA229200BA182D
:1046B00013603E4BAE2189005B18DB199A229200F1
:1046C000BA181A60394B5B18DB193A1812685A602D
:1046D000374B5B18DB191822BA181A60344B5B1879
:1046E000DB19942292005A603B181B68402B02D9B8
:1046F00087235B4251E0AA2189007B181A68942322
:104700009B009A4207D22A4BAE2292009B18DB19DB
:104710007A1812685A607B689A68264B1A607B6820
:104720005868AB24A4003B191B689A229200BA185F
:10473000002111F084FF0300AC229200B9180B6035
:10474000BB181A683B191B689A4202D084235B424B
:1047500023E00823FA181023F8180123012100F0A0
:10476000DAFD0300AD229200B9180B60BB181B687C
:10477000002B0ED17B6858680D4BAE2189005B1869
:10478000DB191A680A4B5B18DB195B68002111F012
:104790005AFFAD239B00FB181B681800BD46AF23D2
:1047A0009B009D4490BDC04644FDFFFF58FDFFFFA8
:1047B00050FDFFFFE89E063090B58BB000AF7860EB
:1047C00000237B6200233B6210217B181C22BA1855
:1047D0001A607B681A697B185A6008217B181822B6
:1047E000BA181A607B681A6A7B185A607B681B6962
:1047F000042B03D17B681B6A042B02D087235B4206
:104800002BE07B689A68174B1A607B6858687B6856
:104810001B691C22BA18002111F011FF03003B6232
:104820003B6A042B02D087235B4216E008243A1926
:104830001023F8180123012100F0BCFD03007B6266
:104840007B6A002B08D17B6858683B191A683B19B2
:104850005B68002111F0F7FE7B6A1800BD460BB0C3
:1048600090BDC046E89E063080B582B000AF78604B
:104870007B681B680C4A934203D00C4A934206D0D3
:104880000BE07B681800FFF7F9FE030007E07B6888
:104890001800FFF791FF030001E086235B42180038
:1048A000BD4602B080BDC046E9030000EA03000037
:1048B00080B500AF00F06CF803001800BD4680BD65
:1048C00080B582B000AF78607B680421180041F0A9
:1048D0009AFDC046BD4602B080BD80B584B000AF31
:1048E000F8603A607B603A687B68F968080041F0DC
:1048F000FFFCFB681800FFF7E3FFC046BD4604B0AD
:1049000080BD80B582B000AF78607B680022042152
:10491000180041F0AAFDC046BD4602B080BD80B57A
:1049200084B000AFF8603B1D19605A603B1DF86809
:104930001A685B68092141F010FDC046BD4604B00D
:1049400080BD000080B582B000AF78607B68052B29
:1049500016D87B689A000D4BD3181B689F4600231E
:1049600010E090235B420DE08A235B420AE084233F
:104970005B4207E087235B4204E084235B4201E063
:1049800084235B421800BD4602B080BD889B003086
:1049900080B582B000AF80239A00084B1900012037
:1049A00001F0F0FF03007B607B681800FFF7CAFF8F
:1049B00003001800BD4602B080BDC046EC9E063024
:1049C00080B582B000AF0200FB1D1A70FB1D1B7882
:1049D000002B02D0012B02D003E0002302E00223CF
:1049E00000E005231800BD4602B080BD90B58DB033
:1049F00000AFF860B9607A60BB68042B22D0BB6856
:104A0000042B2CD8BB68012B03D0BB68022B06D02B
:104A100025E0FB681B781A007B681A6022E01624E8
:104A20003B19FB62FB68BB6202237B627A6AB96A4C
:104A3000FB6A180013F054FE3B191B881A007B68B0
:104A40001A600FE07B683B62FB68FB610423BB617B
:104A5000BA69F9693B6A180013F042FE02E00123CB
:104A60005B4200E000231800BD460DB090BD000081
:104A700090B58FB000AFB9607A603B600F23FB1830
:104A8000021C1A70314B1B88314A934202D0012319
:104A90005B4257E02D4B5B881A002C4BD3183B63CD
:104AA0003B681B68002B02D12A4B7B6345E03B68C7
:104AB0001B6814243A19FA62BB6204237B627A6A87
:104AC000B96AFB6A180013F00BFE3B681A683B19C1
:104AD0005B880433D3187B632FE014243B193B62BB
:104AE0007B6BFB610423BB61BA69F9693B6A1800FF
:104AF00013F0F6FD21007B181B889B113F221A4002
:104B00000F23FB181B789A4210D17B181B88DBB24D
:104B10003F221340DAB2BB681A703B687A6B1A60A6
:104B20007B185A887B681A8001230BE01423FB183A
:104B30005B8804337A6BD3187B637A6B3B6B9A4246
:104B4000CBD300231800BD460FB090BDEC9E0630BD
:104B500016200000F09E0630B0B588B000AFB960F6
:104B60007A600F23FB18021C1A701F23FB18002207
:104B70001A707B6800221A607C68BA681725791958
:104B80001F23FB1818782300FFF772FF0300BB6197
:104B9000BB69012B0AD17B191B780F22BA18127836
:104BA0009A4205D0BB69012BE6D002E0C04600E086
:104BB000C046BB691800BD4608B0B0BD90B58FB007
:104BC00000AF786000237B6333243B1900221A7006
:104BD0000023FB6214217B1800221A607B1800223C
:104BE0005A607B68180000F07FFF0300FB623B19EE
:104BF00000221A703BE000233B622023FC1826238E
:104C0000FA181F23F9183323FB1818782300FFF72D
:104C10002FFF0300BB62BB6A013301D103233AE0DB
:104C2000BB6A012B1DD17B6B01337B637B6B012B3B
:104C300006D11B4A01235B42F96A0800FFF74DFECB
:104C40003B6A1A1D14217B181A602623FB181B8847
:104C50001A007B185A607B18F86A19685A68FFF7BF
:104C60005EFE3322BB18BA18127801321A70332351
:104C7000FB181B78062BBED97B6B002B04D0FB6A7C
:104C80001800FFF73EFE05E0064978680122002380
:104C900000F033FF00231800BD460FB090BDC046A2
:104CA00002DBFEFF01DBFEFFB0B590B000AF786025
:104CB00010243B19180008231A00002111F004FDEC
:104CC0000023BB600023FB630823FA180E257B1921
:104CD00019000020FFF740FF0300FB63FB6B012B73
:104CE00009D1BB681A1D3B191A607B191B881A0071
:104CF0003B195A6014E01823FB18190020200AF011
:104D00003AFE0300BB63BB6B002B01D003230FE013
:104D100010217B181822BA181A607B1820225A60BA
:104D20001023FA1804497B68180000F0FFFE0023E6
:104D30001800BD4610B0B0BD04DBFEFF80B586B0E4
:104D400000AF78600C23FB18180000F0FDFC030096
:104D50007B617B69002B01D07B6907E00C23FA188B
:104D600004497B68180000F0E1FE00231800BD46EE
:104D700006B080BDFFDAFEFF80B58EB000AF786070
:104D800020233B611423FA181023FB18110018008C
:104D90000AF008FE03007B637B6B002B01D003232A
:104DA0000EE008217B181422BA181A603A697B18A1
:104DB0005A607A1804497B68180000F0B7FE002397
:104DC0001800BD460EB080BD05DBFEFFB0B584B057
:104DD00000AF78600823FB18180001F0C1FD030044
:104DE000FB60FB68002B01D0FB680AE0BB681C007D
:104DF000DB171D000549786822002B0000F07DFEBE
:104E000000231800BD4604B0B0BDC04607DBFEFF5E
:104E1000F0B58BB000AF78601026BB1918000823DE
:104E20001A00002111F050FC0023BB6000233B62FC
:104E30000823FA180E23FB1819000220FFF78CFE36
:104E400003003B623B6A012B1CD1BB681A1DBB19D6
:104E50001A600E23FB181B881A00BB195A60BB1975
:104E60001868BB195B681822BA181900FFF7BEFD55
:104E70000300FB61FB69002B01D0052311E0BB6936
:104E80007B6203E00AF002FD03007B627B6A1C0088
:104E900000231D000549786822002B0000F02DFE3C
:104EA00000231800BD460BB0F0BDC04606DBFEFF78
:104EB00080B582B000AF786039603A6804497B6899
:104EC000180000F033FE00231800BD4602B080BD7C
:104ED00000DBFEFF80B58EB000AF78602023BB60A2
:104EE0000C23FA180823FB18110018000AF0E7FC3D
:104EF00003007B637B6B002B01D005230EE02C218C
:104F00007B180C22BA181A60BA687B185A607A1893
:104F100004497B68180000F021FE00231800BD46FC
:104F20000EB080BDFEDAFEFF80B58EB000AF7860B7
:104F30002023BB600C23FA180823FB18110018006B
:104F40000AF0EBFC03007B637B6B002B01D0052395
:104F50000EE02C217B180C22BA181A60BA687B1854
:104F60005A607A1804497B68180000F0F7FD0023A6
:104F70001800BD460EB080BD08DBFEFFB0B58EB098
:104F800000AF78601223BB6110243B19180008237E
:104F90001A00002111F098FB0023BB6000237B6303
:104FA0000823FA180E257B1919000120FFF7D4FDFC
:104FB00003007B637B6B012B09D1BB681A1D3B1976
:104FC0001A607B191B881A003B195A6016E01C23D3
:104FD000FA181823FB18110018000AF00BFD030043
:104FE0003B633B6B002B01D003230FE010217B18A8
:104FF0001C22BA181A60BA697B185A601023FA1872
:1050000004497B68180000F0A9FD00231800BD4684
:105010000EB0B0BD03DBFEFF80B582B000AF78609C
:105020007B68402B08D07B68402B07D87B68202BFF
:1050300002D07B68302B01D1002300E0042318004C
:10504000BD4602B080BD80B58CB000AFF860B960DD
:105050007A600123FB6204237B62FB685B68402B60
:105060001ED1FB681B68002B1AD0FB681A68FB680E
:105070005B68D3183B62FB681A687B6AD318BB6213
:1050800009E0BB6A5A1CBA621B78002B03D00023CC
:10509000FB62C04606E0BA6A3B6A9A42F1D301E07D
:1050A0000023FB62FB6A002B14D0FB681B68BA6804
:1050B000FA61BB617B6A7B617A69B969FB69180037
:1050C00013F00EFBBB681B681A0007231A407B68AD
:1050D0001A6005E0BB6800221A607B6800221A6033
:1050E000C046BD460CB080BDB0B5C4B002AFF860DC
:1050F000B9607A6000237A1DFF32136000237B6160
:1051000000233B6100F014FA03007A1DFF321360A4
:105110007B1DFF331B68002B00D0D0E01423FA184E
:105120001023F918FB681800FFF78DFF39697A69B9
:105130003C1DFF3407235D421823F818BB68009319
:105140002B0000F0FEFB030023703B1DFF331B7898
:10515000002B0AD03B1DFF331B781800FFF730FCF3
:1051600003007A1DFF321360C0E0FA6818243B196F
:1051700011001800FFF79CFE03007A1DFF32136038
:105180007B1DFF331B68002B00D09AE03A69802317
:10519000DB05134000D077E03B191800FFF784FDD2
:1051A00003007A1DFF3213607B1DFF331B68002B49
:1051B00000D088E03B191800FFF7C0FD03007A1DFE
:1051C000FF3213607B1DFF331B68002B00D07CE097
:1051D0003B191800FFF7D0FD03007A1DFF32136062
:1051E0007B1DFF331B68002B00D070E03B191800BB
:1051F000FFF7ECFD03007A1DFF3213607B1DFF33C8
:105200001B68002B65D13B191800FFF701FE030056
:105210007A1DFF3213607B1DFF331B68002B5AD1B0
:105220003B191800FFF7CAFC03007A1DFF32136018
:105230007B1DFF331B68002B4FD13B191800FFF774
:1052400049FE03007A1DFF3213607B1DFF331B688C
:10525000002B44D13B191800FFF766FE03007A1DAE
:10526000FF3213607B1DFF331B68002B39D13B19C4
:105270001800FFF783FE03007A1DFF3213607B1DC9
:10528000FF331B68002B2ED13C1DFF347A68182396
:10529000FB181100180000F0D7FB030023703B1D22
:1052A000FF331B78002B20D03B1DFF331B781800E9
:1052B000FFF786FB03007A1DFF32136016E0C0463D
:1052C00014E0C04612E0C04610E0C0460EE0C04602
:1052D0000CE0C0460AE0C04608E0C04606E0C04612
:1052E00004E0C04602E0C04600E0C0467B1DFF333C
:1052F0001B68002B06D100F0A3F903007A1DFF32D2
:10530000136001E000F09CF97B1DFF331B6818005F
:10531000BD4642B0B0BD90B58DB000AFF860B96089
:105320007A603B600023FB62FB681A6824217B18CB
:105330001A60FB685A687B185A607B681A681C24DC
:105340003B191A607B685A683B195A607B185B6886
:105350001800FFF761FE0300FB62FB6A002B1DD102
:105360003B195B68002B02D10423FB6219E0142473
:105370003A191C23F9182423FB181800FFF7B4FE70
:105380000300FB62FB6A002B0AD13B191A687B6899
:105390001A603B195A687B685A6002E0C04600E018
:1053A000C046FB6A1800FFF7CDFA03001800BD469F
:1053B0000DB090BD90B58FB000AFF860B9607A6065
:1053C0003B6000237B63FB681B681B683B637B6857
:1053D0001B68FB6224217B1800221A607B183A6B41
:1053E0005A601C217B1800221A607B18184A5A60E8
:1053F0007B685B68032B02D804237B631EE03B6B56
:105400001800FFF709FE03007B637B6B002B12D1B2
:1054100014243A191C23F9182423FB181800FFF749
:1054200063FE03007B637B6B002B06D13B195A683C
:10543000FB6A1A6002E0C04600E0C0467B6B1800C1
:10544000FFF780FA03001800BD460FB090BDC046BC
:10545000FFFFFF7F80B582B000AF00237B607B68D9
:105460001800BD4602B080BD90B589B000AF78602D
:105470000C243B19180014231A00002111F024F900
:105480007B683A1913CA13C303CA03C37868BD46BD
:1054900009B090BD80B582B000AF78607B681A68B3
:1054A00080235B01134006D07B681B688022D200FA
:1054B0001A437B681A607B681A6880239B0113403B
:1054C00006D07B681B68802212011A437B681A6031
:1054D000C046BD4602B080BD80B582B000AF7860E6
:1054E00039603B001800FFF7D5FF3A687B68DA6047
:1054F000C046BD4602B080BD80B582B000AF7860C6
:1055000039607B683A681A61C046BD4602B080BD0A
:1055100080B582B000AF78600A00BB1C1A807B683F
:10552000BA1C12881A80C046BD4602B080BD000079
:1055300090B5A9B000AF7C23FB18180018231A00FF
:10554000002111F0C1F80023BB613B1D1800FFF7DB
:105550008BFF364B1B68002B01D0052362E097239D
:10556000FB187C243A191C21781860210AF0AAFC47
:1055700003009C22B9180B60BB181B68002B03D1D9
:105580003B191B68002B01D105234BE080235A01F6
:105590003B1D11001800FFF79FFF254A3B1D11001E
:1055A0001800FFF7A9FF9723FB181B781BB2E22214
:1055B000D20113431BB29AB23B1D11001800FFF732
:1055C000A7FF7C22BB181968BB185A681823FB1860
:1055D000381D13F007FA03009822B9180B60BB18A6
:1055E0001B68002B01D005231CE0BA690F4B1A6021
:1055F000104B1B68002B14D1B8690E4B0E49412289
:1056000013F092FA03009822B9180B60BB181B68BC
:10561000002B01D0052305E09723FB181A78074BD0
:105620001A7000231800BD4629B090BDF0A00630C6
:105630000906000638A10630F4A006303CA1063069
:1056400080B582B000AF0D4B1B68002B01D1052344
:105650000FE00A4B1B68180013F004FA03007B608C
:105660007B68002B01D0052303E0044B00221A6065
:1056700000231800BD4602B080BDC046F0A0063031
:1056800080B582B000AF7860074B1B68002B01D15A
:10569000052304E0044B1A687B681A600023180095
:1056A000BD4602B080BDC046F0A0063080B582B0D5
:1056B00000AFFFF7CFFE03003B601D4B1B68002BC4
:1056C00001D1032330E01B4A3B001100180013F006
:1056D00067FA03007B607B68002B01D0032323E083
:1056E000134B1A6814493B00180013F093FA030097
:1056F0007B607B68002B01D0032315E00F49104B22
:105700003800202213F0C4FA03007B607B68002B72
:1057100001D0032308E00B4B01221A70084B1B68D1
:105720005A1C074B1A6000231800BD4602B080BD0A
:1057300038A1063009000002F4A0063041A106306D
:1057400064A1063040A1063080B582B000AF786019
:105750000D4B1B68002B05D1FFF7A8FF031E01D0DE
:1057600003230CE07B68002B01D1052307E07B6855
:10577000064A1A60044B1A687B685A6000231800B6
:10578000BD4602B080BDC04664A1063040A10630CF
:1057900080B584B000AFF8603A607B603A687B689F
:1057A000F968080040F0A4FDBA69FB69F9680800CF
:1057B00040F09EFDC046BD4604B080BD80B584B0BB
:1057C00000AFF8603B1D19605A603B1DF8681A680D
:1057D0005B68032140F0C1FDC046BD4604B080BDFA
:1057E00080B584B000AFF8603A607B603A687B684F
:1057F000F968080040F07CFD1823FB18F868196868
:105800005A68FFF7DBFFC046BD4604B080BD80B5D7
:1058100084B000AFF8603B1D19605A603B1DF8680A
:105820001A685B68022140F098FDC046BD4604B08E
:1058300080BD80B584B000AFF8603A607B603A68A4
:105840007B68F968080040F053FD1823FB18F868DE
:1058500019685A68FFF7DBFFC046BD4604B080BD3B
:1058600080B582B000AF78607B680521180040F0F9
:10587000CAFDC046BD4602B080BD80B582B000AF53
:1058800078607B6800220521180040F0EEFDC046DC
:10589000BD4602B080BD80B584B000AFF860B9608D
:1058A0007A60FB6848220021180010F00DFFFB68A9
:1058B0007A681A62FB68BA689A63C046BD4604B04B
:1058C00080BD82B0B0B582B000AF786010240825EA
:1058D0006119C9190A604B607B68102212190821EE
:1058E0008C46BC4462443C3303CA03C37B686219E0
:1058F000D219283311001022180012F0F1FEC04610
:10590000BD4602B0B0BC08BC02B0184780B582B03A
:1059100000AF0200FB1D1A70FB1D1B78192B09D06C
:105920000ADC002B02D0032B02D005E0002304E0A8
:10593000042302E0012300E003231800BD4602B067
:1059400080BDB0B596B004AFF860B9607A603B60D6
:105950004723FB1800221A7000233B641C217B188C
:1059600000221A607B1800225A60FB689821BA68EE
:105970005A50FB689C217A685A50BB68002B03DAA6
:105980003B6C012213433B64FB68A0333A68396CDB
:105990001800FFF780FF2423FB181800FFF770FEA4
:1059A0000300FB63FB6B002B01D00E2348E0282192
:1059B0007B1802221A707B6A1C0000231D000A005B
:1059C000BB189C60DD60FB68A0331D00BC181C2365
:1059D000FA1808236B4403CA03C36B46180023005C
:1059E00008330822190012F07BFE22686368280041
:1059F000FFF767FFF868BB6D19685A6840F0A7FBAE
:105A0000FB68A033FA683B257C191100180000F0F0
:105A1000BEFA030023702A00BB181B78002B08D0A5
:105A20004723FC18BB181B781800FFF76FFF030013
:105A30002370FB681800FFF713FF4723FB181B7840
:105A40001800BD4612B0B0BDF0B587B000AF7860A9
:105A500039601726BB1900221A707B681800FFF7FF
:105A60000CFF7B68A0337A6816257C19110018009A
:105A700000F007FB030023702A00BB181B78002BE3
:105A800008D0BC19BB181B781800FFF73FFF0300B4
:105A9000237022E07B6815257C190C22BA181100AE
:105AA000180040F064FD030023707B191B78012B64
:105AB00004D11723FB1801221A700EE01523FB18DE
:105AC0001B78002B04D01723FB1802221A7004E065
:105AD0003B680C22BA1803CA03C31723FB181B78B0
:105AE0001800BD4607B0F0BD80B582B000AF786049
:105AF0007B681800BD4602B080BDB0B586B002AF6D
:105B0000F860B9603A607B60F968BB681C00DB171D
:105B10001D003A687B680092019322002B00080068
:105B2000FFF736FEC046BD4604B0B0BDF0B587B045
:105B300002AFF860B9607A60F968BB681C00DB17D7
:105B40001D007A686B4641CA41C322002B00080041
:105B5000FFF76FFEC046BD4605B0F0BDF0B587B09B
:105B600002AFF860B9607A60F968BB681C00DB17A7
:105B70001D007A686B4641CA41C322002B00080011
:105B8000FFF72EFEC046BD4605B0F0BD80B582B021
:105B900000AF3B00186059603B001B685A425341FC
:105BA000DBB21800BD4602B080BD80B582B000AF48
:105BB0003B00186059603B005B685A425341DBB2BE
:105BC0001800BD4602B080BD80B582B000AF3B007A
:105BD000186059603B0018685968FFF7E6FF031E1C
:105BE00006D13B0018685968FFF7D0FF031E01D0AB
:105BF000012300E000231800BD4602B080BD80B53F
:105C000082B000AF78607B689B7B1800BD4602B015
:105C100080BD80B582B000AF78607B681B685A4257
:105C20005341DBB21800BD4602B080BD80B584B0E0
:105C300000AFF8603A607B603A687B68F9680800FA
:105C400040F056FBBA69FB69F968080040F050FB68
:105C5000C046BD4604B080BD80B584B000AFF860DA
:105C60003B1D19605A603B1DF8681A685B68022189
:105C700040F073FBC046BD4604B080BD80B584B023
:105C800000AFF8603A607B603A687B68F9680800AA
:105C900040F02EFB1823FB18F86819685A68FFF7C4
:105CA000DBFFC046BD4604B080BD80B582B000AF0A
:105CB00078607B680421180040F0A5FBC046BD4613
:105CC00002B080BD80B582B000AF78607B680022F2
:105CD0000421180040F0C9FBC046BD4602B080BD9B
:105CE00080B582B000AF78607B680521180040F075
:105CF0008AFBC046BD4602B080BD80B582B000AF11
:105D000078607B6800220521180040F0AEFBC04699
:105D1000BD4602B080BD80B582B000AF78607B68C0
:105D20000221180040F06FFBC046BD4602B080BDA6
:105D300080B582B000AF786039603A687B68022134
:105D4000180040F092FBC046BD4602B080BD80B551
:105D500082B000AF78607B681800FFF75AFF03003D
:105D60001800BD4602B080BD80B582B000AF78603B
:105D70007B681800FFF743FF031E02D07B680122F7
:105D80001A747B681B7C1800BD4602B080BD80B5CC
:105D900082B000AF3B00186059603B00186859683A
:105DA000FFF7F4FE03001800BD4602B080BD80B5C9
:105DB00082B000AF3B00186059603B00186859681A
:105DC000FFF702FF03001800BD4602B080BD82B09D
:105DD00080B588B000AFF860381D016042600422D1
:105DE00028215218D2191360FB6807330BD0FB68C7
:105DF000233306D0FB68243301D1842304E000233D
:105E000002E0602300E040233B613B69002B04D1AA
:105E10001F23FB1801221A703FE0042328229B183D
:105E2000DB195B683A699A4204D91F23FB180622E2
:105E30001A7032E00023BB611DE03A69BB69D31AD6
:105E40007B613B1D5B687A699A4202D93B1D5B68A6
:105E50007B61042328229B18DB191A68BB69D018C0
:105E60003B1D1B687A69190012F03AFC3B1D5B6808
:105E7000BA69D318BB61BA693B699A42DDD304237E
:105E800028229B18DB191A687B6B1A607B6B3A69B6
:105E90005A601F23FB1800221A701F23FB181B785F
:105EA0001800BD4608B080BC08BC02B01847F0B569
:105EB000B5B002AFF860B96039000A604B603B00D2
:105EC0002426B81919685A6840F041F9BB1918001E
:105ED000FFF706FFBB681C00DB171D00B919009413
:105EE0000195012200230800FFF7A0FE3500BB1931
