:1000000020420030D9010000195D00002B020000E1
:1000100000000000000000000000000000000000E0
:100020000000000000000000000000002D020000A1
:1000300000000000000000002F020000915B0000A3
:10004000330200003502000037020000415D00006D
:10005000000000003B0200003D0200003F020000E3
:1000600041020000215E000045020000470200003E
:10007000490200004B0200004D0200000000000099
:100080000000000000000000000000000000000070
:10009000000000004F0200000000000051020000BC
:1000A00000000000000000005302000000000000FB
:1000B00055020000000000000000000000000000E9
:1000C0000448054B10B5834203D0044B002B00D0ED
:1000D000984710BD300500303005003000000000AA
:1000E00006480749091A8B10C90FC91810B54910DD
:1000F00003D0044B002B00D0984710BD30050030D2
:10010000300500300000000010B5074C2378002BAC
:1001100009D1FFF7D5FF054B002B02D0044800E0C2
:1001200000BF0123237010BD300500300000000027
:1001300074D90000054B10B5002B03D004490548C5
:1001400000E000BFFFF7CCFF10BDC046000000007C
:100150003405003074D90000402292029A1A924667
:100160007047C046174B002B00D1134B9D46FFF73D
:10017000F3FF00218B460F461348144A121A0AF067
:1001800059FE0E4B002B00D098470D4B002B00D092
:1001900098470020002104000D000D48002802D0DF
:1001A0000C4800E000BF0AF0EDFD2000290000F03F
:1001B000CBF80AF0C1FDC0460000080000000000B6
:1001C000000000002042003030050030182A0030C6
:1001D00000000000000000000F4C104DAC4209DA96
:1001E00021686268A368043B02DBC858D050FAE774
:1001F0000C34F3E70A4B0B4CA34208DA19685A682F
:100200000020043A01DB8850FBE70833F4E702F0F2
:10021000DBFFFFF7A7FF000080D9000098D900009E
:1002200098D90000A8D90000FEE7FEE7FEE7FEE748
:10023000FEE7FEE7FEE7FEE7FEE7FEE7FEE7FEE796
:10024000FEE7FEE7FEE7FEE7FEE7FEE7FEE7FEE786
:10025000FEE7FEE7FEE7C0460EB490B594B000AFEF
:1002600078600C23FB1800221A6004333C22002122
:1002700018000AF0DFFDFB6D18000BF0B7F8030063
:10028000FB64FB6C0233402B04D9104B18000BF0BD
:100290002FF815E06023FB18BB60FA6D0C243B19A6
:1002A000110018000BF09AF821007A18FB6CD31893
:1002B0000D221A70BA687B18110018000BF09EF816
:1002C000BD4614B090BC08BC03B01847F8BE00008F
:1002D00080B586B000AF78607B681B790C22BA18B5
:1002E0001100180003F01AFC03003B613B69002B6E
:1002F00005D0124B124A134840210AF0F5FC7B68E6
:100300001B681B692022134008D07B681B685A6851
:100310007B681B681B89D3187B6108E07B689A683F
:10032000FB68D2187B681B681B89D3187B6102F0BD
:100330004DFA7B69180003F011FBC04620BF000096
:100340001CC1000028BF000080B58AB000AF474B39
:100350001B687B6280239A01454B1100180006F050
:100360001FFD02F0EFF903F09BFA031E04D0414B8E
:1003700018000AF0BDFFFEE73F4B18000AF0B8FF77
:1003800002F046FA03003B623B6A002B04D03B4B71
:1003900018000AF0ADFFFEE703F012FE031E0BD0BB
:1003A00003F04AFE03003B623B6A002B06D0344B4D
:1003B00018000AF09DFFFEE703F0D0FD2B4B1B68F1
:1003C0007B620123002B03D003F026FB03007B623A
:1003D0002C4B1B687A6AFA61BB61FA69BB69D31A54
:1003E0005A1E9341DBB2002B04D0274B18000AF0B1
:1003F0007FFFFEE709F074FB031E04D0234B1800B7
:100400000AF076FFFEE7194B1B687B620123002B85
:1004100005D03B1D180000F013FF03007B62194B51
:100420001B687A6A7A613B617A693B69D31A5A1E02
:100430009341DBB2002B04D0154B18000AF058FF93
:10044000FEE73B1D9A68134B110018000AF050FF9D
:10045000114B18000AF04CFF3B1D1800FFF738FF46
:100460000E4B18000AF044FFFEE7C04608040030B7
:100470004C05003098BF0000B8BF0000D4BF00009A
:1004800000C00000C02600301CC0000054C00000A6
:1004900078C00000A0C00000D4C00000FCC0000074
:1004A00080B582B000AF78607B685B781800BD468D
:1004B00002B080BD80B582B000AF78607B689B6879
:1004C0001800BD4602B080BD80B582B000AF786034
:1004D0007B68DB681800BD4602B080BD80B584B083
:1004E00000AFF860B9607A607B68DB43BA689A4213
:1004F00001D9002305E0BA687B68D218FB681A604E
:1005000001231800BD4604B080BD80B582B000AFA5
:10051000786039603B682C2253437A68D3181800FE
:10052000BD4602B080BD80B582B000AF7860396052
:100530007A683B682C214B43D31820331B68180082
:10054000FFF7B8FF03001800BD4602B080BD80B5BC
:1005500086B000AFF8607A600B23FB180A1C1A7093
:1005600000233B6127E001237B617B69012B0DD1D7
:100570003A69FB6811001800FFF7C7FF02007B68AB
:100580003969F86802F070F803007B617B69002B21
:100590000ED03B69002B09DD0B23FB181B780122D1
:1005A0005340DBB2002B01D0002308E07B6906E05A
:1005B0003B6901333B613B69012BD4DD002318000B
:1005C000BD4606B080BD000080B584B000AF786045
:1005D00039603A687B6811001800FFF796FF7A6867
:1005E0003B682C214B43D31820331B681A000100B1
:1005F000002001F053FF0300FB60FB68002B05D0D7
:10060000054B18000AF074FEFB6800E00023180098
:10061000BD4604B080BDC04624C1000080B584B092
:1006200000AF786039607B681B6EFB607A68FB689E
:100630002C214B43D31820331B681800FFF730FFE1
:1006400003001A003B681A71FA687B6811001800F1
:10065000FFF769FF02003B689A60FA687B68110047
:100660001800FFF752FF02003B681A60C046BD4603
:1006700004B080BD80B584B000AF78600023FB601B
:100680000EE0FB680122D31A7A682C214B43D31861
:1006900020331B68180003F009FBFB680133FB6083
:1006A000FB68012BEDD9C046C046BD4604B080BDF5
:1006B00090B58BB000AFF860B9607A60BB68190084
:1006C000002003F04BFA03003B623B6ADBB21422CA
:1006D000BA181100180003F0B5FA03007B627B6AB8
:1006E000002B02D001237B6260E0BA68FB68110036
:1006F0001800FFF70AFF03001B891C00BA68FB689B
:1007000011001800FFF701FF0300DB68E318FB612D
:1007100078691023FA18F969042303F0CFFA031E4D
:1007200002D001237B6241E0BA68FB681100180027
:10073000FFF7EBFE03005B89BB6110217B181B8870
:100740001F4A934218D17B185B881A00BB699342F9
:1007500002D003237B6229E0786910243B195B886F
:100760001A00FB69D1183A19042303F0A7FA031EF3
:1007700008D001237B6219E0BB69002B02D0032360
:100780007B6213E01023FB181B880E4A934202D0B1
:1007900003237B620AE0FA69BB69D3181022BA18F6
:1007A00052889A187B681A6000237B627B69180064
:1007B00003F07CFA7B6A1800BD460BB090BDC046C2
:1007C000086900000769000080B58CB006AFF860CA
:1007D000B9607A603B60134B1B687B6113217B1807
:1007E00000221A700F4B1B687B610123002B14D071
:1007F0007B1819787868BA68002304930023039360
:100800000023029380235B000193074B00930300B6
:10081000002000F0D5FE03007B617B691800BD4617
:1008200006B080BD08040030BC25003080B584B01F
:1008300000AF786039607B681B68134A934201D02F
:1008400000231DE07B68D9687B681B891A000C2394
:10085000FB181800FFF742FE03001A000123534063
:10086000DBB2002B01D000230AE03B681800FFF741
:100870002BFE0200FB689A4201D8002300E001230E
:100880001800BD4604B080BD3DB8F39680B586B073
:1008900000AFB9607A600F23FB18021C1A70BB68A6
:1008A0003B611723FB1800221A7012E01723FB1874
:1008B0001B783A69D3181B780F22BA1812789A421B
:1008C00001D000230CE017217B181A787B18013225
:1008D0001A701723FB181B787A689A42E6D801230E
:1008E0001800BD4606B080BDB0B588B000AF7860D6
:1008F00039603B681900002003F030F90300FB6108
:10090000FB69DBB20C22BA181100180003F09AF947
:100910000300BB61BB69002B02D001235B4225E0D1
:10092000FB6817257C19180003F040F903002370B9
:10093000FB68180003F0BAF93A687B6811001800E8
:10094000FFF7E3FD03003B6139697B191B78042243
:100950001800FFF79BFF03001A0001235340DBB28E
:10096000002B02D001235B4200E000231800BD46AB
:1009700008B0B0BD80B582B000AF786039607B68E8
:100980001A783B681B789A4201D901232BE07B68D7
:100990001A783B681B789A4202D201235B4222E01C
:1009A0007B685A783B685B789A4201D901231AE048
:1009B0007B685A783B685B789A4202D201235B429B
:1009C00011E07B685A883B685B889A4201D9012311
:1009D00009E07B685A883B685B889A4202D201230F
:1009E0005B4200E000231800BD4602B080BD00005D
:1009F00090B593B000AFF860B9607A60484B1B685F
:100A00007B64BB681900002003F0A8F803003B6476
:100A10003B6CDBB21422BA181100180003F012F973
:100A20000300FB63FB6B002B01D07B6C74E0BA68A6
:100A3000FB6811001800FFF768FD0300BB63BA688C
:100A4000FB6811001800FFF74FFF031E04D0BB6BBB
:100A50001B691022134004D001237B637B6B7B64F2
:100A600055E001237B627B6A7B640123BB62BB6A26
:100A70007A6C3A63FB623A6BFB6AD31A5A4253416F
:100A8000DBB2002B0DD0264B1B687B640123002BAF
:100A900007D07A697B68B96BF868FFF795FE0300A9
:100AA0007B647A69BB6B11001800FFF7BFFE03007F
:100AB0001A0001235340DBB2002B0CD1194B1B68E9
:100AC0007A6C3A62FB613A6AFB69D31A5A1E934107
:100AD000DBB2002B1AD07C697B691800FFF7F4FCAD
:100AE00003001A000021200003F0F0F9BB68002B7E
:100AF00001D10D4B00E00D4B0D4A190010000AF01A
:100B0000F7FB0123BB61BB697B6400E0C0467B69E6
:100B1000180003F0CBF87B6C1800BD4613B090BDF5
:100B200008040030C026003054C100005CC1000041
:100B300068C1000080B588B000AFB9607A600F214D
:100B40007B18021C1A700023BB617B181B78BA68E3
:100B50001100180003F002F80300DBB21822BA18E3
:100B60001100180003F06EF80300FB61FB69002B15
:100B700002D00123FB6117E0B9691423FA187B68DE
:100B8000180000F0C5FC0300FB61FB69002B0AD1D3
:100B90000F23FB181B787A691100180002F08CFFF4
:100BA0000300FB6100E0C046BB69180003F07EF85B
:100BB000FB691800BD4608B080BD0000B0B588B024
:100BC00002AF786000233B6100237B611FE07B69FB
:100BD0001900002002F0C2FF0300BB60BB68D8B25E
:100BE0007B692C22534320337A68D318190003F011
:100BF00029F80300FB60FB68002B05D03B4B3C4A07
:100C00003C493D480AF070F87B6901337B617B69A0
:100C1000012BDCD97B68002200211800FFF797FC2C
:100C20000300FB60FB68002B05D0344B18000AF072
:100C30005FFBFB6855E000237B614AE07A697B68D3
:100C400011001800FFF761FC03003B617A687B69C3
:100C50002C214B43D31820331A683B69110018002C
:100C6000FFF7E4FD031E1FD07A6864217B69D31867
:100C70005B1801221A707B69002B01D1204900E02A
:100C800020493B691B7D1C003B695B7D1D003B6966
:100C9000DB8A1A003B699B691B48019300922B0079
:100CA00022000AF025FB11E07A6864217B69D318E1
:100CB0005B1800221A707B69002B01D1104B00E0F9
:100CC000104B12481A0000210AF012FB7B69013315
:100CD0007B617B69012BB1D97B68012252421A6684
:100CE00000231800BD4606B0B0BDC04694C1000048
:100CF00058C40000C30800009CC1000010C20000DE
:100D000038C2000040C200004CC2000074C20000A3
:100D100090B587B000AF786001235B423B61002350
:100D20007B612CE07A6864217B69D3185B181B789F
:100D3000002B21D03B69013302D17B693B611BE071
:100D40007A697B6811001800FFF7DFFB030014339A
:100D50001C003A697B6811001800FFF7D6FB0300FE
:100D6000143319002000FFF705FE0300FB60FB6849
:100D7000012B01D17B693B617B6901337B617B691D
:100D8000012BCFD93B691800BD4607B090BD0000CC
:100D900080B584B000AF78607B681B6EFB60FB6839
:100DA000002B01D1054B00E0054B06481A0000213D
:100DB0000AF09EFAC046BD4604B080BD54C1000092
:100DC0005CC10000A0C2000080B588B000AF7860B0
:100DD000164BFB61E023DB02BB617B689B6E7B6192
:100DE0007B68DB6E3B617A69FB699A4201D203231F
:100DF00018E03A6979690C23FB181800FFF76EFBBD
:100E000003001A0001235340DBB2002B01D003235F
:100E100008E0FA69BB69D218FB689A4201D2032341
:100E200000E000231800BD4608B080BD000001307E
:100E300080B588B000AFF860B9607A603B6000238D
:100E40007B61BB681900002002F088FE0300FB6193
:100E5000FB69DBB21422BA181100180002F0F2FE8E
:100E60000300BB61BB69002B01D0012315E0786949
:100E70007A683B68002102F021FF0300BB61BB6977
:100E8000002B05D0BA69074B110018000AF030FAA0
:100E90007B69180002F00AFFBB691800BD4608B064
:100EA00080BDC046CCC2000080B588B000AF78607D
:100EB0000023BB617B681B6E7B617A697B681100D4
:100EC0001800FFF722FB0300BB61BB691B692022EE
:100ED000134040D0BB695B683B6179690C23FA1809
:100EE0007B681800FFF7E4FB0300FB61FB69002B44
:100EF00001D0FB693BE07B683A699A66FA687B68D7
:100F0000DA667B681800FFF75FFF0300FB61FB698F
:100F1000002B07D03A69184B110018000AF0E8F9C5
:100F2000FB6924E07969FB683A697868FFF780FF1C
:100F30000300FB61FB69002B06D03A690F4B1100DF
:100F400018000AF0D5F908E03A690D4B11001800B5
:100F50000AF0CEF901E00323FB61FB69002B05D009
:100F60007B6800229A667B680022DA66FB691800BB
:100F7000BD4608B080BDC04608C3000038C30000AD
:100F800060C3000080B582B000AF78607B689A6E65
:100F90000C4B110018000AF0ABF97B689B6E18002F
:100FA0007B68DB6E1A00002109F044FF7B68002299
:100FB0009A667B680022DA6600231800BD4602B0FC
:100FC00080BDC0468CC3000090B587B000AF78608C
:100FD00039603A68144B002118000AF089F93B681F
:100FE0001900002002F0BAFD03007B617B69DBB2CF
:100FF0000C22BA181100180002F024FE03003B6115
:101000003B69002B0AD1FC68FB681800FFF75CFA0B
:1010100003001A000021200002F058FF3B6918006D
:10102000BD4607B090BDC046C0C3000080B588B0C3
:1010300000AF78607B681B6EBB61BB6901335AD11E
:101040007B681800FFF764FE0300BB61BB690133D6
:1010500007D12D4B002118000AF04AF92B4B1B68D1
:101060004EE07B68BA691A667B681800FFF71CFFC0
:1010700003007B617B69002B11D0BA697B6811008A
:101080001800FFF7A1FF7A686421BB69D3185B18C9
:1010900000221A707B68012252421A662AE01B4B1A
:1010A0001B68FB610123002B07D0B9697B68002214
:1010B0001800FFF79DFC0300FB61154B1B68FA69E4
:1010C0003A61FB603A69FB68D31A5A1E9341DBB25E
:1010D000002B12D07B681800FFF754FF7A68642158
:1010E000BB69D3185B1800221A707B680122524238
:1010F0001A66C0469EE7C04600E0C046044B1B6827
:101100001800BD4608B080BDF0C3000008040030E0
:10111000C026003090B585B000AF78607B681B6E4C
:101120001C007B681A6E7B6811001800FFF7EDF950
:1011300003001A0021000020FFF7FCFC0300FB6005
:10114000FB68002B05D0054B18000AF0D1F8FB68AE
:1011500000E000231800BD4605B090BD18C4000093
:1011600080B58AB000AF786039600023FB61FB690D
:101170003B627B681800FFF721FD03007B627B6AFE
:10118000002B38D12C4B1B683B620123002B05D070
:101190007B681800FFF74AFF03003B62274B1B6880
:1011A0003A6ABA617B61BA697B69D31A5A1E934164
:1011B000DBB2002B21D17B681800FFF7ABFF0300E7
:1011C0007B627B6A002B1AD17B681A6E7B681100E8
:1011D0001800FFF7F9F903007B627B6A002B10D13E
:1011E0007B681800FFF7D4FD3A687B68110018008F
:1011F000FFF714FA06E0C04604E0C04602E0C0462D
:1012000000E0C0467B681800FFF734FA0B4B1B6800
:101210003A6A3A61FB603A69FB68D31A5A42534111
:10122000DBB2002B03D07B6ABB60BB683B623B6ACE
:101230001800BD460AB080BD08040030C02600304A
:1012400080B584B000AF78600C4B1B68FB60002059
:1012500000F018F8094B1B68FB600123002B07D036
:101260007A68074B11001800FFF77AFF0300FB6054
:10127000FB681800BD4604B080BDC04608040030BD
:101280004C25003080B582B000AF78607B68002BC1
:1012900006D07B6870220021180009F0CBFD05E024
:1012A000044B70220021180009F0C4FDC046BD4661
:1012B00002B080BD4C25003080B582B000AF7860B0
:1012C0007B68180006F04CF87B680021180006F0D7
:1012D0006FF8C046BD4602B080BD80B582B000AF99
:1012E0007860C046BD4602B080BD80B584B000AF16
:1012F000F860B9607A607A68B968FB68180006F02F
:1013000069F803001800BD4604B080BD80B582B006
:1013100000AF786039603A687B681100180006F009
:1013200063F803001800BD4602B080BD90B5C5B09B
:1013300000AFF860B9607A603B6014243B19180074
:10134000FFF7BAFF9221490008200B18DB191B6830
:10135000002B10D0942252001318DB191B68002BAD
:1013600009DD1318DB191A680B18DB1919683B190A
:101370001800FFF7BAFF872149007B187A681289A5
:101380001A807B181B88842149007A1813607B68B7
:10139000DB687A181268D3187A1813607B181B68F8
:1013A0007A1DFF3213607B685B891A007B181B680B
:1013B0009B180A0079180B607B685B681900BB18E2
:1013C0001A6814243B191800FFF78FFF90235B0065
:1013D00008229B18DB191A683B1911001800FFF747
:1013E00095FF3B191800FFF778FF00231800BD4652
:1013F00045B090BDB0B5D4B000AF396011003E4BE0
:10140000A82464001B19DB19021C1A703B4B1B1922
:10141000DB190A1C1A802023FB6050257B19180059
:10142000FFF74AFF354B1B19DB191A8839687B19FE
:101430001800FFF75AFF3023FA187B191100180023
:10144000FFF764FF7B191800FFF747FF0C23FA181A
:101450001023F918284B1B19DB191B78180002F010
:1014600035FE0300A4225200B9180B60BB181B689C
:10147000002B02D0BB181B683AE0214B1B68A62446
:1014800064003A1913600123002B0AD0FA68102374
:10149000F9183023FB18180002F02DFE03003A194A
:1014A0001360184B1B68A6225200BA181268A221BA
:1014B000490078180260A02040003A1813607B1899
:1014C0001A683B181B68D31A5A425341DBB2002BEF
:1014D0000CD00D4B3A681A60084BA82252009B189A
:1014E000DB191A88094B1A60002301E001235B42D3
:1014F0001800BD4654B0B0BDB7FEFFFFB4FEFFFFFD
:1015000008040030C026003084040030D4260030A7
:1015100080B590B002AFF860B9607A60FB68002BCC
:1015200005D0BB68002B02D07B68002B01D10723BC
:1015300042E0FB685B89002B01D103233CE0BA68E1
:10154000F9681C23F81801230093502300F0B8FD1C
:1015500003007B637B6B002B01D07B6B2CE016239D
:10156000FA181823F9181C23F818002300F030FE8D
:1015700003007B637B6B002B02D001235B421BE0EB
:101580001623FB181B88042B01D0032314E0FB68EF
:101590005A68BB69D31819001623FB181B881A0058
:1015A0007B68180009F02AFC00237B637B6B002B0F
:1015B00001D0012300E000231800BD460EB080BD1D
:1015C000F0B5DA4CA54406AFF860B9607A603B60CC
:1015D0000023F1229200BA181360D54B1B68F02249
:1015E0009200BA18136001235B42EF229200BA18EE
:1015F00013600023EE25AD007A191360CC4B1B68F5
:10160000ED229200BA181360CA4BEB229200B9186F
:101610000B60BB181B68BB6100237B61C44B1B685C
:10162000EC229200BA1813603C687A68B968FB68CB
:101630009C46F9239B0008269B19DB191B68049321
:10164000F8239B0030009B19DB191B6803931C26B1
:10165000BB190293F7239B001B18DB191B6801932E
:10166000F6239B001B18DB191B68009323006046C0
:10167000FFF75CFE03007A1913607B191B68002BCF
:1016800000D03AE2FA22920008201318DB191B68F6
:10169000002B07D0B9191318DB191B68202218007A
:1016A00009F0ACFBA44C3A687968DE235B00F818BB
:1016B00000230093230000F003FD0300EE229200BC
:1016C000B9180B60BB181B68002B00D017E2DB2495
:1016D000A4003B19994D7A19DC2189007918DE2084
:1016E0004000381800F074FD0300EE229200B91893
:1016F0000B60BB181B68002B00DA02E2BB181B68EA
:10170000002B00DDA3E13B191B88102B52D17B1964
:101710001B88202B04D001235B42BA18136003E21C
:101720007B685A68DC239B00FB181B68D3181900E0
:101730003C243B192022180009F060FB0023EE2214
:101740009200B9180B60BB181B68002B00D0DAE1BF
:10175000774B1B68ED25AD007A1913600123002B30
:1017600009D039191C23FB182022180002F0C3FCF1
:1017700003007A191360724B1B68ED229200BA18AD
:101780001268EA21890078180260E92080003A187E
:1017900013607B181A683B181B68D31A5A1E9341B2
:1017A000DBB2002B00D0B0E10123F1229200BA1885
:1017B00013608CE7DB239B00FB181B88022B37D1BF
:1017C0005E4BFB181A88CC235B009A4206D9012392
:1017D0005B42EE229200BA181360A5E17B685A685A
:1017E000DC239B00FB181B68D3181900534C3B19D2
:1017F0001B881A00EA256D007B19180009F0FEFA13
:101800000023EE229200B9180B60BB181B68002B56
:1018100000D07CE1BB68D8B23B191A887B1919004B
:10182000FFF7E8FD0300EF229200BA1813604EE7BD
:10183000DB239B00FB181B88232B64D1EF22920033
:10184000BB181B68002B05DB3E4B1B68BA181268DF
:101850009A4206DB01235B42EF229200BA18136022
:10186000F4E036497B181A88C0235B009A4205D100
:101870007B181A88C0235B009A4206D901235B4279
:10188000EE229200BA1813604EE17B685A68DC239E
:101890009B00FB181B68D3181900284C3B191B88A8
:1018A0001A003C257B19180009F0A8FA0023EE2243
:1018B0009200B9180B60BB181B68002B00D028E100
:1018C0001B4B1B68F026B600BA1913600123002BCE
:1018D00012D03B191B881900EF239B00FB181B68D3
:1018E000DBB27A191C20381800930B00202100F07D
:1018F00081FB0300BA19136001235B42EF229200BF
:10190000BA181360E3E6DB239B00FB181B88502BFF
:1019100000D0DCE6094BFB181B88042B14D00123F4
:101920005B42EE229200BA181360FDE01CFCFFFF40
:1019300008040030FFFFFF7FFFFF00006E03000080
:10194000C026003080C800007B685A68DC239B00FA
:10195000FB181B68D3181900814BFB181B881A0051
:101960001423FB18180009F049FA0023EE22920014
:10197000B9180B60BB181B68002B00D0CBE0794B6B
:101980001B68ED24A4003A1913600123002B09D031
:10199000BB681822BA181100180002F059F80300A9
:1019A0003A191360704B1B68ED229200BA18126846
:1019B000E821890078180260E72080003A18136057
:1019C0007B181A683B181B68D31A5A1E9341DBB266
:1019D000002B00D0A1E0BB69E3229200B9180B6094
:1019E000BB181B681A007B6993429B415B42DBB2C8
:1019F000E4229200B9180B60BB181B68002B02D0C0
:101A0000584B1B6801E0584B1B68ED2189007A1880
:101A10001360554B1B687A181268E62080003C184A
:101A20002260E524A4003A1913603B181A683B1998
:101A30001B68D31A5A1E9341DBB2002B00D06EE014
:101A40007B181B68EC229200BA1813603FE6C04670
:101A5000F1239B00FB181B685A425341DBB2EE2274
:101A60009200B9180B60BB181B68002B59D13E4B74
:101A70001B68F0229200BA181268DF2189007818DA
:101A80000260DE2080003A1813607B181A683B1849
:101A90001B68D31A5A1E9341DBB2E0229200B91898
:101AA0000B60BB181B68002B02D02E4B1B6801E09B
:101AB0002D4B1B68ED229200BA1813602A4B1B684D
:101AC000EC229200BA181268E221890078180260AC
:101AD000E12080003A1813607B181A683B181B68D5
:101AE000D31A5A1E9341DBB2002B1CD001235B4258
:101AF000EE229200BA18136016E0C04614E0C04609
:101B000012E0C04610E0C0460EE0C0460CE0C04601
:101B10000AE0C04608E0C04606E0C04604E0C04611
:101B200002E0C04600E0C046EE229200BB181B68EF
:101B3000002B0BD0BB181B68DD229200B9180B607C
:101B4000BB181B68ED229200BA181360ED239B00AE
:101B5000FB181B681800BD46F3239B009D44F0BD95
:101B60006E03000008040030C026003080B582B04B
:101B700000AF78607B68180005F0F2FB7B680021FD
:101B8000180005F015FCC046BD4602B080BD80B50A
:101B900082B000AF7860C046BD4602B080BD80B55F
:101BA00084B000AFF860B9607A607A68B968FB68A1
:101BB000180005F00FFC03001800BD4604B080BDFE
:101BC00080B582B000AF786039603A687B681100F8
:101BD000180005F009FC03001800BD4602B080BDE6
:101BE00080B588B002AFF860B9607A601023FA1847
:101BF0007968B868302304F0A9FD03007B617B6934
:101C0000002B02D001235B4260E0BB681A683B698D
:101C1000D3187A689A4202D002235B4256E0FB68EE
:101C200008331A007968BB68180004F0A3FD0300AC
:101C30007B617B69002B0CD1FB6814331A00796837
:101C4000BB68180004F096FD03007B617B69002BE4
:101C500002D003235B4239E0FB680833180004F02C
:101C600099FE0200FB685A60BB681B687A689A425A
:101C700002D004235B4229E0FB6808331900FB68AB
:101C80001433F8680193002300930023002205F029
:101C900021FB03007B617B69002B02D005235B42A3
:101CA00014E0FB68180005F07BFA03007B617B6998
:101CB000002B02D006235B4208E0FB6808331800C3
:101CC00004F068FE0200FB685A6000231800BD465D
:101CD00006B080BDB0B5CAB000AF786039602C23C3
:101CE000FB1800221A606023FF3392225200BA18B8
:101CF000136048E030243B191800FFF737FF3968BC
:101D00003B1920221800FFF74AFF2C2579193B19AF
:101D100004221800FFF743FF0C23FA183B191100A7
:101D20001800FFF74DFF7B19DB780133DAB27B191E
:101D3000DA702023902149007A1813607B181A6802
:101D4000922040003B181B689A4203DD3B181B6839
:101D50007A181360902464003B191A680C23F91850
:101D60007B68180009F04AF821007B181B687A6824
:101D7000D3187B60922040003B181A687B181B68C0
:101D8000D31A3A18136092235B00FB181B68002BD0
:101D9000B0DC3023FB181800FFF7F9FEC046BD4643
:101DA0004AB0B0BDB0B58C4CA54400AFF860B96086
:101DB0007A603B6000238121C9007A181360874B49
:101DC0001B68874ABA181360FB685A68C0235B0017
:101DD0009A4204D001235B427A181360E2E07B68E8
:101DE000202B06D001235B428122D200BA18136057
:101DF000D8E0C8235B00FA183968FB68180005F0C2
:101E000007FA031E06D001235B428122D200BA18D2
:101E10001360C7E0734B8222D2009B18DA1980232B
:101E2000FF33D35CBC2B06D001235B428122D2005E
:101E3000BA181360B6E0C8235B00FB186033FF33A9
:101E40001A003023FB1811001800FFF743FF00238E
:101E5000654ABA1813601FE0644B8224E4001B1922
:101E6000DA1961483B181B68D3181A785D4B1B19A7
:101E7000D9193B181B68CB181B785340D9B25B4B60
:101E80001B19DA193B181B68D3180A1C1A703B1867
:101E90001B6801333A18136053497B181A68AF2343
:101EA0005B009A42D8DD514B8220C0001B18DB1921
:101EB0001B787F221340DAB24C4B1B18DB191A70C7
:101EC00000237A18136018E0484B8222D2009B1836
:101ED000DA19454BFB181B68D3181B78002B06D06A
:101EE00001235B428122D200BA1813605AE03E4AB5
:101EF000BB181B680133BA1813603B4BFB181A68F8
:101F00009F235B009A42DFDB384B8222D2009B1872
:101F1000DA199F235B00D35C012B06D001235B42BF
:101F20008122D200BA1813603CE0C424A4003B19FB
:101F30001800FFF71BFE2E493B1908221800FFF777
:101F40002EFEB9683B1920221800FFF728FE302327
:101F5000FB184033FF3319003B1920221800FFF70C
:101F60001EFE10257A193B1911001800FFF728FEF4
:101F70003B191800FFF70BFE184B1B68184C3A1959
:101F800013600123002B0DD0C8235B00FB186033C6
:101F9000FF3319007B192022180002F0ACF803006F
:101FA0003A1913608122D200BB181B68002B0AD09B
:101FB000BB181B688022D200B9180B60BB181B68C5
:101FC000074ABA181360064BFB181B681800BD4679
:101FD0008223DB009D44B0BDF0FBFFFF080400300E
:101FE0000404000080FDFFFF0C04000020FCFFFF44
:101FF0006CC4000090B5BDB000AFF860B9607A6005
:102000003B602D4B1B68EC22BA18136014243B195B
:10201000180005F0B7F8F82108200B18DB191A781A
:10202000264BD200D3583B613A690B18DB191B7859
:102030002249DB00CB1804331B681B68D318E82245
:10204000B9180B60BB181A681023F9183B1918004F
:10205000FFF7C6FD0300E422B9180B60BB181B682C
:10206000002B04D13B195B683A689A4205D01423CF
:10207000FB18180005F028F911E00F4B1B68EC2441
:102080003A1913600123002B09D07B68BA68F968FC
:1020900014203818FFF786FE03003A191360142342
:1020A000FB18180005F010F9EC23FB181B6818004A
:1020B000BD463DB090BDC0460804003084040030E9
:1020C00090B587B000AFF860B9607A601A00BB1CA9
:1020D0001A80FB68002B05D0BB68002B02D07B6800
:1020E000002B02D101235B426AE0BB681B891A0006
:1020F000BB68DB68D3187B61BB685A687B69D318FF
:10210000190010243B190422180008F077FE210062
:102110007B181B882C4A934218D1BB685A897B18BC
:102120005B889A4202D001235B4249E0BB685A684F
:1021300010203B185B8819007B69CB18D318190055
:102140003B180422180008F059FE06E0BB685B89C2
:10215000002B02D001235B4232E01023FB181B88C6
:102160001A4A934202D001235B4229E0FB68BA6815
:102170001A60FB687A685A60FB68BA1C12881A8178
:10218000FA68202308215B18DB191B789372FB681F
:102190001B685B891A007B69D218FB68DA60FB68F0
:1021A0001B685B891A007B69D3181022BA18528801
:1021B0009A18FB685A617B691A1DFB681A61002333
:1021C0001800BD4607B090BD08690000076900000F
:1021D00080B586B000AFF860B9607A603B60FB689C
:1021E000002B08D0FB681B68002B04D0FB685B68E1
:1021F000002B00D064E001235B4268E0FB681B68B1
:102200005B89002B0AD0FB681A69FB68DB689A427D
:1022100004D1FB681B691A1DFB681A61FB681B6807
:102220005A68FB681B69D31819001023FB18042295
:10223000180008F0E3FD00237B617B69002B02D0CE
:1022400001235B4243E0FB689B7A002B07D0FB68CD
:102250001A69FB68DB689A4201D3012337E0FB6807
:102260001B891D4A934206D01023FB181A88FB686D
:102270001B899A421BD13B68002B04D01023FB180A
:102280001A883B681A80FB681B691A1DBB681A60B4
:1022900010217B185A887B681A80FB681B697A18A2
:1022A00052889B181A1DFB681A6100230FE0FB6817
:1022B0001B691022BA1852889B181A1DFB681A61F4
:1022C000FB681A69FB685B699A4297D3012318007F
:1022D000BD4606B080BDC046FFFF000080B584B09B
:1022E00000AF786008001100BB1C021C1A803B0084
:1022F0000A1C1A80BB1C1A883B001B88D318FB6081
:10230000FA6880235B029A4201D3002304E0FB6851
:102310009AB27B681A8001231800BD4604B080BDC4
:1023200090B58BB000AFBA607B600F23FB18021C26
:102330001A700C23FB180A1C1A801823FB180022A1
:102340001A607B68002B01D103239AE04F4B3B625C
:102350004F4B1B7801225340DBB2002B0FD0802360
:10236000DB004A481A00002108F064FD3B6A494A34
:102370001A803B6A04225A80454B01221A703B6A3C
:102380005B88424A94466344FB61434B7B6224E092
:10239000796A18243B190422180008F02FFD210047
:1023A0007B181B881B0B9AB20F23FB181B789BB260
:1023B0009A420AD17B181B881B051A0D0C23FB18A7
:1023C0001B889A4201D102235BE01823FB185B882B
:1023D0001A007B6AD31804337B627A6AFB699A42DB
:1023E000D6D30F23FB181B781B031AB20C23FB1840
:1023F00000215B5E1B051B0D1BB213431BB29AB27F
:1024000018217B181A80BB689AB27B185A803B6AE5
:102410005988BB689BB204339AB21623FB18180084
:10242000FFF75CFF03001A0001235340DBB2002BCF
:1024300001D0032325E01623FB181A888023DB0034
:102440009A4201D901231CE0FB697B627B6A182256
:10245000B9180422180008F0D1FC7B6A04337B62AF
:102460007B6ABA687968180008F0C8FC3B6A5A8829
:10247000BB689BB2D3189BB204339AB23B6A5A80B2
:1024800000231800BD460BB090BDC04600000630CA
:10249000BC2600301620000004000630B0B5B4B0F1
:1024A00002AFB9607A600F23FB18021C1A70002378
:1024B000C422BA181360C323FB1800221A70C22367
:1024C000FB1800221A70674C7A68B968A023F818C4
:1024D000002300932300FFF7F3FD0300BC22B9188B
:1024E0000B60BB181B68002B02D001235B42B5E0D8
:1024F0009823FB189A22BA189C217918A020381822
:10250000FFF766FE0300BC22B9180B60BB181B68FE
:10251000002B02DA01235B42A0E0BC23FB181B68FE
:10252000002B55DC9823FB181B88602B28D19A239D
:10253000FB181B88642B02D901235B428EE09C238D
:10254000FB1819689A23FB181B881422BA1878689C
:1025500001F0B4FB0300BC22B9180B60BB181B6868
:10256000002B02D001235B4278E09A23FB181B88E2
:10257000C422BA181360C323FB1801221A70B7E7EC
:102580009823FB181B88102BB2D19A23FB181B88A9
:10259000202B02D901235B4260E09C23FB181968C1
:1025A0009A23FB181B887822BA18786801F086FBFA
:1025B0000300BC22B9180B60BB181B68002B02D0AB
:1025C00001235B424AE0C223FB1801221A7000E09B
:1025D000C046C323FB181B7801225340DBB2002BFB
:1025E00007D1C223FB181B7801225340DBB2002B1A
:1025F00002D001235B4231E0C4243B191B68203B1D
:102600009C22B9180B60BB181B6814257A19D318C3
:102610007822B9182022180008F0F0FB0F23FB18CD
:102620001B789B011BB23F2213431AB2BA217B18BD
:102630001A8078193B191A687B1819880300012041
:10264000FFF76EFE0300BC22B9180B60BB181B68B5
:10265000002B02D0BB181B6800E000231800BD4609
:1026600032B0B0BDFFFF000080B588B000AFF860A9
:10267000B9607A603B600023FB61BB6819000020F1
:1026800001F06CFA0300BB61BB69DBB21422BA181B
:102690001100180001F0D6FA0300FB61FB69002B62
:1026A0000BD178697A682023002101F007FB030031
:1026B000FB617B69180001F0F9FAFB69002B01D07E
:1026C0000123FB61FB691800BD4608B080BD000016
:1026D00080B584B000AF78603960104B5B693968B1
:1026E0007A68100098470300FB60FB68002B01D05C
:1026F00000230EE0C046094BDB6A98470300DBB2BB
:1027000001221340DBB2002BF5D1044B1B6A984722
:1027100003001800BD4604B080BDC04650C600008E
:1027200080B584B000AFF860B9607A607A68BB6841
:1027300011001800FFF7CCFF03001800BD4604B0DD
:1027400080BD000080B582B000AF1C4B9B680020AC
:10275000984703007B607B68002B05D0184B194A13
:1027600019485B2108F0C0FA144B1B6902209847F6
:1027700003007B607B68002B05D0114B114A124887
:102780005E2108F0B1FA0D4B9B6AE1225202110062
:102790000120984703007B607B68002B05D0084B25
:1027A000084A0948622108F09FFA044B9B6A0121FC
:1027B00015209847C046BD4602B080BD50C60000F7
:1027C00074C4000004C500008CC4000080B582B051
:1027D00000AF0B4B1B6900209847094BDB689847FB
:1027E00003007B607B68002B05D0064B064A074838
:1027F0006F2108F079FAC046BD4602B080BDC046E0
:1028000050C6000074C4000010C500008CC4000055
:1028100080B500AF01F06EFE03001800BD4680BD1C
:1028200080B588B000AFF860B9607A603B60002383
:10283000FB611423FA18FB681100180000F054FA29
:102840000300FB61FB69002B01D0FB6913E07A698F
:102850007B68934200D91300BB61BA693968BB68D1
:10286000180001F0CFFD0300FB61FB69002B01D0D4
:10287000FB6900E000231800BD4608B080BD0000E1
:1028800080B584B000AFF860B9607A60FB68182B3F
:1028900000D9B7E0FB689A005D4BD3181B689F46D0
:1028A0007B68BA68F8680421FFF7BAFF0300AAE062
:1028B0007B68BA68F8682421FFF7B2FF0300A2E042
:1028C0007B68BA68F8684421FFF7AAFF03009AE022
:1028D0007B68BA68F8684821FFF7A2FF030092E01E
:1028E0007B68BA68F8684C21FFF79AFF03008AE01A
:1028F0007B68BA68F8686C21FFF792FF030082E0FA
:102900007B68BA68F8688C21FFF78AFF03007AE0D9
:102910007B68BA68F8689021FFF782FF030072E0D5
:102920007B68BA68F868B021FFF77AFF03006AE0B5
:102930007B68BA68F868D021FFF772FF030062E095
:102940007B68BA68F868F021FFF76AFF03005AE075
:102950007B68BA6888214900F868FFF761FF0300C7
:1029600051E07B68BA6898214900F868FFF758FF82
:10297000030048E07B68BA6884218900F868FFF7A3
:102980004FFF03003FE07B68BA68A8214900F86860
:10299000FFF746FF030036E07B68BA68C8214900AC
:1029A000F868FFF73DFF03002DE07B68BA68E82177
:1029B0004900F868FFF734FF030024E07B68BA6839
:1029C0008C218900F868FFF72BFF03001BE07B6870
:1029D000BA6894218900F868FFF722FF030012E02B
:1029E0007B68BA6898218900F868FFF719FF03002F
:1029F00009E07B68BA68A8218900F868FFF710FF32
:102A0000030000E0034B1800BD4604B080BDC04683
:102A100020C500005AC30000F0B5C64600B590B00E
:102A200000AF78623962FA61BB616B469846002359
:102A3000BB63FB691A00013A7A63BB600022FA604B
:102A4000B868F9680200520F0E00F6007E617E69D8
:102A500016437E610200D2003A613B6000227A6038
:102A6000386879680200520F0E00F5001543020025
:102A7000D4000733DB08DB006A46D31A9D466B4659
:102A800000333B63142318229B18DA197B6A110068
:102A9000180000F029F90300BB63BB6B002B01D0C9
:102AA000BB6B4BE0FB6AFA699A4201D9274B45E0C0
:102AB000FA69396B3B6A180001F0A4FC0300BB63A0
:102AC000BB6B002B01D0BB6B38E00023FB6323E022
:102AD0003A6BFB6BD3181A78B969FB6BCB181B7870
:102AE0001343DAB2B969FB6BCB181B789A4201D059
:102AF000164B23E03A6BFB6BD3181A78B969FB6B62
:102B0000CB181B781343D9B23A6BFB6BD3180A1C52
:102B10001A70FB6B0133FB63FA6BFB699A42D7D3E4
:102B2000FA69396B3B6A180001F032FE0300BB639F
:102B3000BB6B002B01D0BB6B00E00023C546180027
:102B4000BD4610B080BCB846F0BDC046C5A300006D
:102B500080B584B000AFF860B9607A60FB68182B6C
:102B600000D9B7E0FB689A005D4BD3181B689F46FD
:102B70007B68BA68F8680421FFF74EFF0300AAE0FB
:102B80007B68BA68F8682421FFF746FF0300A2E0DB
:102B90007B68BA68F8684421FFF73EFF03009AE0BB
:102BA0007B68BA68F8684821FFF736FF030092E0B7
:102BB0007B68BA68F8684C21FFF72EFF03008AE0B3
:102BC0007B68BA68F8686C21FFF726FF030082E093
:102BD0007B68BA68F8688C21FFF71EFF03007AE073
:102BE0007B68BA68F8689021FFF716FF030072E06F
:102BF0007B68BA68F868B021FFF70EFF03006AE04F
:102C00007B68BA68F868D021FFF706FF030062E02E
:102C10007B68BA68F868F021FFF7FEFE03005AE00F
:102C20007B68BA6888214900F868FFF7F5FE030061
:102C300051E07B68BA6898214900F868FFF7ECFE1C
:102C4000030048E07B68BA6884218900F868FFF7D0
:102C5000E3FE03003FE07B68BA68A8214900F868FA
:102C6000FFF7DAFE030036E07B68BA68C821490046
:102C7000F868FFF7D1FE03002DE07B68BA68E82111
:102C80004900F868FFF7C8FE030024E07B68BA68D3
:102C90008C218900F868FFF7BFFE03001BE07B680A
:102CA000BA6894218900F868FFF7B6FE030012E0C5
:102CB0007B68BA6898218900F868FFF7ADFE0300C9
:102CC00009E07B68BA68A8218900F868FFF7A4FECC
:102CD000030000E0034B1800BD4604B080BDC046B1
:102CE00084C500005AC3000080B582B000AF786090
:102CF00039607B68182B59D87B689A002F4BD31802
:102D00001B689F463B6820221A6051E03B682022E6
:102D10001A604DE03B6804221A6049E03B680422D7
:102D20001A6045E03B6820221A6041E03B6820229F
:102D30001A603DE03B6804221A6039E03B682022BB
:102D40001A6035E03B6820221A6031E03B6820229F
:102D50001A602DE03B6820221A6029E03B6820229F
:102D60001A6025E03B6820221A6021E03B6820229F
:102D70001A601DE03B6840221A6019E03B6840225F
:102D80001A6015E03B6840221A6011E03B6820227F
:102D90001A600DE03B6810221A6009E03B6840228F
:102DA0001A6005E03B6820221A6001E0044B00E055
:102DB00000231800BD4602B080BDC046E8C5000033
:102DC0005AC3000080B582B000AF3B1D094A1268AB
:102DD0001A603A1D002311880904090C1B0C1B04FE
:102DE0000B43528812041B041B0C13431800BD46EE
:102DF00002B080BD4CC6000080B500AF00230122A8
:102E000013431800BD4680BD80B582B000AF786026
:102E10007B681A68074B1B681900100000F0E4FA81
:102E20007B681B68180000F00CFC00231800BD46EE
:102E300002B080BD6004003080B582B000AF786021
:102E40007B681B68180000F014FB00231800BD46C7
:102E500002B080BD80B582B000AF78600A00FB1C74
:102E60001A70FB1C1B78012B02DC002B03DA07E035
:102E7000022B03D004E004235B4203E0002301E0C3
:102E800005235B421800BD4602B080BD80B586B008
:102E900000AFF860B9607A60BB687B61BB68002BEB
:102EA00002D07B68002B02D105235B423BE0FB682C
:102EB00000225A601CE0C046FB681B68180000F046
:102EC00087FB03001A0001235340DBB2002BF3D130
:102ED000FB681A687B691B781900100000F09EFBE4
:102EE000FB685B685A1CFB685A607B6901337B6135
:102EF000FB685B687A689A42DDD1FB68DB68002B6F
:102F000003D0FB68DB6801209847C046FB681B685C
:102F1000180000F05DFB03001A0001235340DBB2F0
:102F2000002BF3D100231800BD4606B080BD80B54C
:102F300086B000AFF860B9607A60BB687B61BB683F
:102F4000002B02D07B68002B02D105235B422DE0D1
:102F5000FB6800229A601BE0C046FB681B681800F3
:102F600000F0F8FA03001A0001235340DBB2002BF3
:102F7000F3D1FB681B687A691100180000F010FBA0
:102F8000FB689B685A1CFB689A607B6901337B6114
:102F9000FB689B687A689A42DED1FB68DB68002B8D
:102FA00003D0FB68DB680220984700231800BD4669
:102FB00006B080BD80B582B000AF78607B685B688A
:102FC0001800BD4602B080BD80B582B000AF786009
:102FD0007B689B681800BD4602B080BD80B584B098
:102FE00000AFF860B9607A60BB68FF221340012B24
:102FF0000BD1FB681B687A681100180000F05FFABB
:10300000031E05D008235B421CE004235B4219E049
:10301000C046BA68E023DB00134002D004235B42C1
:1030200010E0BA68C0239B01134002D00A235B4220
:1030300008E0BA68C0231B02134002D00B235B4296
:1030400000E000231800BD4604B080BD80B582B00A
:1030500000AF7860054B7A68DA60044B1800FFF720
:10306000D3FE03001800BD4602B080BD0C04003042
:1030700080B500AF034B1800FFF7DEFE0300180019
:10308000BD4680BD0C04003080B582B000AF0200A8
:10309000FB1D1A70FB1D1A78044B11001800FFF776
:1030A000D9FE03001800BD4602B080BD0C040030FC
:1030B00080B582B000AF786039603A687968044BB7
:1030C0001800FFF7E3FE03001800BD4602B080BD04
:1030D0000C04003080B582B000AF786039603A6887
:1030E0007968044B1800FFF722FF03001800BD4663
:1030F00002B080BD0C04003080B584B000AFF86031
:10310000B9607A6004235B421800BD4604B080BDFC
:1031100080B500AF034B1800FFF74CFF0300180009
:10312000BD4680BD0C04003080B500AF034B1800D5
:10313000FFF74AFF03001800BD4680BD0C040030B5
:1031400080B582B000AF786039603A687968044B26
:103150001800FFF743FF03001800BD4602B080BD12
:103160000C04003080B582B000AF00237B607B6828
:103170001800BD4602B080BD80B582B000AF02002D
:10318000FB1D1A7004235B421800BD4602B080BDCF
:1031900080B582B000AF00237B607B681800BD461D
:1031A00002B080BD80B500AF044B054A1A60054BE4
:1031B000034A1A60C046BD4680BDC0465C0400306C
:1031C00080F0FA026004003080B500AF034B044A7F
:1031D0009A60FFF7E7FFC046BD4680BD00ED00E006
:1031E0000000000080B582B000AF78607B681B6B88
:1031F00001221A437B681A63C046BD4602B080BDF7
:1032000080B582B000AF78607B681B6B012293436E
:103210001A007B681A63C046BD4602B080BD80B507
:1032200082B000AF78607B681B6B012213405A1E8E
:103230009341DBB21800BD4602B080BD80B582B0BC
:1032400000AF78607B68DB6A10221A437B68DA6221
:10325000C046BD4602B080BD80B582B000AF786088
:103260007B689B69082213405A1E9341DBB2180009
:10327000BD4602B080BD0000B0B58CB000AF786232
:103280003962FA613B6A3B6100237B613A697B6981
:103290001100890EF96013009B01BB60FB691B01E3
:1032A0003B6000237B603A687B68B868F96807F088
:1032B000FDFB02000B00BA62FB62FB6A002B05D12A
:1032C000FB6A002B0CD1BB6A3F2B09D9FB6A002B90
:1032D00006D1FB6A002B05D1BB6A104A934201D983
:1032E000122316E0FB6A9B06BA6A94091C43FB6A28
:1032F0009D0922007B6A5A62BB6A3F221A407B6AA0
:103300009A62BFF35F8FC0467B6ADA6A7B6ADA62D1
:1033100000231800BD460CB0B0BDC046C0FF3F0042
:1033200090B585B000AF78600C0010001900FB1C50
:10333000221C1A70BB1C021C1A707B1C0A1C1A70FF
:103340007B68DB6AEE229343FB60FB1CFA1C12785D
:1033500060210A401A70BB1CBA1C127879218A437A
:103360001A707B1C7A1C127808210A401A70FB1C08
:103370001A78FB681A43BB1C1B781A437B1C1B780A
:103380001A437B68DA62C046BD4605B090BD0000B6
:1033900080B582B000AF78607B68C02292001A636B
:1033A0007B6800221A607B68FF225A607B680022DB
:1033B0001A627B6800225A627B6800229A627B68EC
:1033C0000022DA627B6812225A637B6800229A63C9
:1033D0007B68044A5A647B6800229A64C046BD46F2
:1033E00002B080BDFF070000B0B586B000AF7860C6
:1033F00039607B681B681B687B617B681B685B6846
:103400003B613B68002B01D110232EE03B69002B70
:1034100001D1122329E07B685B683A685A600F2566
:103420007C193A6939687B691800FFF725FF0300AA
:1034300023707B191B78002B02D07B191B7814E0BA
:103440007B681B68197A7B681B685A7A7B681B68E3
:103450009B7A7869FFF764FF7B691800FFF7EEFE3F
:103460007B685B6801221A7000231800BD4606B015
:10347000B0BD80B584B000AF78607B681B681B6806
:10348000FB60C046FB681800FFF7E6FE031EF9D19B
:10349000FB681800FFF77CFF7B685B6800221A70EE
:1034A000C046BD4604B080BD80B582B000AF786034
:1034B0007B685B681B781800BD4602B080BDB0B564
:1034C00086B000AF786039601723FB1800221A70AD
:1034D0007B681B681B683B610F23FC183B69180065
:1034E000FFF79DFE030023707B681800FFF7DCFFE9
:1034F0000300012B01D0132328E03B68002B01D1EE
:10350000122323E03B691800FFF77AFE7B685B68B3
:10351000596817257C193A683B691800FFF7ACFE1B
:10352000030023707B191B78002B03D17B685B6839
:103530003A689A600F23FB181B78002B03D03B6975
:103540001800FFF74FFE1723FB181B781800BD4625
:1035500006B0B0BD80B584B000AF78607B681B68F2
:103560001B68FB607B681800FFF79EFF0300012BC0
:1035700011D1FB681B6B012213400CD0FB681A6B46
:1035800080239B00134006D0FB689B6910221340E8
:1035900001D1012300E000231800BD4604B080BD26
:1035A00080B584B000AF786039607B681B681B68A9
:1035B000FB60FB681B68DAB23B681A70FB685B68EB
:1035C000DBB20F221340DBB21800BD4604B080BD51
:1035D00080B584B000AF78607B681B681B68FB60B7
:1035E0007B681800FFF760FF0300012B11D1FB6817
:1035F0001B6B012213400CD0FB681A6B80235B000D
:10360000134006D0FB689B692022134001D101239F
:1036100000E000231800BD4604B080BD80B584B032
:1036200000AF78600A00FB1C1A707B681B681B687F
:10363000FB60FB1C1A78FB681A60C046BD4604B0EC
:1036400080BD80B584B000AF78607B681B681B6864
:10365000FB60FB681800FFF7C5FDC046BD4604B01F
:1036600080BD000080B582B000AFBB1D00221A8073
:10367000844B0121180001F0BFFC01F0E3FC01F0D4
:1036800015FD012001F02AFD01F052FD022001F09C
:103690007FFEC023DB0519001C2001F05DFD00202A
:1036A00001F07AFD01F088FD022001F099FDBB1DBB
:1036B000FC2212011A80BB1D1B881900022001F098
:1036C000CDFD0021022001F013FE022001F040FE9A
:1036D00001F01CFD022001F001FD01F029FD022096
:1036E00001F056FE684B1900102001F035FD674BC4
:1036F000180001F051FD01F05FFD022001F070FDA6
:10370000BB1DD822D2001A80BB1D1B8819000220C5
:1037100001F0A4FD0021022001F0EAFD022001F0E9
:1037200017FE01F0F3FC032001F0D8FC01F000FDCE
:10373000022001F02DFEF523DB051900152001F014
:103740000BFDD4235B05180001F026FD01F034FDCC
:10375000022001F045FDBB1DD822D2001A80BB1DFE
:103760001B881900022001F079FD0021022001F0E0
:10377000BFFD022001F0ECFD01F0C8FC042001F0C7
:10378000ADFC01F0D5FC022001F002FE404B190017
:10379000172001F0E1FC3F4B180001F0FDFC01F0A7
:1037A0000BFD022001F01CFDBB1DD822D2001A80A7
:1037B000BB1D1B881900022001F050FD00210220D2
:1037C00001F096FD022001F0C3FD01F09FFC0520F1
:1037D00001F084FC01F0ACFC022001F0D9FD2E4B7D
:1037E0001900102001F0B8FC2C4B180001F0D4FC9B
:1037F00001F0E2FC022001F0F3FCBB1DD822D20054
:103800001A80BB1D1B881900022001F027FD002132
:10381000022001F06DFD022001F09AFD01F076FC1E
:10382000062001F05BFC01F083FC022001F0B0FDFA
:10383000A0231B0619001D2001F08EFC80231B060F
:10384000180001F0A9FC01F0B7FC022001F0C8FC4F
:10385000BB1DD822D2001A80BB1D1B881900022074
:1038600001F0FCFC0021022001F042FD022001F0E9
:103870006FFD01F04BFC01F0FFFBC046BD4602B0FE
:1038800080BDC046000020500000017A0000011AEF
:1038900000000180000001600000907B0000901B90
:1038A00080B582B000AF02F05FFA03007B607B68F6
:1038B000002B01D0012345E0FFF7D4FE234B9B688A
:1038C0000020984703007B607B68002B01D0012318
:1038D00038E01F4B9B680020984703007B607B68A3
:1038E000002B01D001232DE003F086FF03007B6055
:1038F0007B68002B01D0012324E0FEF789FF030041
:103900007B607B68002B04D0124B180007F0F0FCA2
:10391000FEE700F055FB031E0BD001F0EDFE0300A7
:103920007B607B68002B04D00B4B180007F0E0FC99
:10393000FEE73B00180002F03BF83B68180000F07F
:1039400047F800231800BD4602B080BDD0C8000073
:10395000FCC800009CC60000C8C6000080B584B04A
:1039600000AF786003F0CEFF0300FB60FB68002B24
:1039700000D0FEE7134BDB6898470300FB60FB6851
:10398000002B00D0FEE7104BDB6898470300FB607C
:10399000FB68002B00D0FEE70C4B7A681A607B684E
:1039A0001B68BB60BB6883F30888C046BFF34F8FBA
:1039B000C046BFF36F8FC046044B1B685B6818009E
:1039C00006F07CF8D0C80000FCC80000D02600300B
:1039D00080B584B000AF78600023FB6010E00D4A32
:1039E000FB681B01D31808331A687B68D218094991
:1039F000FB681B01CB1808331A60FB680133FB60BE
:103A00000222FB689342EADBC046C046BD4604B0D2
:103A100080BDC0466404003080B582B000AF0A4B60
:103A20001B687B6000F078FB03003B603B68002B69
:103A300002D0054B1B6801E0044B1B687B607B6870
:103A40001800BD4602B080BD08040030C02600301A
:103A500080B586B000AF78603960154B1B687B611C
:103A60003B68002B02D1124B1B681DE07B68002BCA
:103A700002D00F4B1B6817E00823FB181A00042123
:103A8000062000F0C9FB0300FB60FB68002B02D09E
:103A9000074B1B6801E0074B1B687B61BB683B6100
:103AA0003A693B681A607B691800BD4606B080BD64
:103AB00008040030C0260030B0B584B000AF786094
:103AC00039607B68002B02D001235B4222E000F0CA
:103AD00077FA031E0CD03B681900062000F056FC54
:103AE0000300BB60BB68002B13D001235B4211E0D5
:103AF0000F257C193B681900002002F079F80300BB
:103B000023707B191B785BB2002B02D001235B4230
:103B100000E000231800BD4604B0B0BD80B582B0FF
:103B200000AF02003960FB1D1A70FB1D1B78642B6F
:103B300009D0FB1D1978084B6422180007F0D8FB48
:103B400001235B4204E03B68D022D2051A600023C7
:103B50001800BD4602B080BDF8C6000080B582B036
:103B600000AF786039603B68022B17D03B68022BAE
:103B700016DC3B68002B03D03B68012B07D00FE01D
:103B80007B68002B01D101230CE0FF230AE07B6856
:103B9000002B01D1022305E0FF2303E0FF2301E016
:103BA00001235B421800BD4602B080BD80B582B0E3
:103BB00000AF78607B685B689B6A984703001B7D59
:103BC0001800BD4602B080BD80B584B000AFF8607B
:103BD000B9607A607B68DB43BA689A4201D90023F6
:103BE00005E0BA687B68D218FB681A6001231800E8
:103BF000BD4604B080BD80B586B000AFF860B96046
:103C00007A60FB68002B01D1002317E07A68B9685D
:103C10001423FB181800FFF7D7FF03001A00012335
:103C20005340DBB2002B01D0002307E0FB68DA68C9
:103C30007B699A4201D2002300E001231800BD46AF
:103C400006B080BD80B584B000AF02003960FB1DB6
:103C50001A700023FB600AE0124BFA681201D35C71
:103C6000FA1D12789A4208D0FB680133FB600E4BB4
:103C70001B68FA689A42EFDB00E0C0460A4B1B68FB
:103C8000FA689A4202D101235B4206E0FB681A01FE
:103C9000044BD2183B681A6000231800BD4604B0DC
:103CA00080BDC04664040030F4C6000080B582B018
:103CB00000AF7860C046BD4602B080BD90B58FB001
:103CC00000AFF860B9607A603B602F23FB180022D8
:103CD0001A700023BB623A68B968FB681800FFF7E6
:103CE0008AFF03001A0001235340DBB2002B02D0ED
:103CF00001235B42E3E03B687B63FB685B685B68D6
:103D0000984703007B611423FB181B785B079B0F0C
:103D1000DBB21A006C4B9200D25827217B181A7024
:103D20007B181B785B421A00BB6813403B623A6AFF
:103D3000BB689A4248D0FB685B685C69FB689A681C
:103D40003B6AD3181822B91801221800A0470300B3
:103D5000BB62BB6A002B01DABB6AB0E0BA683B6A9F
:103D6000D21A3B68D21827217B181B789A4206D3B7
:103D70007B181A78396ABB68CB1AD31800E03B6805
:103D8000FB612F23FB1800221A7013E02F203B1831
:103D90001A78BB68D2183B6AD21A3B181B7879682C
:103DA000CB18182179188A5C1A703B181A783B18BE
:103DB00001321A702F23FB181B78FA699A42E5D852
:103DC0007A6BFB69D31A7B637B6B002B2CD0272388
:103DD000FB181B781900786B06F0F2FC03003B63BC
:103DE0003B6B002B20D0FB685B685C69FB689A68C2
:103DF000BB68D2182F217B181B78D0187B181B7832
:103E00007A68D3183A6B1900A0470300BB62BB6AFB
:103E1000002B01DABB6A52E02723FB181B783A6BB0
:103E200053437A6BD31A7B637B6B002B41D0FB68C7
:103E30005B685C69FB689A68BB68D2182F23FB1823
:103E40001B78D2182723FB181B78396B4B43D318E8
:103E50001822B91801221800A0470300BB62BB6AF0
:103E6000002B01DABB6A2AE02E23FB1800221A700D
:103E700019E02E243B191A782F23FB1819782723D1
:103E8000FB181B78386B4343C9183B191B78CB18B8
:103E90007968CB18182179188A5C1A703B191A783E
:103EA0003B1901321A702E23FB181B787A6B9A4249
:103EB000DFD8BB6A002B01DABB6A00E000231800E0
:103EC000BD460FB090BDC04644C7000080B588B065
:103ED00000AFF860B9607A600023FB610023BB612A
:103EE0007A68B968FB681800FFF785FE03001A00BE
:103EF00001235340DBB2002B02D001235B4229E0B7
:103F0000FB685B689B6A984703007B617B691B6861
:103F1000002B1ED117E0FB685B68DA69FB689968C3
:103F2000BB68CB18180090470300BB61BB69002B2E
:103F30000ED17B699B68FA69D318FB617B699B682A
:103F4000BA68D318BB60FA697B689A42E3D300E091
:103F5000C046BB691800BD4608B080BD90B585B0AD
:103F600002AF3B001A0008210120FEF789FC3A68E5
:103F70007B680C498A420BD10B498B4208D10B4C10
:103F80000B4A0C490C480D4B0093230007F0B0F985
:103F90003B0008220021180006F04CFFC046BD4639
:103FA00003B090BDA9B454B26D6F90A474C7000063
:103FB00094C70000C4C70000CCC70000E0C70000E1
:103FC00080B582B000AF3B001A0004210620FEF746
:103FD00057FC03007B607B68002B01D07B6808E006
:103FE0003B68002B02D03B68012B01D1012300E08C
:103FF00000231800BD4602B080BD000080B582B02D
:1040000000AF0B4B1A0020211520FEF7A1FD030085
:104010007B607B68002B05D07B68064A934201D009
:104020007B6800E07B681800BD4602B080BDC046DA
:1040300054C700005AC3000090B585B002AF3B00E2
:104040001A0004210620FEF71BFC03007B607B683E
:10405000002B01D07B6823E0134B180007F048F9D0
:10406000124C134A13491448144B0093230007F0D1
:104070003FF93B68002B12D1114A114B9A4205D0EF
:10408000104B180007F034F90F4B09E0FFF7B6FFAB
:1040900003007B607B68002B01D07B6800E000237D
:1040A0001800BD4603B090BDE8C7000074C700000B
:1040B0000CC80000C4C70000CCC70000E0C7000067
:1040C000EDFEDEC044C80000C5A3000090B585B079
:1040D00000AFB9607A600F243B19021C1A707A682D
:1040E000B9683B191B78180001F0C8FE03001800DE
:1040F000BD4605B090BD80B584B000AFF860B96032
:104100007A607A68B968FB68180006F069FE0300F7
:104110001800BD4604B080BD80B500AF00F0EAF9DC
:1041200003001800BD4680BD80B5AAB000AFF8609E
:10413000B9607A609823FA18FB6811001800FEF73E
:10414000D3FD03009C22B9180B60BB181B68002B21
:1041500002D0BB181B685AE09823FB181B68802B01
:1041600000D980239822B9180B60BB18196818234E
:10417000FA18FB681800FEF783FB03009C22B918AD
:104180000B60BB181B68002B02D0BB181B683EE0FD
:1041900000237B610023A422BA18136027E0A32325
:1041A000FB1800221A7017E01823FA18A423FB1832
:1041B0001B68D3181B781A00A3217B181B781A419F
:1041C00013001A0001231A407B69D3187B617B1806
:1041D0001A787B1801321A70A323FB181B78072B5F
:1041E000E2D9A422BB181B680133BA1813609823C4
:1041F000FB181B68A422BA1812689A42CFD3142362
:10420000F9187B680422180006F0F8FD0023180056
:10421000BD462AB080BD000080B584B000AFF86014
:10422000B9607A60BB68042B01D01D4B33E0FB689A
:10423000062B27D0FB68062B2CD8FB68052B19D042
:10424000FB68052B26D8FB68032B03D0FB68042BE7
:1042500008D01FE07A68BB6819000E20FFF764FFE2
:10426000030018E07A68BB6819000F20FFF75CFFB5
:10427000030010E07A68BB6819001020FFF754FFB4
:10428000030008E07A68BB6819001620FFF74CFFAE
:10429000030000E0034B1800BD4604B080BDC046DB
:1042A0005C3A00005AC3000090B5A7B000AF786038
:1042B00039608C23FA187B6811001800FEF714FD92
:1042C00003009022B9180B60BB181B68002B02D0AA
:1042D000BB181B6854E08C23FB181B68802B00D98B
:1042E00080238C22B9180B60BB181B68DB003A686E
:1042F0009A4201D9244B43E00C23FB188022002171
:10430000180006F097FD00239422BA1813600CE001
:104310000C23FA1894217B181B68D318FF221A70FB
:104320007B181B6801337A1813603B68DB08942004
:104330003A1812689A42EBD33B68072213400122D5
:104340009A401300DBB2013BD9B20C243A193B1856
:104350001B68D3180A1C1A708C23FB1819683A19A9
:104360007B681800FEF7F4FB03009022B9180B607D
:10437000BB181B68002B02D0BB181B6800E0002391
:104380001800BD4627B090BDA355000080B582B08F
:1043900000AF786039607B68062B24D07B68062BE1
:1043A00028D87B68052B17D07B68052B22D87B6823
:1043B000032B03D07B68042B07D01BE03B6819005C
:1043C0000E20FFF771FF030015E03B6819000F2076
:1043D000FFF76AFF03000EE03B6819001020FFF7AB
:1043E00063FF030007E03B6819001620FFF75CFF3E
:1043F000030000E0024B1800BD4602B080BDC0467D
:104400005AC30000B0B58AB000AFF860B9607A60F6
:1044100000237B62344B5B68984703007B61142365
:10442000FB181B785B079B0FDBB21A002F4B920027
:10443000D25823217B181A707B181A78FB68110058
:10444000180006F043FA0B1E01D0294B48E07B68A8
:10445000FB610023BB61FB69002B14D0224B5C691C
:10446000FB68902292029D182323FB181B781900E9
:10447000786806F0A5F903001A00BB681900280047
:10448000A04703007B6223243B191B78190078683E
:1044900006F096F903001A003B191B785343BA69DA
:1044A000D318BB61FA69BB69D31AFB61FB69002BA6
:1044B00015D00D4B5B69F968BA698A189021890299
:1044C0005018102439190122984703007B62BA68FA
:1044D000BB69D318FA693919180006F08FFC00235C
:1044E0001800BD460AB0B0BDFCC8000084C800007A
:1044F000C5A3000080B584B000AF0023FB60294B4A
:104500009B68002098470300FB60FB68002B01D0EC
:10451000254B43E00823FB18042219000020FFF775
:1045200071FF0300FB60FB68002B01D0FB6835E0E6
:10453000391DB3239B0004221800FFF763FF03001B
:10454000FB60FB68002B01D0FB6827E0BB68174AC3
:10455000934203D17B68164A934204D000F060FA7C
:104560000300FB6019E03B1D124804221900FFF70D
:1045700049FF0300FB60FB68002B01D0FB680DE0E6
:104580007B680B4A934208D000F0DEF80300FB6022
:10459000FB68002B01D0FB6800E0FB681800BD46FB
:1045A00004B080BDFCC800005C3A00001281DEC08F
:1045B000DEC07230CC12000080B582B000AF7860EF
:1045C00039607B683968180006F080F90B001A0022
:1045D0007B689B1A1800BD4602B080BD90B583B0C1
:1045E00000AF786039607A683B68D4187A683B68B5
:1045F000D318013B3968180006F068F90B00E31A7C
:10460000013B1800BD4603B090BD000080B584B0EA
:1046100000AF786039600023FB607B681B051B0DD1
:1046200001D0144B22E080235A017B68110018004E
:10463000FFF7C2FF0300BB6011E00F4BDB69BA68F4
:10464000100098470300FB60FB68002B01D00B4B68
:104650000CE0BB688022520194466344BB607A68D8
:104660003B68D318BA689A42E7D3FB681800BD4686
:1046700004B080BDC5A30000FCC800005C3A000087
:10468000F0B58BB000AFF860B9607A6000233B6290
:104690007B68FB61294B5B68984703003B611023F3
:1046A000FB181B785B079B0FDBB21A00244B9200B0
:1046B000D2581B23FB181A7000237B6235E07B6AFB
:1046C0008033FA699A4203D2FA697B6AD31A00E00E
:1046D00080237B61194B5C69FA687B6AD5181B26BD
:1046E000BB191B781900786906F06AF803001A00F4
:1046F000144B19002800A04703003B620F4B9C6934
:10470000BA687B6AD518BB191B781900786906F05E
:1047100057F803001A000B4B19002800A0470300AC
:104720003B627A6A7B69D3187B627A6AFB699A4238
:10473000C5D300231800BD460BB0F0BDFCC8000077
:1047400084C80000D826003080B582B000AF0023B6
:104750007B6080235A0194239B0211001800FFF70D
:1047600055FF03007B607B68002B01D07B680BE06A
:1047700080235A019423990290239B021800FFF78B
:104780007FFF03007B607B681800BD4602B080BDE0
:10479000B0B58EB000AFF860B9607A600023BB623C
:1047A00000233B6380235A01FB6811001800FFF7C8
:1047B00003FF03007B62FA687B68D31880225201F2
:1047C00011001800FFF70AFF03003B627D4B5B6896
:1047D000984703007B611423FB181B785B079B0F32
:1047E000DBB21A00784B9200D2581F23FB181A70C4
:1047F0003A6AB3239B009A4214D280235B01734A26
:1048000019001000FFF7D8FE020080235B01190099
:104810001000FFF7FBFE0300BB62BB6A002B01D058
:10482000BB6ACAE0FB6890229202944663448022ED
:10483000520111001800FFF7BFFE040080235A0147
:104840007B6811001800FFF7C9FE03001900200063
:10485000FFF7DCFE0300BB62BB6A002B01D0BB6A22
:10486000ABE07B6A7B6378E07B6B80333A6A9A4289
:1048700003D23A6A7B6BD31A00E08023BB61514BB1
:104880005C697B6B942292029D181F23FB181B7896
:104890001900B86905F094FF03001A004C4B190089
:1048A0002800A0470300BB627A6BBB69D318FA6883
:1048B0009A4229D8FA687B68D3187A6B9A4223D235
:1048C000FA683B6BD3187F2213408022D31AFB6215
:1048D0003A6BFB6AD3187A689A4203D27A683B6BC8
:1048E000D31AFB62FA683B6BD3187F221A40384B0D
:1048F000D018BA683B6BD318FA6A190006F07EFA32
:104900003A6BFB6AD3183B632E4B9C697B6B9022FE
:1049100092029D181F23FB181B781900B86905F037
:104920004FFF03001A002A4B19002800A04703007C
:10493000BB627A6BFB689A420BD3FA687B68D31828
:104940007A6B9A4205D2224B80220021180006F091
:1049500071FA7A6BBB69D3187B637A6B3B6A9A42B4
:1049600082D33A6AB3239B009A421CD280235B0114
:10497000184A19001000FFF71FFE040080235B0196
:10498000124A19001000FFF717FE010080235B0197
:104990001A002000FFF774FE0300BB62BB6A002B05
:1049A00001D0BB6A09E0FFF7CFFE0300BB62BB6A20
:1049B000002B01D0BB6A00E0BB6A1800BD460EB0F8
:1049C000B0BDC046FCC8000084C80000CC42020054
:1049D000D8260030CC52020080B582B000AF002350
:1049E0007B6080235A0190239B0211001800FFF77F
:1049F0000DFE03007B607B68002B01D07B680BE021
:104A000080235A019023990294239B021800FFF7F8
:104A100037FE03007B607B681800BD4602B080BD96
:104A2000B0B58AB000AF00237B62584B5B689847F3
:104A300003003B603B001B785B079B0FDBB21A0057
:104A4000534B9200D2581F23FB181A700823F918F1
:104A500080235B0104221800FFF7D4FC03007B6273
:104A60007B6A002B01D07B6A8CE03B1D4948042205
:104A70001900FFF7C7FC03007B627B6A002B01D0A3
:104A80007B6A7FE0BB68444A93420DD17B68434A0E
:104A9000934209D1FFF7A0FF03007B627B6A002BE2
:104AA00000D16EE07B6A6DE080235A0190239B0267
:104AB00011001800FFF7AAFD03007B627B6A002B40
:104AC00001D07B6A5EE0364B80220021180006F0A0
:104AD000B1F980235B01BB6100233B6223E03B6AA9
:104AE0008033BA699A4203D2BA693B6AD31A00E0AA
:104AF00080237B61254B9C693B6A902292029D1822
:104B00001F23FB181B781900786905F059FE030074
:104B10001A00234B19002800A04703007B623A6A61
:104B20007B69D3183B623A6ABB699A42D7D3FFF7D5
:104B30000BFE03007B627B6A002B01D07B6A21E0C5
:104B4000154B3B611023FB18042219000020FFF7CE
:104B50001FFE03007B627B6A002B01D0114B11E02A
:104B60000E4BFB600C23F918B3239B0004221800A2
:104B7000FFF70EFE03007B627B6A002B01D0094B1E
:104B800000E07B6A1800BD460AB0B0BDFCC800005A
:104B900084C80000CC1200001281DEC0DEC072307A
:104BA000D82600305C3A000080B582B000AF3B1DD3
:104BB000094A12681A603A1D002311880904090C79
:104BC0001B0C1B040B43528812041B041B0C1343C5
:104BD0001800BD4602B080BD9CC8000080B500AF83
:104BE000024B1B681800BD4680BDC04658270030E8
:104BF00080B582B000AF0200FB1D1A70FB1D1B7850
:104C0000022B01D1002301E004235B421800BD46C2
:104C100002B080BD80B500AF00231800BD4680BD46
:104C2000B0B586B000AF7860154B1B687B61144B44
:104C30005B683B613B695A687B695A603B69DA682B
:104C40007B699A603B699A687B69DA603B691A699B
:104C50007B691A610A4B1B680F257C19180001F04B
:104C6000CDFA030023707B191B78002B02D001239F
:104C70005B4200E000231800BD4606B0B0BDC04650
:104C80008C04003080B500AF0023082213431800C5
:104C9000BD4680BDB0B586B000AFF860B9607A603F
:104CA000082206231340DBB2062B02D101235B420C
:104CB00025E000231A00144B9200D2587B6853431E
:104CC0007B60124B186817257C197B68BA68F968F5
:104CD00001F036FA030023707B191B78002B02D0F9
:104CE00001235B420BE000231A00074B9200D358CC
:104CF0001900786805F064FD03007B607B6818008C
:104D0000BD4606B0B0BDC04690C800008C0400305F
:104D1000B0B586B000AFF860B9607A6008220623AB
:104D20001340DBB2062B02D101235B4225E00023B6
:104D30001A00144B9200D2587B6853437B60124B8D
:104D4000186817257C197B68BA68F96801F090F932
:104D5000030023707B191B78002B02D001235B42D8
:104D60000BE000231A00074B9200D3581900786813
:104D700005F026FD03007B607B681800BD4606B089
:104D8000B0BDC04690C800008C040030B0B584B0FF
:104D900000AF78600B4B1B680F257C197A681100F7
:104DA000180001F0E9F8030023707B191B78002B31
:104DB00002D001235B4200E000231800BD4604B08E
:104DC000B0BDC0468C04003090B583B000AF0A4B34
:104DD0001B68FC1D180001F06DF803002370FB1D1B
:104DE0001B78002B02D001235B4200E00023180057
:104DF000BD4603B090BDC0468C04003080B500AF06
:104E0000014B1800BD4680BDA0C80000B0B586B0FB
:104E100000AF7860154B1B687B61144B5B683B618E
:104E20003B695A687B695A603B69DA687B699A60BA
:104E30003B699A687B69DA603B691A697B691A6128
:104E40000A4B1B680F257C19180001F0D7F90300E5
:104E500023707B191B78002B02D001235B4200E0FA
:104E600000231800BD4606B0B0BDC0469404003013
:104E700080B500AF0023082213431800BD4680BD53
:104E8000B0B586B000AFF860B9607A60082206233A
:104E90001340DBB2062B02D101235B4225E0002345
:104EA0001A00144B9200D2587B6853437B60124B1C
:104EB000186817257C197B68BA68F96801F040F911
:104EC000030023707B191B78002B02D001235B4267
:104ED0000BE000231A00074B9200D35819007868A2
:104EE00005F06EFC03007B607B681800BD4606B0D1
:104EF000B0BDC04690C8000094040030B0B586B084
:104F000000AFF860B9607A60082206231340DBB274
:104F1000062B02D101235B4225E000231A00144B2B
:104F20009200D2587B6853437B60124B1868172558
:104F30007C197B68BA68F96801F09AF8030023705D
:104F40007B191B78002B02D001235B420BE000236E
:104F50001A00074B9200D3581900786805F030FC0E
:104F600003007B607B681800BD4606B0B0BDC0463C
:104F700090C8000094040030B0B584B000AF7860F1
:104F80000B4B1B680F257C197A681100180000F084
:104F9000F3FF030023707B191B78002B02D0012341
:104FA0005B4200E000231800BD4604B0B0BDC0461F
:104FB0009404003090B583B000AF0A4B1B68FC1D11
:104FC000180000F077FF03002370FB1D1B78002BF7
:104FD00002D001235B4200E000231800BD4603B06D
:104FE00090BDC0469404003080B500AF014B18005E
:104FF000BD4680BDB8C8000080B582B000AF786003
:1050000039600F4B7A681A600D4B3A685A600C4B46
:105010001A680B4B5B681B040133FF33D218084B33
:105020009A60074B1A68064B5B681B040D33FF330D
:10503000D218034BDA60C046BD4602B080BDC04600
:105040005C27003080B582B000AF0A4B9B687B6064
:105050007B681B6820221A437B681A60C0467B6805
:105060009B6802221340FAD1C046C046BD4602B03A
:1050700080BDC0465C27003080B582B000AF0A4BCF
:105080009B687B607B681B68802212061A437B68E2
:105090001A60C0467B685B68002BFBDAC046C046DE
:1050A000BD4602B080BDC0465C27003080B582B0EE
:1050B00000AF094B9B687B607B681B685B005A08EC
:1050C0007B681A60C0467B685B68002BFBDBC046D0
:1050D000C046BD4602B080BD5C27003080B584B0BC
:1050E00000AF7860084BDB68FB60FB681B68FF2241
:1050F00093431A007B68FF210B401A43FB681A6038
:10510000C046BD4604B080BD5C27003080B582B08B
:1051100000AF064BDB687B607B685B6801221A434B
:105120007B685A60C046BD4602B080BD5C27003037
:1051300080B582B000AF074BDB687B607B685B6843
:10514000012293431A007B685A60C046BD4602B0F4
:1051500080BDC0465C27003080B584B000AF02003F
:105160003960FB1D1A700B4BDB68FB60FB6800228B
:10517000DA61FB68DB69FF2293431A00FB1D1B7891
:105180001A43FB68DA61FB683A685A61C046BD465B
:1051900004B080BD5C27003080B584B000AF78607B
:1051A000044BDB68FB60FB687A685A62C046BD4608
:1051B00004B080BD5C27003080B582B000AF074BE3
:1051C000DB687B607B68DB6A802292021A437B6823
:1051D000DA62C046BD4602B080BDC0465C270030E2
:1051E00080B584B000AF0200FB1D1A701A4BDB685B
:1051F000FB60FB1D1B78022B07D1FB68802252014C
:105200009A63FB6800229A6322E0FB1D1B78042B43
:1052100007D1FB68802252011A64FB6800221A64DD
:1052200016E0FB1D1B78082B07D1FB68802252017A
:105230009A64FB6800229A640AE0FB1D1B78102B1D
:1052400006D1FB68802252011A65FB6800221A65AC
:10525000C046BD4604B080BD5C27003080B584B038
:1052600000AF0200FB1D1A703B1D0A1C1A801F4B69
:10527000DB68FB60FB1D1B78022B09D1FB689A6B76
:105280003B1D1B88DB04DB0C1A43FB689A6328E098
:10529000FB1D1B78042B09D1FB681A6C3B1D1B8876
:1052A000DB04DB0C1A43FB681A641AE0FB1D1B7855
:1052B000082B09D1FB689A6C3B1D1B88DB04DB0CB7
:1052C0001A43FB689A640CE0FB1D1B78102B08D175
:1052D000FB681A6D3B1D1B88DB04DB0C1A43FB6863
:1052E0001A65C046BD4604B080BDC0465C2700308C
:1052F00080B584B000AF02003960FB1D1A70134BFB
:10530000DB68FB60FB1D1B78022B03D1FB683A684E
:105310005A6316E0FB1D1B78042B03D1FB683A6827
:10532000DA630EE0FB1D1B78082B03D1FB683A689B
:105330005A6406E0FB1D1B78102B02D1FB683A680B
:10534000DA64C046BD4604B080BDC0465C2700306C
:1053500080B584B000AF0200FB1D1A700B4BDB68F8
:10536000FB60FB689A68FB1D1B781E210B401A43EB
:10537000FB689A60C046FB681B69FA1D12781340EF
:10538000F9D0C046C046BD4604B080BD5C270030A1
:1053900080B584B000AF0200FB1D1A700E4BDB68B5
:1053A000FB60FB1DFA1D12781E210A401A70FB6873
:1053B0009B68FA1D1278D2431A40FB689A60C04677
:1053C000FB681B69FA1D12781340F9D1C046C0462C
:1053D000BD4604B080BDC0465C27003080B500AF3C
:1053E000BFF34F8FC046044B044ADA60BFF34F8FC0
:1053F000C046C046FDE7C04600ED00E00400FA05E7
:1054000080B584B000AF7860194A1A4B11001800BB
:1054100005F06EFF7B68002B02D101235B4223E085
:10542000154B5B697968802290012422984703001C
:10543000FB60FB68002B02DBFB68242B02D00123FE
:105440005B4211E07B681A78597809020A4399781F
:1054500009040A43DB781B0613431A000449074B6F
:10546000180005F045FF00231800BD4604B080BDBC
:10547000F4CE000028C90000D0C8000034C90000E4
:1054800080B584B000AF78607B681A7859780902DB
:105490000A43997809040A43DB781B0613431A0070
:1054A0001A491B4B180005F023FF7B68002B02D123
:1054B00001235B4226E0174BDB698022920110003A
:1054C00098470300FB60FB68002B02D001235B427E
:1054D00018E0104B9B69796880229001242298473C
:1054E0000300FB60FB68002B02DBFB68242B02D06F
:1054F00001235B4206E0054A074B1100180005F046
:10550000F7FE00231800BD4604B080BD0CCF00009C
:1055100054C90000D0C8000074C9000090B585B01F
:1055200000AF7860A8235B001F492048002205F0E7
:10553000DFFE7B68002B02D101235B4230E01C4B75
:105540005B69A82252007968002098470300FB603D
:10555000FB68002B04DBFA68A8235B009A4202D0A8
:1055600001235B421CE07B681A7A597A09020A43DC
:10557000997A09040A43DB7A1B0613431C007B68F3
:105580001A7B597B09020A43997B09040A43DB7B96
:105590001B06134304490748220005F0A9FE002317
:1055A0001800BD4605B090BD24CF000084C900009E
:1055B000D0C80000ACC9000090B585B000AF7860DD
:1055C000A8235B0025492648002205F091FE7B6850
:1055D000002B02D101235B423CE0224BDB6900201F
:1055E00098470300FB60FB68002B02D001235B425D
:1055F00030E01C4B9B69A822520079680020984734
:105600000300FB60FB68002B04DBFA68A8235B0047
:105610009A4202D001235B421CE07B681A7A597AD5
:1056200009020A43997A09040A43DB7A1B061343E9
:105630001C007B681A7B597B09020A43997B090489
:105640000A43DB7B1B06134304490748220005F08D
:105650004FFE00231800BD4605B090BD34CF0000BA
:1056600084C90000D0C80000ACC9000080B582B079
:1056700000AF1C4A1C4B1100180005F039FE1B4BF3
:105680001B68002B01D0002328E0194B9B680020E9
:1056900098470200FB1D1A70FB1D1B785BB2002BA4
:1056A00002D001235B4219E0114B9B6A984703002B
:1056B0003B603B681B69012B05D00D4BDB689847AD
:1056C00001235B420AE0094B01221A60074B1A686A
:1056D0000449084B180005F00BFE00231800BD46D6
:1056E00002B080BD44CF000028C90000BC280030B3
:1056F000D0C80000D8C90000B0B58CB000AF0023FE
:10570000BB62764A764B1100180005F0F1FD2725A3
:105710007C19FFF7ABFF030023702A00BB181B782E
:105720005BB2002B03D0BB181B785BB2D1E06D4B92
:105730001800FFF7F3FE6B4B9B68012B03D9694BF5
:10574000DB68012B07D8674B9A68664BDB689A4287
:1057500001D00023BDE0A8235A00624B00211800AD
:1057600005F068FB5F4B01225A605E4B00229A6095
:105770005C4B0122DA600023FB622BE05949FA6A94
:1057800013009B009B181B01CB18403301221A60A9
:105790005449FA6A13009B009B181B01CB18443331
:1057A000BA6A1A604F49FA6A13009B009B181B01E2
:1057B000CB18583300221A604A49FA6A13009B003A
:1057C0009B181B01CB185C33012252421A60FB6A02
:1057D0000133FB62FB6A032BD0DD27257C19414B8B
:1057E0001800FFF7E9FE030023707B191B785BB2FA
:1057F000002B03D07B191B785BB26AE0A8235A0008
:10580000384B0021180005F015FB27257C19354B76
:105810001800FFF783FE030023707B191B785BB22F
:10582000002B03D07B191B785BB252E02D4B9A689A
:105830002C4BDB6829492C4805F05AFD3B002422FB
:105840000021180005F0F6FA3B0000221A603B0028
:1058500000225A603B0000229A613B000022DA617C
:105860003B0000221A6227257C193B001800FFF735
:1058700007FE030023707B191B785BB2002B03D05B
:105880007B191B785BB224E03B0024220021180026
:1058900005F0D0FA27257C193B001800FFF7B0FD72
:1058A000030023707B191B785BB2002B03D07B199C
:1058B0001B785BB20DE03B001A6808490B4B1800DF
:1058C00005F016FD054A0A4B1100180005F010FD01
:1058D00000231800BD460CB0B0BDC04658CF000034
:1058E00028C900006C270030F4C900002CCA000051
:1058F00058CA000080B584B000AF78603960294A8A
:10590000294B1100180005F0F3FC3B681A78597810
:1059100009020A43997809040A43DB781B061343FA
:10592000BB607B681A7A597A09020A43997A09049A
:105930000A43DB7A1B0613431A00BB68934201D06B
:1059400001232BE00023FB601EE07868BB68F96848
:105950001A005200D218D3001A000B009B005B18EB
:105960001B01D318C31840331A78597809020A4327
:10597000997809040A43DB781B06134301D10123FC
:105980000CE0FB680133FB60FB68032BDDDD054A9F
:10599000064B1100180005F0ABFC00231800BD46B3
:1059A00004B080BD70CF000028C9000078CA000094
:1059B000F0B58FB000AF7860654A664B11001800F3
:1059C00005F096FCFFF752FE031E06D0624A6049BE
:1059D000624B180005F08CFCFEE70823FB1818004A
:1059E000FFF70EFD031E06D05D4A59495B4B1800B8
:1059F00005F07EFCFEE75B4B1800FFF78FFD031EF2
:105A000006D0594A5249554B180005F071FCFEE783
:105A100033257C190826BA19524B11001800FFF7DC
:105A200069FF030023707B191B785BB2002B12D136
:105A30004C4B9B687B63BB191B687A6B9A4207D0FF
:105A4000B9239A004249454B180005F051FCFEE786
:105A50000023FB6249E03323FB181B785BB2012B68
:105A60003BD108217B185B685A1C7B185A607B1855
:105A70005B68FB62FA6A36493C4B180005F038FC5B
:105A8000FB6A032B09D8374B9B687B637A6B3049E1
:105A9000374B180005F02CFC27E0FB6A062B0FD8CB
:105AA000304BDB687B632A4A324B1100180005F04B
:105AB0001FFC7A6B2649304B180005F019FC14E0E6
:105AC000234A2E4B1100180005F012FC2C4A2049E5
:105AD000224B180005F00CFCFEE7BE239A001C497F
